:101C0B00D3EF9400EE940040147D6E7C00ED1D70BC
:0D1C1B00011CED4C70F7EF1F70E61E80E31A
:011C28002299
:071E2C00696E69740D0A00E4
:0519A90042050C0000E6
:101C6000121C7A121D6412000E1219DB7BFF7A1E01
:0A1C7000792C121AEB121A0D80FBFA
:101A0D00121CAC90050CE0FEA3E0FF7C037DE812F8
:101A1D000A0DED4C7003121CC290050CE0FEA3E004
:101A2D00FF7C007D64120A0DED4C7003121E232203
:10000E00438E805389F0758ACD758CD4C28DD28C77
:05001E00D2A9D2AF22BF
:03000B000217B326
:1017B300C0E0C0F0C083C082C0D075D01090050DCA
:1017C300E02401FF90050CE03400FE7C0B7DB81291
:1017D3000A0DECF0FEA3EDF0FF7C037DE8120A0D89
:1017E300ED4C7002B2CDD0D0D082D083D0F0D0E017
:0117F30032C3
:051E4C003443101001F9
:0A1AC100EBF0A3EAF0A3E9F0C290F5
:101ACB00E4FEEF30E704D2918002C291EF25E0FFF4
:0F1ADB00D2933092034401FFC2930EEEB408E39E
:011AEA0022D9
:101D64007F027E00121C0BC294D290C293D2C7226F
:0C1DDE00C290121ACBE4FF121ACBD29074
:011DEA0022D6
:0E1BEC00121BFA7D407F25121BFA7D077F2613
:101BFA00C290121ACBAC07AF05121ACBD290AF041F
:011C0A0022B7
:0318A60090044F5C
:1018A900121AC1AD07E4FC900452E0FFECC39F504B
:1018B9001CE4FF121ACB90044FE0FBA3E0FAA3E06B
:1018C900F98C82758300EF1209EB0C80DAD290AFA4
:0118D9000509
:0118DA0022EB
:0319430090044EBF
:10194600121AC1AD07E4FC900451E0FFECC39F50AE
:101956001A90044EE0FBA3E475F001120A98A9F070
:0F196600FA120993FF121ACB0C80DCD290AF0556
:01197500224F
:10162E00900509EBF0A3EAF0A3E9F0C2947BFF7AF0
:10163E001E794C9004517405F07F301219439005B9
:10164E0009E0FBA3E0FAA3E0F99004517404F07FE3
:10165E00A01219437D017F21121BFA7F22121BFA61
:10166E007D0A7F24121BEC7D0E7F20121BFAD29472
:07167E007F057E00021C0B3A
:1017F400C2947BFF7A1E794C9004517405F07F2AC1
:101804001219437D037F21121BFA7F22121BFA0D4A
:101814007F31121BFA7F32121BFA7F33121BEC7DCD
:0F1824000F7F20121BFAD2947F057E00021C0B4F
:101CFC007F07121DDE8F203005077DFF7F27121B0B
:021D0C00FA22B9
:10186D00E490044DF07F07121DDE8F20300629E530
:10187D0020540EC29470117B017A057904900452A4
:10188D007404F07F611218A67DFF7F27121BFAC228
:08189D00907FE2121ACBD290F9
:0118A5002220
:0A19AE00C1114104ED004104EC01F9
:101C7A00E5A2543FF5A275985075D7E075D6FE7562
:0A1C8A008E14438E01D2ACD2AF22BB
:030023000217279A
:10172700C0E0C0F0C083C082C0D075D00830982513
:10173700C2989004EDE024EEF582E43404F583E5E5
:1017470099F0E4FF121DC29004EDE004F0E0D39499
:101757000F4002E4F0309904C299C211D0D0D08270
:07176700D083D0F0D0E03286
:091E1A002011FDEFD211F599220F
:0B1AEB0090044CEBF0A3EAF0A3E9F03C
:101AF600E4FE90044CE0FBA3E0FAA3E0F98E8275C5
:0E1B060083001209ACFF6006121E1A0E80E466
:011B140022AE
:071E33007B017A0479EE2225
:061E3A009004EDE0FF2220
:061E40009004ECE0FF221B
:0E1DC200EF6005E49004EDF09004ECEFF022E9
:101CAC00E490044CF01217F412186D7B017A05794C
:061CBC00047D040211C6C4
:101CC200120D8C121A6B7B017A0479E37D031218D0
:041CD200330219764A
:091E2300121E33120C5D021B8932
:101052005B25643A25643A25645D002D2D77656C25
:101062006C636F6D2D2D2D2D2D7573652D2D2D2DF1
:1010720057494D492D4445562D006125642C622562
:10108200642C6325642C642564002D54494D452D40
:101092004E4F572D004F50454E2D54494D452D0072
:1010A2002D4F46462D54494D452D004E4F2E256459
:1010B2002D4F55542D3B6E756D6265722069732EEE
:1010C20025642E002D2D46554C4C2D2D002D2D63C3
:1010D200616C6C6D652D2D313330373736363135D5
:1010E2003934004E4F2E25642D494E2D3B6E756DC1
:1010F200626572206973A1A32564A1A30063617371
:1011020068636172640000000000000000000000DB
:0111120000DC
:0C19B8004104D6004104E2004104D700C5
:1019DB00121D317D0A7F84121BAC7D367F82121B58
:1019EB00AC7D1E7F80121BAC121E0FE49004DFF047
:1019FB00A3F0A3F09004E9F0A3F0A3F0121BCC0228
:021A0B001D427A
:1011C600900450EDF090044DEBF0A3EAF0A3E9F0A3
:1011D600E4FE12099324D0900451F0900504E060D7
:1011E6007C7C01900450E0C36480F8EC64809850E5
:1011F6002390044DE0FBA3E0FAA3E0F9ECF582337B
:1012060095E0F5831209AC24D0FFEE75F00AA42F01
:10121600FE0C80CF900451E0FFB401079004E3EE8A
:10122600F08030EFB402079004E4EEF080259004DD
:1012360051E0FFB403079004E5EEF08016EFB40426
:10124600079004E6EEF0800B7C05900504E4F0A31D
:0D125600DCFC227C05900504E4F0A3DCFC28
:011263002268
:101A6B007B017A04794C1211137B017A04794C12A5
:101A7B00140490044EE09004DAF090044DE09004CE
:0A1A8B00DBF090044CE09004DCF066
:011A9500222E
:0B147A0090046AEBF0A3EAF0A3E9F095
:1014850090049074FFF0A37410F0A37452F09004CC
:101495006AE0FBA3E0FAA3E0F99000021209ACFFB1
:1014A500900493E4F0A3EFF09000031209ACFF90D1
:1014B5000495E4F0A3EFF09000041209ACFF90044A
:1014C50097E4F0A3EFF07B017A04797012057B12A3
:1014D5001D4290046DE0FBA3E0FAA3E0F912190F99
:0914E5007B017A04797002190FF1
:1018DB009004E2E0702DC208121DF8BF0F0E9004A9
:1018EB00D6E004F0E0C394054002E4F0C208121DF8
:1018FB00F8BF0B0F9004D6E014F0E0D39404400330
:04190B007404F0224E
:100D8C001218DB9004D6E0700B121D427BFF7A1018
:100D9C00795D805C9004D6E06401705A9004907484
:100DAC00FFF0A37410F0A3747CF09004E3E0FF90C8
:100DBC000493E4F0A3EFF09004E4E0FF900495E4D6
:100DCC00F0A3EFF09004E5E0FF900497E4F0A3EFBC
:100DDC00F09004E6E0FF900499E4F0A3EFF07B01BF
:100DEC007A04794C12057B121D427B017A04794CF2
:100DFC0012190F020E849004D6E0B402229004E281
:100E0C00E0701790046D74FFF0A37410F0A3748C51
:100E1C00F07B017A0479D812147A121A96805990C0
:100E2C0004D6E0B403257B017A0479E7120AF49026
:100E3C0004E2E0704390046D74FFF0A37410F0A30F
:100E4C007497F07B017A0479E7802A9004D6E0B499
:100E5C0004267B017A0479DD120AF49004E2E07036
:100E6C001790046D74FFF0A37410F0A374A2F07BC0
:0D0E7C00017A0479DD12147AD208021DF803
:0B0C5D0090044CEBF0A3EAF0A3E9F0D8
:100C6800E4A3F0121E3A900450EFF0E490045BF015
:100C7800A3F0785D7C047D017BFF7A1079FFFE7F0D
:100C88001412094B121E40EF6003020D8B121D4215
:100C9800E490044FF0900450E0FF90044FE0FEC34E
:100CA8009F504CEE94044024EE9F502090044CE05A
:100CB800FBA3E0FAA3E0F98E827583001209ACFF6A
:100CC800744C2EF582E43404F583EFF07F01121D95
:100CD800C290044CE0FBA3E0FAA3E0F9A3E0F5829C
:100CE800758300E41209EB90044FE004F080A67BC2
:100CF800017A0479511214EE90045CEFF0F460214B
:100D08009004D7E014F090045CE0FF121E469004B3
:100D18009074FFF0A37410F0A374ADF090045C809D
:100D2800397B017A04795112168590045BEFF0BF84
:100D3800FF117BFF7A1079C612190F7BFF7A1079A1
:100D4800CF803D9004D7E004F090049074FFF0A3A6
:100D58007410F0A374E5F090045BE0FF900493E452
:100D6800F0A3EFF09004D7E0FF900495E4F0A3EF30
:100D7800F07B017A04795D12057B7B017A04795D49
:030D880012190F2E
:010D8B002245
:0F1D7400EF7F08A2E09286D285C285C313DFF409
:011D8300223D
:0F1D84007F08C313A28692E7D285C285DFF4FFE2
:011D9300222D
:101D2000C287C285D287121D74AF05121D74C28787
:011D30002290
:101CD600C287C285D287EF4401FF121D74121D848C
:021CE600C287B3
:011CE80022D9
:0F1DA4003008047D108002E4FD7F8E121D202286
:101BAC00AE05AC07C208121DA4AF04EE75F00A8492
:101BBC00C454F0FDEE75F00A84E5F04DFD021D20D5
:101113007F80121CD6EF5470C4540F75F00AA4FEDE
:10112300EF540F2E1209D97F82121CD6EF5470C4CC
:10113300540F75F00AA4FEEF540F2E90000112090C
:10114300EB7F84121CD6EF5470C4540F75F00AA4BD
:10115300FEEF540F2E9000021209EB7F86121CD66D
:10116300EF5470C4540F75F00AA4FEEF540F2E9081
:1011730000041209EB7F8A121CD6EF5470C4540F7B
:1011830075F00AA4FEEF540F2E9000031209EB7FB3
:1011930088121CD6EF5470C4540F75F00AA4FEEFE6
:1011A300540F2E9000051209EB7F8C121CD6EF54BE
:1011B30070C4540F75F00AA4FEEF540F2E9000066E
:0311C3000209EB33
:101387009000061209AC75F00A849000071209EB69
:101397009000061209AC75F00A84900008E5F01277
:1013A70009EB900009742D1209EB9000051209ACA6
:1013B70075F00A8490000A1209EB9000051209AC37
:1013C70075F00A8490000BE5F01209EB90000C749D
:1013D7002D1209EB9000041209AC75F00A849000F5
:1013E7000D1209EB9000041209AC75F00A84900005
:0D13F7000EE5F01209EB90000FE40209EB87
:101404009000021209AC75F00A849000101209EBE6
:101414009000021209AC75F00A84900011E5F012F4
:1014240009EB900012743A1209EB9000011209AC16
:1014340075F00A849000131209EB9000011209ACB4
:1014440075F00A84900014E5F01209EB900015740D
:101454003A1209EB120993FF75F00A8490001612F0
:1014640009EBEF75F00A84900017E5F01209EB9090
:06147400000FE40209EB89
:101D31007F80121CD6EF30E707E4FD7F80121BACD9
:011D4100227F
:1000260000E010080810E000000F102020100F005C
:1000360000001010F8000000000020203F202000E3
:10004600007008080808F00000302824222130003B
:1000560000300808088870000018202121221C00A2
:100066000000804030F8000000060524243F2424C8
:1000760000F88888880808000019202020110E0042
:1000860000E0108888900000000F112020201F003B
:1000960000180808886818000000003E01000000EB
:1000A6000070880808887000001C222121221C008C
:1000B60000F008080810E0000001122222110F00CB
:1000C600000000C0C000000000000030300000004A
:1000D6000000008000000000000000E000000000BA
:1000E60000008040201008000001020408102000D3
:1000F600004040404040400000020202020202006E
:1001060000081020408000000020100804020100B2
:1001160000704808088870000000003037000000B2
:10012600C030C828E810E000071827282F28170035
:100136000000C038E0000000203C230202273820DF
:1001460008F8888888700000203F202020110E00C3
:10015600C0300808080838000718202020100800BA
:1001660008F808080810E000203F202020100F00A3
:1001760008F88888E8081000203F2020232018006F
:1001860008F88888E8081000203F200003000000D7
:10019600C03008080838000007182020221E020078
:1001A60008F808000008F808203F210101213F2037
:1001B600000808F8080800000020203F2020000062
:1001C60000000808F8080800C08080807F00000052
:1001D60008F888C028180800203F2001263820008B
:1001E60008F8080000000000203F202020203000F2
:1001F60008F8F800F8F80800203F013E013F20000B
:1002060008F830C00008F808203F200007183F0013
:10021600E01008080810E0000F10202020100F0042
:1002260008F808080808F000203F21010101000035
:10023600E01008080810E0000F10282830504F0082
:1002460008F8888888887000203F2000030C30203A
:1002560000708808080838000038202121221C0078
:10026600180808F8080818000000203F20000000C1
:1002760008F808000008F808001F202020201F00AA
:100286000878880000C83808000007380E0100000A
:1002960008F800F800F8080000033E013E030000DD
:1002A600081868808068180820302C03032C30203A
:1002B6000838C800C83808000000203F20000000A9
:1002C60010080808C8380800203826212020180001
:1002D600000000FE020202000000007F40404000D5
:1002E60000000000C038040000601807000000008D
:1002F60000020202FE000000004040407F000000B5
:1003060000000402020400000000000000000000DB
:1003160000000000000000000001010101010100D1
:1003260000020204000000000000000000000000BF
:10033600000080808000000000192424123F200065
:1003460010F0008080000000003F112020110E00F8
:100356000000008080800000000E11202020110087
:10036600000080808090F000001F202020103F2099
:100376000000808080800000001F242424241700B1
:10038600008080E0909020000020203F2020000088
:100396000000808080808000006B949494936000BD
:1003A60010F0008080800000203F210000203F20C8
:1003B60000809898000000000020203F20200000C8
:1003C600000000809898000000C08080807F0000B8
:1003D60010F0000080808000203F24062930200095
:1003E600001010F8000000000020203F2020000030
:1003F6008080808080808000203F20003F20003F5A
:100406008080008080800000203F210000203F2067
:100416000000808080800000001F202020201F0018
:10042600808000808000000080FF912020110E0057
:100436000000008080008000000E11202091FF80C7
:10044600808080008080800020203F2120000100E5
:10045600000080808080800000332424242419003A
:10046600008080E0808000000000001F2020100037
:100476008080000000808000001F202020103F2088
:10048600808080008080800000030C300C03000018
:100496008080008080008080010E300C07380601C5
:1004A60000808080008080000020310E2E312000E8
:1004B6008080800000808080008186781806010098
:1004C60000808080808080000021302C2221300036
:1004D6000000000000FC020200000000013E404057
:1004E600000438C000000000000000010638C0000B
:1004F6000202FC000000000040403E010000000037
:1005060000020102020402000000000000000000D8
:0419C4004104B70023
:0E1DB300E4FFFE0FBF00010EBE01F8BFF4F505
:011DC10022FF
:10176E0075F010EBA42CF582E435F0F583E58224B8
:0E177E0026F582E5833400F583E493FF7D01B8
:10178C00C2A2ED24FF92A1E4FEEF30E704D2A080C8
:10179C0002C2A0EF25E0FFC2C4D2C40EEEB408E929
:0617AC00D2A1D2A2D2A0DE
:0117B2002214
:101BCC00C2A3121DB3D2A3E4FD7F2112178C7FD0C8
:101BDC0012178C7F2012178C7F0C12178C021E048C
:101D0E00AC07ED4440FFE4FD12178CEC4480FF025B
:021D1E00178C20
:101C2900E4FDFF121D0EE4FCE4FB7D01E4FF121745
:0B1C39008C0BEBB454F40CECB406ED83
:011C4400227D
:041A3D00A907AA0546
:101A4100E975F008A4FF121D0EE4FC12176E0CECF0
:101A5100B408F8E975F008A4FFEA04FD121D0E7C34
:091A61000812176E0CECB410F829
:011A6A002259
:0A1E04007F1E9004B8E4F0A3DFFC99
:011E0E0022B1
:0B12640090048DEBF0A3EAF0A3E9F08A
:10126F00E4A3F0A3F0A3F0121C29E4900490F090F3
:10127F000490E0FFC3941E5072EF75F00A84E5F0FE
:10128F00701AE0D394004014900492E02402F0E02E
:10129F0075F00584E5F0F0E4900491F090048DE092
:1012AF00FBA3E0FAA3E0F9A3E0F58275830012092E
:1012BF00ACFFC3648094B04024EF648094FF501D52
:1012CF00900491E0FFA3E0FD90048DA3A3A3E0F5AC
:1012DF00827583001209AC24D0FB121A3D90049141
:0B12EF00E004F0900490E004F0808424
:0112FA0022D1
:101D4200121E04E49004B7F07B017A0479B80212FF
:011D5200642C
:10190F00120993FF60259004B7E024B8F582E43400
:10191F0004F583EFF0740129F9E43AFA9004B7E083
:10192F0004F075F01E84E5F0F080D57B017A047920
:04193F00B802126474
:0800030070B0D0E0070B0D0EF8
:1016DA00E4A29533C43333335480FFE4A29633C46F
:1016EA00333354C04FFFE4A29733C43354E04FFF5F
:1016FA00E4A2CC33C454F04FFFE4A2B433333333FF
:10170A0054F84FFFE4A2B33325E025E04FFFE4A2EB
:0C171A00B23325E04FFFE4A2C0334FFFC4
:0117260022A0
:100F840090044C74FFF0E4FDA3F0A3F0A3F07850B8
:100F94007C040D7BFF7A007903FE7F0412094B78F1
:100FA400547C047D017BFF7A0079077E007F041264
:100FB400094BD295D296D297D2CCC2B4C2B3C2B2A4
:100FC400C2C01216DAAD07EDB4F0037FFF22C2955A
:100FD400C296C297C2CCD2B4D2B3D2B2D2C0121685
:100FE400DA90044DEFF0640F6061E4A3F090044ED6
:100FF400E0FFC39404501674502FF582E43404F5D2
:1010040083E06D600890044EE004F080E0E4900416
:101014004FF090044FE0FFC39404501B74542FF519
:1010240082E43404F583E0FF90044DE06F6008909F
:10103400044FE004F080DB90044FE025E025E0FF5E
:0D10440090044EE02FFF90044CF0227FFF3F
:01105100227C
:101D5300000102FF030405FF060708FF09FFFFFF59
:011D6300FF80
:0819C80041050FFF41050EFF70
:101B8900E4FF120F84EFF4600690050FEFF0229046
:101B9900050FE0FFF4600590050EEFF090050F7456
:021BA900FFF04B
:011BAB002217
:0B1DF80090050EE0FF30080374FFF0C0
:011E030022BC
:101CE900EF3395E0FE74532FF582741D3EF583E4BE
:021CF90093FF57
:011CFB0022C6
:011E5400226B
:0A1E0F007F649003E8E4F0A3DFFC19
:011E190022A6
:101C9400E4FF74E82FF582E43403F583E070012255
:071CA4000FEFB464ED7FFFB8
:011CAB002216
:0D1DEB0074E82FF582E43403F583E4F02260
:0E1DD00074E82FF582E43403F5837401F022E9
:0B168500900471EBF0A3EAF0A3E9F081
:10169000E4FE121C94AD07EDB4FF037FFF22E4FECD
:1016A000900471E0FBA3E0FAA3E0F98E8275830059
:1016B0001209ACFF75F00AEDA42400F582E5F034C0
:1016C00000F583E5822EF582E43583F583EFF00E95
:0916D000EEB40ACCAF05121DD0E6
:0116D90022EE
:0B14EE00900471EBF0A3EAF0A3E9F01A
:1014F900E4A3F0FFFE74E82FF582E43403F583E0FA
:10150900604BE4900474F0FE900471E0FBA3E0FAF0
:10151900A3E0F98E827583001209ACFD75F00AEF1C
:10152900A42400F582E5F03400F583E5822EF582E6
:10153900E43583F583E06D600890047474FFF080EE
:10154900050EEEB40AC2900474E07001220FEFB4E4
:0415590064A37FFF09
:01155D00226B
:0F1D94001214EEEFB4FF037FFF22121DEB7F004E
:011DA300221D
:061E4600121DEB7F0022DB
:101B1500696E707574686F75723A3D256400696EFB
:101B25007075746D696E3A3D256400696E707574E3
:081B35007365633A3D2564006D
:0419D00041050300CA
:0B0AF40090046AEBF0A3EAF0A3E9F025
:100AFF00C208121DF890048BEFF0A374FFF090045E
:100B0F00E2E0701390048BE0B4030C9004E27401E4
:100B1F00F090048B74FFF09004E2E06401705E12B9
:100B2F001D421215CE90048CEFF090049074FFF0DC
:100B3F00A3741BF0A37415F0EF3395E0A3F0A3EFAC
:100B4F00F07B017A04796D12057B7B017A04796D54
:100B5F0012190F90048BE0B403239004E27402F097
:100B6F0090048CE0FF90046AE0FBA3E0FAA3E0F9A5
:100B7F00900002EF1209EB90048B74FFF09004E2E7
:100B8F00E06402705E121D421215CE90048CEFF0DD
:100B9F0090049074FFF0A3741BF0A37423F0EF3351
:100BAF0095E0A3F0A3EFF07B017A04796D12057B3A
:100BBF007B017A04796D12190F90048BE0B4032333
:100BCF009004E27403F090048CE0FF90046AE0FB61
:100BDF00A3E0FAA3E0F9900003EF1209EB90048B66
:100BEF0074FFF09004E2E064037060121D4212156E
:100BFF00CE90048CEFF090049074FFF0A3741BF070
:100C0F00A37430F0EF3395E0A3F0A3EFF07B017AFC
:100C1F0004796D12057B7B017A04796D12190F909F
:100C2F00048BE0B40325E49004E2F090048CE0FF21
:100C3F0090046AE0FBA3E0FAA3E0F9900004EF123E
:0D0C4F0009EB90048B74FFF07F00227FFF03
:010C5C002275
:101A96007B017A0479FE120AF4EF701E900500E0CD
:101AA600FD7F84121BAC900501E0FD7F82121BAC0A
:0B1AB600900502E0FD7F80121BAC22B7
:031E5100020AF48E
:1015CE00C208121DF890048DEFF0F4601BE0FF12BC
:1015DE001CE9EFF4601290048DE0FF121CE99005F7
:1015EE0003E075F00AA42FF090048DE0B40E2B905A
:1015FE000503E0FF75F00A120971AEF0EEFD3395AA
:10160E00E0FCEF3395E0FEC3EF9DFFEE9CFE7C0009
:0F161E007D0A120A62900503EFF0900503E0FFCA
:01162D00229A
:0619D40041051000C19264
:101B6400C2C6C2C5C2A7C3EF648094814002D2C674
:101B7400C3EF648094824002D2C5C3EF648094832F
:051B84004002D2A7227F
:1019760090044F7401F0A37404F0A374DDF0A37413
:1019860001F0A37404F0A374E7F07B017A0479D81C
:1019960012155E9004D7E0FF121C45900510E0FF7B
:0319A600021B64BD
:0B18330090044CEBF0A3EAF0A3E9F0F6
:10183E00E4FF900510F0EFC39D502390044CE0FBA5
:10184E00A3E0FAA3E0F98F827583001209ACD3648A
:0E185E008094854006900510E004F00F80D8BD
:01186C002259
:100E8900900452E0F9A3E0FAA3E0900458C9F0A352
:100E9900EAF0A3E9F090044CE0FBA3E0FAA3E0F93F
:100EA900900455EBF0A3EAF0A3E9F0A3E0FBA3E07B
:100EB900FAA3E0F99000021209ACFE900455E0FB98
:100EC900A3E0FAA3E0F99000021209ACFDD39E4019
:100ED900037F0122EDB5062A900458E0FBA3E0FA4E
:100EE900A3E0F99000031209ACFF900455E0FBA3BD
:100EF900E0FAA3E0F99000031209ACD39F40037F05
:100F09000122900458E0FBA3E0FAA3E0F990000263
:100F19001209ACFF900455E0FBA3E0FAA3E0F990B5
:100F290000021209AC6F7050900458E0FBA3E0FA7C
:100F3900A3E0F99000031209ACFF900455E0FBA36C
:100F4900E0FAA3E0F99000031209ACB5072A90046E
:100F590058E0FBA3E0FAA3E0F99000041209ACFF02
:100F6900900455E0FBA3E0FAA3E0F990000412090C
:0B0F7900ACD39F40037F01227FFF22CA
:10155E0090044CEBF0A3EAF0A3E9F0900452E0F90A
:10156E00A3E0FAA3E0900458C9F0A3EAF0A3E9F0CF
:10157E0090044F120EA1D3EF64809480401E120E81
:10158E0089D3EF64809480401190044F120E8CC367
:10159E00EF64809480501EC212228019120E89C3ED
:1015AE00EF64809480501690044F120E8CD3EF642B
:1015BE008094804008D212E4900510F022C21222CC
:101C4500201217900510E0FD3395E0FCEFD39DECD5
:0B1C55006480F87480985002EFF022C9
:030000000212FBEE
:0C12FB00787FE4F6D8FD758122021342D2
:10087B00E709F608DFFA8046E709F208DFFA803E5F
:10088B0088828C83E709F0A3DFFA8032E309F6084C
:10089B00DFFA8078E309F208DFFA807088828C83B4
:1008AB00E309F0A3DFFA806489828A83E0A3F60868
:1008BB00DFFA805889828A83E0A3F208DFFA804C42
:1008CB0080D280FA80C680D4806980F28033801019
:1008DB0080A680EA809A80A880DA80E280CA803382
:1008EB0089828A83ECFAE493A3C8C582C8CCC583FA
:1008FB00CCF0A3C8C582C8CCC583CCDFE9DEE780CA
:10090B000D89828A83E493A3F608DFF9ECFAA9F048
:10091B00EDFB2289828A83ECFAE0A3C8C582C8CC9E
:10092B00C583CCF0A3C8C582C8CCC583CCDFEADEB7
:10093B00E880DB89828A83E493A3F208DFF980CC19
:10094B0088F0EF60010E4E60C388F0ED2402B40412
:10095B000050B9F582EB2402B4040050AF232345B9
:06096B0082239008CB730B
:10097100C2D530F707B2D563F0FF05F030E70CB20E
:10098100D5F4048463F0FF05F080018430D502F4CE
:0209910004223E
:10099300BB010689828A83E0225002E722BBFE0262
:0909A300E32289828A83E4932295
:1009AC00BB010CE58229F582E5833AF583E0225000
:1009BC0006E92582F8E622BBFE06E92582F8E2224A
:0D09CC00E58229F582E5833AF583E4932264
:1009D900BB010689828A83F0225002F722BBFE01FD
:0209E900F322F7
:1009EB00F8BB010DE58229F582E5833AF583E8F042
:1009FB00225006E92582C8F622BBFE05E92582C8EE
:020A0B00F222D5
:100A0D00BC000BBE0029EF8DF084FFADF022E4CCCD
:100A1D00F875F008EF2FFFEE33FEEC33FCEE9DEC96
:100A2D00984005FCEE9DFE0FD5F0E9E4CEFD22EDDC
:100A3D00F8F5F0EE8420D21CFEADF075F008EF2F26
:100A4D00FFED33FD4007985006D5F0F222C398FD17
:050A5D000FD5F0EA22B4
:100A6200C2D5EC30E709B2D5E4C39DFDE49CFCEEAF
:100A720030E715B2D5E4C39FFFE49EFE120A0DC310
:100A8200E49DFDE49CFC8003120A0D30D507C3E40B
:060A92009FFFE49EFE221E
:100A9800A3F8E0C5F025F0F0E58215827002158311
:060AA800E0C838F0E8226E
:10051600E5182490F582E43404F583E0051822906A
:10052600048D300F03900490E475F001120AAE02B8
:1005360009932008E97F2ED2088018EF540F2490E3
:10054600D43440D4FF300C0BEF24BFB41A00500350
:100556002461FFE51960021519051CE51C700205EA
:100566001B300F0E90048DE475F001120AAEEF02F7
:1005760009D9021B3D7403D20F8003E4C20FF5189C
:1005860090048D120AC5E4F519F51BF51CE51960F2
:10059600077F2012055980F5751AFFC209C208C2E5
:1005A6000AC20BC20DC20EC210120525FF700D3015
:1005B6000F057F0012056AAF1CAE1B22B4255FC271
:1005C600D5C20C120525FF24D0B40A00501A75F0C6
:1005D6000A781930D50508B6FF0106C6A426F62006
:1005E600D5047002D20B80D924CFB41A00EF500480
:1005F600C2E5D20C02076BD20980C6D20880C0D2EF
:100606000A80BCD2D580BAD20D80B47F201205599B
:10061600200A077401B5190040F1120516FF1205EC
:1006260059020593D210D20E8095120516FB1205BB
:1006360016FA120516F94A4B7006793C7A087BFFC2
:10064600200A2EE519602A7E008E82758300120923
:10065600AC60060EEE651A70F0C2D5EBC0E0EAC0DB
:10066600E0E9C0E0EE1207B2D0E0F9D0E0FAD0E05F
:10067600FB120993FF60AAEBC0E0EAC0E0E9C0E024
:10068600120559D0E02401F9D0E03400FAD0E0FB9D
:10069600E51A0460DCD51AD980877BFF7A0779AE24
:1006A600D20A809C791080027908C20EC210800896
:1006B600D2D5790A8004790AC2D5E51A047002F502
:1006C6001AE4FAFDFEFF120516FC7B082009131238
:1006D6000516FD7B1030080A120516FE120516FFD8
:1006E6007B20EC3382D592D55013C3E43008069FA5
:1006F600FFE49EFEE42009039DFDE49CFCE4CBF8A8
:10070600C209EC700CCFCECDCCE824F8F870F3809B
:1007160017C3EF33FFEE33FEED33FDEC33FCEB3363
:10072600FB994002FB0FD8E9EB300905F8D0E0C48D
:1007360048B209C0E00AEC4D4E4F78207B0070C2EB
:10074600EAB51A0040BCC0E01207B4D0F0D0E020F1
:100756000904C4C0E0C4B209C0F0120542D0F0D505
:10076600F0EB020593120ACE06305306AA5806018C
:100776004C05FD4206AE4F06B64406B6490616437C
:0807860006BC5506A04606A0C2
:10078E004506A047085C5006052D06092E062C2BA3
:10079E00060D23062A2008452A05C5480000062412
:1007AE003F3F3F00790AA2D5200B14300D09B91036
:1007BE00020404B9080104A2D5200E02500104203F
:1007CE000A68920AB519005034C0E07F20300B1928
:1007DE007F30A20A720E720D500F12080BC20AC29F
:1007EE000EC20DC2107F30800F300D03E9C0E01233
:1007FE000559300D03D0E0F9D0E0B519CC300D1706
:10080E007F30B9100C1205597F58300C077F788055
:10081E0003B90803120559300A057F2D0205597FC9
:10082E00202010F87F2B200EF322920A80CF286E04
:10083E00756C6C2900D2091205163009F8C20978B8
:10084E001930D50108F60205C52D50434958120539
:10085E00162403B405004001E49008579312054A8C
:0D086E00743A12054AD20B7519040206AA4D
:10130700021C60E493A3F8E493A34003F68001F280
:1013170008DFF48029E493A3F85407240CC8C333E7
:10132700C4540F4420C8834004F456800146F6DFB6
:10133700E4800B01020408102040809019A9E47E84
:10134700019360BCA3FF543F30E509541FFEE493AB
:10135700A360010ECF54C025E060A840B8E493A372
:10136700FAE493A3F8E493A3C8C582C8CAC583CA9D
:10137700F0A3C8C582C8CAC583CADFE9DEE780BE55
:0119DA00000C
:100AAE00F8E0FBA3A3E0F925F0F0E58215827002D1
:070ABE001583E0FA38F02275
:090AC500EBF0A3EAF0A3E9F02232
:100ACE00D083D082F8E4937012740193700DA3A3B7
:100ADE0093F8740193F5828883E4737402936860CB
:060AEE00EFA3A3A380DFCB
:101B3D00EFB40A07740D121B48740A309811A89956
:101B4D00B8130CC2983098FDA899C298B811F63008
:071B5D0099FDC299F59922E0
:00000001FF
