:10255300D3EF9400EE940040147D6E7C00ED1D706B
:0D256300011CED4C70F7EF1F70E61E80E3C9
:012570002248
:07276800696E69740D0A009F
:07201A004405440000000032
:1025A8001225C21226A012000E1224AF7BFF7A2732
:0A25B800796812241112138280FBCF
:1013820012260DE47BD07A07F9F8900544E0FCA31D
:10139200E0FDA3E0FEA3E0FF122141AC00AD01AEEF
:1013A20002AF03EC4D4E4F70031225DCE47B32FAA0
:1013B200F9F8900544E0FCA3E0FDA3E0FEA3E0FF02
:1013C200122141AC00AD01AE02AF03EC4D4E4F70A5
:1013D20003122799E47B64FAF9F8900544E0FCA330
:1013E200E0FDA3E0FEA3E0FF122141AC00AD01AE9F
:1013F20002AF03EC4D4E4F7003122782E47B2C7A2E
:1014020001F9F8900544E0FCA3E0FDA3E0FEA3E0AF
:10141200FF122141AC00AD01AE02AF03EC4D4E4FC5
:10142200700312279CE47BF47A01F9F8900544E0FA
:10143200FCA3E0FDA3E0FEA3E0FF122141AC00AD5E
:0F14420001AE02AF03EC4D4E4F700312279F22F5
:10000E00438E805389F0758AD0758C8AC28DD28CBE
:05001E00D2A9D2AF22BF
:03000B00021CB420
:101CB400C0E0C0F0C083C082C0D075D0109005448D
:101CC400E0FCA3E0FDA3E0FEA3E02401FFE43EFE6C
:101CD400E43DFDE43CFCE47BB87A0BF9F8122141C5
:101CE400AC10AD11AE12AF13900544120A59E47B47
:101CF400E87A03F9F8900544E0FCA3E0FDA3E0FED4
:101D0400A3E0FF122141AC10AD11AE12AF13EC4DA4
:101D14004E4F7002B2CDD0D0D082D083D0F0D0E07C
:011D2400328C
:052794003443101001A8
:0A23E700EBF0A3EAF0A3E9F0C290C6
:1023F100E4FEEF30E704D2918002C291EF25E0FFC5
:0F240100D2933092034401FFC2930EEEB408E36E
:0124100022A9
:1026A0007F027E00122553C294D290C293D2C722D9
:0C271B00C2901223F1E4FF1223F1D290CF
:01272700228F
:0E2534001225427D407F251225427D077F261D
:10254200C2901223F1AC07AF051223F1D290AF046F
:012552002266
:0322760090044F82
:102279001223E7AD07E4FC900452E0FFECC39F5042
:102289001CE4FF1223F190044FE0FBA3E0FAA3E062
:10229900F98C82758300EF1209EB0C80DAD290AFCA
:0122A900052F
:0122AA002211
:0322AB0090044E4E
:1022AE001223E7AD07E4FC900451E0FFECC39F500E
:1022BE001A90044EE0FBA3E475F001120A43A9F054
:0F22CE00FA120993FF1223F10C80DCD290AF05B6
:0122DD0022DE
:101ECB0090054CEBF0A3EAF0A3E9F0C2947BFF7A08
:101EDB002779949004517405F07F301222AB900552
:101EEB004CE0FBA3E0FAA3E0F99004517404F07FFB
:101EFB00A01222AB7D017F211225427F22122542A7
:101F0B007D0A7F241225347D0E7F20122542D29428
:071F1B007F057E0002255343
:1021C800C2947BFF7A2779949004517405F07F2A92
:1021D8001222AB7D037F211225427F221225420D58
:1021E8007F311225427F321225427F331225347DFA
:0F21F8000F7F20122542D2947F057E00022553CF
:102649007F0712271B8F203005077DFF7F27122563
:0226590042221B
:10220700E490044DF07F0712271B8F20300629E545
:1022170020540EC29470117B017A05793F900452C5
:102227007404F07F611222767DFF7F27122542C258
:08223700907FE21223F1D29026
:01223F00227C
:10202100C11141050900410503014505047F0E0069
:02203100A0000D
:1025C200E5A2543FF5A275985075D7F375D6FC7500
:0A25D2008E14438E01D2ACD2AF226A
:0300230002243B79
:10243B00C0E0C0F0C083C082C0D075D00830980512
:10244B00C298121E72309904C299C211D0D0D08298
:07245B00D083D0F0D0E03285
:092757002011FDEFD211F59922C9
:0B24110090044CEBF0A3EAF0A3E9F00C
:10241C00E4FE90044CE0FBA3E0FAA3E0F98E827595
:0E242C0083001209ACFF60061227570E80E4F1
:01243A00227F
:07276F007B017A05790A22C3
:06277600900509E0FF22BE
:06277C00900503E0FF22BE
:0F26E000EFB40105E4900509F0900503EFF02237
:101E7200E4FE12277CEF6401704EAE99900509E0F2
:101E8200FFC39405501774042FF582E43405F583DB
:101E9200E06E6009E4900509F07FFF802890050953
:101EA200E0FFC39405400C74052FF582E43405F578
:101EB20083EEF0900509E004F0E0D3940F4009E0CE
:081EC20024FBF0E4FF1226E00E
:011ECA0022F5
:10260D00E490044CF01221C81222077B017A05795F
:06261D003F7D040218A538
:1025DC0012233B7B017A05792590051AE090045073
:0925EC00F07D0312151F0223917A
:0327990002218595
:0627820012276F020F1187
:03279C000223BC59
:03279F0002105CC9
:1019CF00535550504F52542D49442D434152442D9D
:1019DF004F4E4C5921004E4F2E25642D4F55542DEF
:1019EF003B6E756D6265722D69733A25642E002DFD
:1019FF002D46554C4C2D2D002D2D63616C6C6D6556
:101A0F002D2D3133303737363631353934004E4F8F
:101A1F002E25642D494E2D3B6E756D6265722D69B5
:101A2F00733A25642E00636173686361726400000A
:101A3F000000000000000000000000000000000097
:041A4F000000000093
:0420330041051A0049
:1024AF00C2A612267E12274C122514122741E49041
:1024BF000522F0A3F0A3F090052BF0A3F0A3F07F7B
:0424CF00030227607D
:1018A500900450EDF090044DEBF0A3EAF0A3E9F0BD
:1018B500E4FE12099324D0900451F090053FE060B6
:1018C5007C7C01900450E0C36480F8EC64809850FF
:1018D5002390044DE0FBA3E0FAA3E0F9ECF5823395
:1018E50095E0F5831209AC24D0FFEE75F00AA42F1C
:1018F500FE0C80CF900451E0FFB40107900525EE62
:10190500F08030EFB40207900526EEF080259004B4
:1019150051E0FFB40307900527EEF08016EFB404FD
:1019250007900528EEF0800B7C0590053FE4F0A3B9
:0D193500DCFC227C0590053FE4F0A3DCFC07
:011942002282
:10233B007B017A04794C1216A27B017A04794C1238
:10234B001BC990044EE090051DF090044DE09005E4
:0A235B001EF090044CE090051FF006
:012365002255
:0B0F110090044CEBF0A3EAF0A3E9F021
:100F1C00E4A3F0122776900450EFF0E490045BF019
:100F2C00A3F0785D7C047D017BFF7A1A7935FE7F16
:100F3C001E12094B12277CEF6401700302105B1226
:100F4C00274112277CBFFF0E7F051227607BFF7A9B
:100F5C001979CF0210517F02122760E490044FF0F0
:100F6C00900450E0FF90044FE0FEC39F5041EEC34D
:100F7C009F502090044CE0FBA3E0FAA3E0F98E8292
:100F8C007583001209ACFF74512EF582E43404F51C
:100F9C0083EFF090044CE0FBA3E0FAA3E0F98E821F
:100FAC00758300E41209EB90044FE004F080B17BF0
:100FBC00017A047951121D2590045CEFF0F4602144
:100FCC0090051AE014F090045CE0FF12278890045E
:100FDC009F74FFF0A37419F0A374E5F090045C8087
:100FEC003E7B017A047951121F2290045BEFF0BF13
:100FFC00FF167BFF7A1979FEE4FD121FCB7BFF7A7B
:10100C001A79077DFF021FCB90051AE004F09004BB
:10101C009F74FFF0A3741AF0A3741DF090045BE0AE
:10102C00FF9004A2E4F0A3EFF090051AE0FF900407
:10103C00A4E4F0A3EFF07B017A04795D12057B7BCD
:0F104C00017A04795D7D031220B57F011226E041
:01105B002272
:0F26B000EF7F08A2E09286D285C285C313DFF4C4
:0126BF0022F8
:0F26C0007F08C313A28692E7D285C285DFF4FF9D
:0126CF0022E8
:10266D00C287C285D2871226B0AF051226B0C287A7
:01267D00223A
:10262300C287C285D287EF4401FF1226B01226C0AB
:02263300C2875C
:012635002282
:0F26EF003008047D108002E4FD7F8E12266D22DC
:1024F400AE05AC07C2081226EFAF04EE75F00A84ED
:10250400C454F0FDEE75F00A84E5F04DFD02266D2D
:1016A2007F80122623EF5470C4540F75F00AA4FEF3
:1016B200EF540F2E1209D97F82122623EF5470C4E1
:1016C200540F75F00AA4FEEF540F2E900001120978
:1016D200EB7F84122623EF5470C4540F75F00AA4D2
:1016E200FEEF540F2E9000021209EB7F8612262382
:1016F200EF5470C4540F75F00AA4FEEF540F2E90ED
:1017020000041209EB7F8A122623EF5470C4540F8F
:1017120075F00AA4FEEF540F2E9000031209EB7F1E
:1017220088122623EF5470C4540F75F00AA4FEEFFA
:10173200540F2E9000051209EB7F8C122623EF54D2
:1017420070C4540F75F00AA4FEEF540F2E900006D9
:031752000209EB9E
:101AD1009000061209AC75F00A849000071209EB18
:101AE1009000061209AC75F00A84900008E5F01226
:101AF10009EB900009742D1209EB9000051209AC55
:101B010075F00A8490000A1209EB9000051209ACE5
:101B110075F00A8490000BE5F01209EB90000C744B
:101B21002D1209EB9000041209AC75F00A849000A3
:101B31000D1209EB9000041209AC75F00A849000B3
:0D1B41000EE5F01209EB90000FE40209EB35
:101BC9009000021209AC75F00A849000101209EB1A
:101BD9009000021209AC75F00A84900011E5F01228
:101BE90009EB900012743A1209EB9000011209AC4A
:101BF90075F00A849000131209EB9000011209ACE8
:101C090075F00A84900014E5F01209EB9000157440
:101C19003A1209EB120993FF75F00A849000161223
:101C290009EBEF75F00A84900017E5F01209EB90C3
:061C3900000FE40209EBBC
:10267E007F80122623EF30E707E4FD7F801224F4DB
:01268E002229
:1000260000E010080810E000000F102020100F005C
:1000360000001010F8000000000020203F202000E3
:10004600007008080808F00000302824222130003B
:1000560000300808088870000018202121221C00A2
:100066000000804030F8000000060524243F2424C8
:1000760000F88888880808000019202020110E0042
:1000860000E0108888900000000F112020201F003B
:1000960000180808886818000000003E01000000EB
:1000A6000070880808887000001C222121221C008C
:1000B60000F008080810E0000001122222110F00CB
:1000C600000000C0C000000000000030300000004A
:1000D6000000008000000000000000E000000000BA
:1000E60000008040201008000001020408102000D3
:1000F600004040404040400000020202020202006E
:1001060000081020408000000020100804020100B2
:1001160000704808088870000000003037000000B2
:10012600C030C828E810E000071827282F28170035
:100136000000C038E0000000203C230202273820DF
:1001460008F8888888700000203F202020110E00C3
:10015600C0300808080838000718202020100800BA
:1001660008F808080810E000203F202020100F00A3
:1001760008F88888E8081000203F2020232018006F
:1001860008F88888E8081000203F200003000000D7
:10019600C03008080838000007182020221E020078
:1001A60008F808000008F808203F210101213F2037
:1001B600000808F8080800000020203F2020000062
:1001C60000000808F8080800C08080807F00000052
:1001D60008F888C028180800203F2001263820008B
:1001E60008F8080000000000203F202020203000F2
:1001F60008F8F800F8F80800203F013E013F20000B
:1002060008F830C00008F808203F200007183F0013
:10021600E01008080810E0000F10202020100F0042
:1002260008F808080808F000203F21010101000035
:10023600E01008080810E0000F10282830504F0082
:1002460008F8888888887000203F2000030C30203A
:1002560000708808080838000038202121221C0078
:10026600180808F8080818000000203F20000000C1
:1002760008F808000008F808001F202020201F00AA
:100286000878880000C83808000007380E0100000A
:1002960008F800F800F8080000033E013E030000DD
:1002A600081868808068180820302C03032C30203A
:1002B6000838C800C83808000000203F20000000A9
:1002C60010080808C8380800203826212020180001
:1002D600000000FE020202000000007F40404000D5
:1002E60000000000C038040000601807000000008D
:1002F60000020202FE000000004040407F000000B5
:1003060000000402020400000000000000000000DB
:1003160000000000000000000001010101010100D1
:1003260000020204000000000000000000000000BF
:10033600000080808000000000192424123F200065
:1003460010F0008080000000003F112020110E00F8
:100356000000008080800000000E11202020110087
:10036600000080808090F000001F202020103F2099
:100376000000808080800000001F242424241700B1
:10038600008080E0909020000020203F2020000088
:100396000000808080808000006B949494936000BD
:1003A60010F0008080800000203F210000203F20C8
:1003B60000809898000000000020203F20200000C8
:1003C600000000809898000000C08080807F0000B8
:1003D60010F0000080808000203F24062930200095
:1003E600001010F8000000000020203F2020000030
:1003F6008080808080808000203F20003F20003F5A
:100406008080008080800000203F210000203F2067
:100416000000808080800000001F202020201F0018
:10042600808000808000000080FF912020110E0057
:100436000000008080008000000E11202091FF80C7
:10044600808080008080800020203F2120000100E5
:10045600000080808080800000332424242419003A
:10046600008080E0808000000000001F2020100037
:100476008080000000808000001F202020103F2088
:10048600808080008080800000030C300C03000018
:100496008080008080008080010E300C07380601C5
:1004A60000808080008080000020310E2E312000E8
:1004B6008080800000808080008186781806010098
:1004C60000808080808080000021302C2221300036
:1004D6000000000000FC020200000000013E404057
:1004E600000438C000000000000000010638C0000B
:1004F6000202FC000000000040403E010000000037
:1005060000020102020402000000000000000000D8
:042037004104E4007C
:0E26FE00E4FFFE0FBF00010EBE01F8BFF4F5B1
:01270C0022AA
:1020FC0075F010EBA42CF582E435F0F583E5822421
:0E210C0026F582E5833400F583E493FF7D0120
:10211A00C2C4ED24FF92A0E4FEEF30E704D2A1800E
:10212A0002C2A1EF25E0FFC2A2D2A20EEEB408E9D4
:06213A00D2A0D2C4D2A124
:01214000227C
:10251400C2C31226FED2C3E4FD7F2112211A7FD04A
:1025240012211A7F2012211A7F0C12211A022489E7
:10265B00AC07ED4440FFE4FD12211AEC4480FF026D
:02266B00211A32
:10257100E4FDFF12265BE4FCE4FB7D01E4FF122194
:0B2581001A0BEBB454F40CECB406EDA4
:01258C00222C
:04230D00A907AA056D
:10231100E975F008A4FF12265BE4FC1220FC0CEC2A
:10232100B408F8E975F008A4FFEA04FD12265B7C05
:09233100081220FC0CECB410F8B9
:01233A002280
:04224000AB05AA0739
:10224400EA75F008A4FF12265BE4FC7D01E4FF12AA
:10225400211A0CECB408F4EA75F008A4FFEB04FDB1
:1022640012265B7C087D01E4FF12211A0CECB410E9
:01227400F475
:012275002246
:10248900E4FFEFFD3395E0FC74E52DF58274043C1F
:10249900F583E4F074C62DF58274043CF583E4F009
:0524A9000FEFB41EDD81
:0124AE00220B
:0B12930090049CEBF0A3EAF0A3E9F04C
:10129E00E49004A2F0A3F0A3F09004A2F09004A2B4
:1012AE00E0FFC3941E4003021381EF75F00A84E53C
:1012BE00F0701AE0D3940040149004A4E02402F0DD
:1012CE00E075F00584E5F0F0E49004A3F090049C42
:1012DE00E0FBA3E0FAA3E0F99004A2E0FFF582752B
:1012EE0083001209ACFE90049FE0FBA3E0FAA3E09A
:1012FE00F98F827583001209ACB5060280669004E0
:10130E00A2E0FF90049FE0FBA3E0FAA3E0F98F8236
:10131E00758300EE1209EB90049CE0FBA3E0FAA3A8
:10132E00E0F99004A2E0F5827583001209ACFFC3C8
:10133E00648094B04023EF648094FF501C9004A30B
:10134E00E0FFA3E0FD9004A2E0F582758300120990
:10135E00AC24D0FB12230D800B9004A3E0FFA3E07E
:10136E00FD1222409004A3E004F09004A2E004F0E9
:03137E000212ABAD
:011381002249
:0B274100122489E49004E4F0022571EA
:101FCB00C3ED6480948040059004E4EDF012099316
:101FDB00FF60259004E4E024E5F582E43404F58306
:101FEB00EFF0740129F9E43AFA9004E4E004F07597
:101FFB00F01E84E5F0F080D590049F7401F0A3747B
:0F200B0004F0A374C6F07B017A0479E502129306
:0800030070B0D0E0070B0D0EF8
:10206800E4A29533C43333335480FFE4A29633C4D7
:10207800333354C04FFFE4A29733C43354E04FFFC7
:10208800E4A2CC33C454F04FFFE4A2B43333333367
:1020980054F84FFFE4A2B33325E025E04FFFE4A254
:0C20A800B23325E04FFFE4A2C0334FFF2D
:0120B4002209
:1014510090044D74FFF0E4FDA3F0A3F0A3F07851E4
:101461007C040D7BFF7A007903FE7F0412094B781F
:10147100557C047D017BFF7A0079077E007F041291
:10148100094BD295D296D297D2CCC2B4C2B3C2B2D2
:10149100C2C0122068AD07EDB4F0037FFF22C295F0
:1014A100C296C297C2CCD2B4D2B3D2B2D2C01220A9
:1014B1006890044EEFF0640F6061E4A3F090044F74
:1014C100E0FFC39404501674512FF582E43404F5FF
:1014D10083E06D600890044FE004F080E0E4900444
:1014E10050F0900450E0FFC39404501B74552FF545
:1014F10082E43404F583E0FF90044EE06F600890CD
:101501000450E004F080DB900450E025E025E0FF8A
:0D15110090044FE02FFF90044DF0227FFF6B
:01151E0022AA
:10268F00000102FF030405FF060708FF09FFFFFF14
:01269F00FF3B
:08203B00410550FF41054FFF74
:10218500E490044CF012145190044CEFF0F46011FB
:10219500900550E0FF90044CE06F60057F02122728
:1021A5006090044CE0FFF46006900550EFF022903B
:1021B5000550E0FFF4600590054FEFF09005507471
:0221C500FFF029
:0121C70022F5
:0B27350090054FE0FF30080374FFF038
:012740002276
:10263600EF3395E0FE748F2FF58274263EF583E422
:0226460093FF00
:01264800226F
:0127A5002211
:0A274C007F649003E8E4F0A3DFFCD3
:012756002260
:1025F500E4FF74E82FF582E43403F583E0700122EB
:072605000FEFB464ED7FFF4D
:01260C0022AB
:0D27280074E82FF582E43403F583E4F02219
:0E270D0074E82FF582E43403F5837401F022A2
:0B1F220090047BEBF0A3EAF0A3E9F0D1
:101F2D00E4FE1225F5AD07EDB4FF037FFF22E4FEBD
:101F3D0090047BE0FBA3E0FAA3E0F98E82758300A9
:101F4D001209ACFF75F00AEDA42400F582E5F0341A
:101F5D0000F583E5822EF582E43583F583EFF00EEF
:091F6D00EEB40ACCAF0512270DF9
:011F76002248
:0B1D250090047BEBF0A3EAF0A3E9F0D0
:101D3000E4A3F0FFFE74E82FF582E43403F583E0BA
:101D4000604BE490047EF0FE90047BE0FBA3E0FA9D
:101D5000A3E0F98E827583001209ACFD75F00AEFDD
:101D6000A42400F582E5F03400F583E5822EF582A7
:101D7000E43583F583E06D600890047E74FFF080A5
:101D8000050EEEB40AC290047EE07001220FEFB49B
:041D900064A37FFFCA
:011D9400222C
:0F26D000121D25EFB4FF037FFF221227287F0082
:0126DF0022D8
:062788001227287F002249
:10175500696E707574686F75723A3D256400696EBF
:101765007075746D696E3A3D256400696E707574A7
:101775007365633A3D2564002D2D2D2D2D2D2D2DC1
:101785002D2D57616974696E67005345542D2D429F
:1017950045452D2D2D2D4F4E2D2D2D2D00534554C9
:1017A5002D2D4245452D2D2D2D4F46462D2D2D00F8
:1017B5004C56434C4F53453A25642D4C564F504596
:1017C5004E3A2564004C562D434C4F53452D2D253F
:1017D500642D544F2D25642D2D2D3A3D2564004C47
:1017E500562D4F50454E2D2D25642D544F2D2564D6
:0817F5002D2D2D3A3D25640065
:0420430041053E0015
:0B0D840090046AEBF0A3EAF0A3E9F092
:100D8F00C20812273590048BEFF0A374FFF0900583
:100D9F004AE0701390048BE0B4030C90054A740181
:100DAF00F090048B74FFF090054AE06401706512B7
:100DBF0027417F18121B4E90048CEFF090049F7404
:100DCF00FFF0A37417F0A37455F0EF3395E0A3F081
:100DDF00A3EFF07B017A04796D12057B7B017A0416
:100DEF00796DE4FD121FCB90048BE0B4032612271C
:100DFF008E90054A7402F090048CE0FF90046AE034
:100E0F00FBA3E0FAA3E0F9900002EF1209EB9004C4
:100E1F008B74FFF090054AE0640270651227417FE2
:100E2F003C121B4E90048CEFF090049F74FFF0A3C4
:100E3F007417F0A37463F0EF3395E0A3F0A3EFF012
:100E4F007B017A04796D12057B7B017A04796DE45D
:100E5F00FD121FCB90048BE0B4032612278E900552
:100E6F004A7403F090048CE0FF90046AE0FBA3E067
:100E7F00FAA3E0F9900003EF1209EB90048B74FFD3
:100E8F00F090054AE0640370761227417F3C121BF5
:100E9F004E90048CEFF090049F74FFF0A37417F042
:100EAF00A37470F0EF3395E0A3F0A3EFF07B017A1A
:100EBF0004796D12057B7B017A04796DE4FD121FB5
:100ECF00CB90048BE06403703612278EE490054AB2
:100EDF00F090048CE0FF90046AE0FBA3E0FAA3E03B
:100EEF00F9900004EF1209EB90048B74FFF01227B6
:100EFF00417BFF7A17797DE4FD121FCB7F00227FA4
:010F0F00FFE2
:010F100022BE
:102366007B017A057939120D84EF701E90053BE0EA
:10237600FD7F841224F490053CE0FD7F821224F454
:0B23860090053DE0FD7F801224F42252
:0327A200020D84A1
:051B4E0090048DEFF092
:101B5300C20812273590048EEFF0F46031E0FF12D3
:101B63002636EFF4602890048EE0FF1226369005A7
:101B73003EE075F00AA42FFFF090048DE0FEC364ED
:101B830080F8EF6480984006EE1490053EF09004D0
:101B93008EE0B40E2B90053EE0FF75F00A1209713A
:101BA300AEF0EEFD3395E0FCEF3395E0FEC3EF9D21
:101BB300FFEE9CFE7C007D0A120A0D90053EEFF0BD
:051BC30090053EE0FF6B
:011BC80022FA
:06278E00E490053EF0227C
:101A5300C208122735900488EFF0BF031290054A9D
:101A6300E0700C7404F012274190048874FFF09026
:101A7300054AE064047056900488E0FFB40F02B294
:101A830013EFB40B02B21390049F74FF30130AF0E8
:101A9300A37417F0A3748F8008F0A37417F0A374D2
:101AA300A2F07B017A04796A12057B7B017A0479BF
:101AB3006AE4FD121FCB900488E0B40310E49005A0
:0D1AC3004AF090048874FFF07F0312276042
:011AD00022F3
:100BCE0090048874FFF0E4A3F0A3740AF0C2081234
:100BDE00273590048BEFF0BF031490054AE0700E9A
:100BEE007405F012274190048B74FFF0804090043E
:100BFE009F74FFF0A37417F0A374B5F090052EE068
:100C0E00FE3395E09004A2F0A3CEF0900538E0FEFE
:100C1E003395E09004A4F0A3CEF07B017A04796AB8
:100C2E0012057B7B017A04796AE4FD121FCB9005D5
:100C3E004AE0640570741227417F0A121B4E90041D
:100C4E0088EFF090049F74FFF0A37417F0A374CA9A
:100C5E00F0900489E0FC3395E09004A2F0A3CCF070
:100C6E0090048AE0FC3395E09004A4F0A3CCF0EF5E
:100C7E003395E0A3F0A3EFF07B017A04796A1205B5
:100C8E007B7B017A04796AE4FD121FCB90048BE022
:100C9E00B4031712278E90054A7406F090048B74D5
:100CAE00FFF0900488E090052EF090054AE064066F
:100CBE006003020D8390052EE0C36480948A400F7A
:100CCE00E490054AF090048B74FFF0E4020D7F125D
:100CDE0027417F0A121B4E900488EFF090052EE0FC
:100CEE0004FE900489F090049F74FFF0A37417F033
:100CFE00A374E4F0EEFC3395E0A3F0A3CCF09004E3
:100D0E008AE0FC3395E09004A4F0A3CCF0EF339589
:100D1E00E0A3F0A3EFF07B017A04796A12057B7BE6
:100D2E00017A04796AE4FD121FCB900488E0FFD3A8
:100D3E006480948A400EEF75F00A120971AFF0903C
:100D4E000488EFF0900488E0C3648094805006A37A
:100D5E00E0900488F090048BE0B4031912278E12F1
:100D6E002741E490054AF090048B74FFF0900488BC
:050D7E00E0900538F0D3
:010D8300224D
:0E20470041052F00C1924105380541052E00CC
:101F7700D2C6D2C5D2A7E4900530F0A3F0A3F0A350
:101F8700F0D3EF64809480400DA3E06009C2C6904F
:101F970005307401F01FD3EF64809480400F9005E3
:101FA70035E06009C2C59005317401F01FD3EF64B5
:101FB700809480400E900536E06008C2A7900532F5
:041FC7007401F0228F
:1023910090044F7401F0A37405F0A37420F0A374AA
:1023A10001F0A37405F0A37429F07B017A05791B70
:0B23B100121D9590052FE0FF021F7722
:0B151F0090044CEBF0A3EAF0A3E9F00D
:10152A00E4FF900451F090052FF0EFC39D400302B1
:10153A0015BE74342FF582E43405F583E4F0743073
:10154A002FF582E43405F583E06002802290044C92
:10155A00E0FBA3E0FAA3E0F98F827583001209ACDD
:10156A00FE900538E0D36480F8EE648098401374E6
:10157A00342FF582E43405F5837401F090052FE0E9
:10158A0004F090044CE0FBA3E0FAA3E0F98F827523
:10159A0083001209ACFE90052EE0D36480F8EE6455
:1015AA008098500C74342FF582E43405F583E4F006
:1015BA000F02153490052FE0D3648094844003749D
:1015CA0004F090052FE0FFC3ED9FFF900451F090C7
:1015DA000450E0C39F90052FF0C3648094805002AA
:0215EA00E4F02B
:0115EC0022DC
:10119800900452E0F9A3E0FAA3E0900458C9F0A340
:1011A800EAF0A3E9F090044CE0FBA3E0FAA3E0F92D
:1011B800900455EBF0A3EAF0A3E9F0A3E0FBA3E069
:1011C800FAA3E0F99000021209ACFE900455E0FB86
:1011D800A3E0FAA3E0F99000021209ACFDD39E4007
:1011E800037F0122EDB5062A900458E0FBA3E0FA3C
:1011F800A3E0F99000031209ACFF900455E0FBA3AB
:10120800E0FAA3E0F99000031209ACD39F40037FF2
:101218000122900458E0FBA3E0FAA3E0F990000251
:101228001209ACFF900455E0FBA3E0FAA3E0F990A3
:1012380000021209AC6F7050900458E0FBA3E0FA6A
:10124800A3E0F99000031209ACFF900455E0FBA35A
:10125800E0FAA3E0F99000031209ACB5072A90045C
:1012680058E0FBA3E0FAA3E0F99000041209ACFFF0
:10127800900455E0FBA3E0FAA3E0F99000041209FA
:0B128800ACD39F40037F01227FFF22B8
:101D950090044CEBF0A3EAF0A3E9F0900452E0F9CB
:101DA500A3E0FAA3E0900458C9F0A3EAF0A3E9F090
:101DB50090044F1211B0D3EF64809480401E12112D
:101DC50098D3EF64809480401190044F12119BC307
:101DD500EF64809480501EC212228019121198C39C
:101DE500EF64809480501690044F12119BD3EF64DA
:101DF5008094804008D212E490052FF022C212226E
:10258D0020121790052FE0FD3395E0FCEFD39DEC65
:0B259D006480F87480985002EFF02278
:1017FD005B25643A25643A25645D002D4C69676864
:10180D0074696E672D20636F6E74726F6C2D2D2D44
:10181D002D53797374656D002D4C494753205641F6
:10182D004C2D00613A25642D623A25642D633A25CD
:10183D00642D643A2564002D54494D452D4E4F5766
:10184D002D004F50454E2D54494D452D002D4F46E1
:10185D00462D54494D452D004245452D454E41429D
:10186D004C452D2D2D2D4F4E2D2D2D2D0042454509
:10187D002D454E41424C452D2D2D2D4F46462D2D9E
:10188D002D002D2D2D4C414D50532D2D0025643AFD
:08189D0025632D2D00257300C9
:102055004105480041054A0041054900C193410534
:022065004B002E
:0B1C3F0090046AEBF0A3EAF0A3E9F0C8
:101C4A0090049F74FFF0A37417F0A374FDF090043E
:101C5A006AE0FBA3E0FAA3E0F99000021209ACFFE4
:101C6A009004A2E4F0A3EFF09000031209ACFF90F5
:101C7A0004A4E4F0A3EFF09000041209ACFF90046E
:101C8A00A6E4F0A3EFF07B017A04797012057B9049
:101C9A00046DE0FBA3E0FAA3E0F9E4FD121FCB7B9D
:0A1CAA00017A0479707DFF021FCB60
:101E050090046A74FFF090054AE07060C2081227DA
:101E150035BF0F10900548E004F0E0C39408401B5F
:101E2500E4F08017C208122735BF0B12900548E071
:101E350014F0E0D3940740037407F0022741C20869
:101E4500122735EF64036024122741C20812273593
:101E550012263690046AEFF0C364809480400DE04A
:0C1E6500FF648094885005900548EFF061
:011E7100224E
:10105C001224D3EF6003021197121E05900548E08D
:10106C0070097BFF7A187908FD8065900548E0646B
:10107C000170637BFF7A187925FD121FCB90049FBA
:10108C0074FFF0A37418F0A37430F0900525E0FF02
:10109C009004A2E4F0A3EFF0900526E0FF9004A4E6
:1010AC00E4F0A3EFF0900527E0FF9004A6E4F0A392
:1010BC00EFF0900528E0FF9004A8E4F0A3EFF07B9C
:1010CC00017A04794C12057B7B017A04794C7DFF03
:1010DC00121FCB021192900548E0B4022390054AEE
:1010EC00E0701790046D74FFF0A37418F0A37444AF
:1010FC00F07B017A05791B121C3F122366021192B8
:10110C00900548E0B403257B017A057929120D84FA
:10111C0090054AE0707090046D74FFF0A37418F0A1
:10112C00A3744FF07B017A057929802A900548E059
:10113C00B404287B017A057920120D8490054AE0CD
:10114C00704490046D74FFF0A37418F0A3745AF0FB
:10115C007B017A057920121C3F802B900548E0B466
:10116C00050E90054AE070031222DE121A53801607
:10117C00900548E0B406051215ED800A900548E08C
:0B118C00B40703120BCED20812273567
:011197002235
:08276000900549EFF00223BCD3
:1023BC00900549E0FFD364809480401C301310EFEB
:1023CC0075F002120971AFF0EF6004D2A68002C260
:0B23DC00A6900549E014F022C2A622E2
:1022DE0090049F74FF30130AF0A37418F0A3746572
:1022EE008008F0A37418F0A3747AF07B017A047955
:0F22FE006A12057B7B017A04796AE4FD021FCB2B
:1015ED00E4900488F090049F74FFF0A37418F0A3A6
:1015FD00748FF07B017A04796A12057B7B017A0482
:10160D00796AE4FD121FCBE4900488F0900488E021
:10161D00FFC364809483507CEF3395E0FE74302FCC
:10162D00F58274053EF583E090049F602574FFF00C
:10163D00A37418F0A3749AF0900488E03395E0FE3B
:10164D00EF2401FFE43E9004A2F0A3EFF0A3744F4A
:10165D00802474FFF0A37418F0A3749AF09004889A
:10166D00E0FF3395E0FEEF2401FFE43E9004A2F08D
:10167D00A3EFF0A37458F07B017A04796A12057B0D
:10168D007B017A04796A7DFF121FCB900488E004F8
:04169D00F002161928
:0116A1002226
:0B20B50090047BEBF0A3EAF0A3E9F03D
:1020C00090054BEDF090049F74FFF0A37418F0A3FB
:1020D00074A2F090047BE0F9A3E0FAA3E09004A2DC
:1020E000C9F0A3EAF0A3E9F07B017A04797E120536
:0C20F0007B7B017A04797EE4FD021FCBAB
:1024D30090054BE0FED3648094804006E014F07FC7
:1024E3000122EE700912274190054B74FFF07F0023
:0124F30022C6
:030000000219439F
:0C194300787FE4F6D8FD75812202198A35
:10087B00E709F608DFFA8046E709F208DFFA803E5F
:10088B0088828C83E709F0A3DFFA8032E309F6084C
:10089B00DFFA8078E309F208DFFA807088828C83B4
:1008AB00E309F0A3DFFA806489828A83E0A3F60868
:1008BB00DFFA805889828A83E0A3F208DFFA804C42
:1008CB0080D280FA80C680D4806980F28033801019
:1008DB0080A680EA809A80A880DA80E280CA803382
:1008EB0089828A83ECFAE493A3C8C582C8CCC583FA
:1008FB00CCF0A3C8C582C8CCC583CCDFE9DEE780CA
:10090B000D89828A83E493A3F608DFF9ECFAA9F048
:10091B00EDFB2289828A83ECFAE0A3C8C582C8CC9E
:10092B00C583CCF0A3C8C582C8CCC583CCDFEADEB7
:10093B00E880DB89828A83E493A3F208DFF980CC19
:10094B0088F0EF60010E4E60C388F0ED2402B40412
:10095B000050B9F582EB2402B4040050AF232345B9
:06096B0082239008CB730B
:10097100C2D530F707B2D563F0FF05F030E70CB20E
:10098100D5F4048463F0FF05F080018430D502F4CE
:0209910004223E
:10099300BB010689828A83E0225002E722BBFE0262
:0909A300E32289828A83E4932295
:1009AC00BB010CE58229F582E5833AF583E0225000
:1009BC0006E92582F8E622BBFE06E92582F8E2224A
:0D09CC00E58229F582E5833AF583E4932264
:1009D900BB010689828A83F0225002F722BBFE01FD
:0209E900F322F7
:1009EB00F8BB010DE58229F582E5833AF583E8F042
:1009FB00225006E92582C8F622BBFE05E92582C8EE
:020A0B00F222D5
:100A0D00C2D5EC30E709B2D5E4C39DFDE49CFCEE04
:100A1D0030E715B2D5E4C39FFFE49EFE120A65C30D
:100A2D00E49DFDE49CFC8003120A6530D507C3E408
:060A3D009FFFE49EFE2273
:100A4300A3F8E0C5F025F0F0E58215827002158366
:060A5300E0C838F0E822C3
:10214100C2D5E830E70FB2D5E4C39BFBE49AFAE4C9
:1021510099F9E498F8EC30E717B2D5122177120A11
:10216100F6E4C39BFBE49AFAE499F9E498F8800356
:10217100120AF630D50DE4C39FFFE49EFEE49DFDF7
:04218100E49CFC22BC
:0C0A5900ECF0A3EDF0A3EEF0A3EFF02210
:10051600E518249FF582E43404F583E0051822905B
:10052600049C300F0390049FE475F001120B8802BF
:1005360009932008E97F2ED2088018EF540F2490E3
:10054600D43440D4FF300C0BEF24BFB41A00500350
:100556002461FFE51960021519051CE51C700205EA
:100566001B300F0E90049CE475F001120B88EF020D
:1005760009D90224627403D20F8003E4C20FF5186E
:1005860090049C120B9FE4F519F51BF51CE5196008
:10059600077F2012055980F5751AFFC209C208C2E5
:1005A6000AC20BC20DC20EC210120525FF700D3015
:1005B6000F057F0012056AAF1CAE1B22B4255FC271
:1005C600D5C20C120525FF24D0B40A00501A75F0C6
:1005D6000A781930D50508B6FF0106C6A426F62006
:1005E600D5047002D20B80D924CFB41A00EF500480
:1005F600C2E5D20C02076BD20980C6D20880C0D2EF
:100606000A80BCD2D580BAD20D80B47F201205599B
:10061600200A077401B5190040F1120516FF1205EC
:1006260059020593D210D20E8095120516FB1205BB
:1006360016FA120516F94A4B7006793C7A087BFFC2
:10064600200A2EE519602A7E008E82758300120923
:10065600AC60060EEE651A70F0C2D5EBC0E0EAC0DB
:10066600E0E9C0E0EE1207B2D0E0F9D0E0FAD0E05F
:10067600FB120993FF60AAEBC0E0EAC0E0E9C0E024
:10068600120559D0E02401F9D0E03400FAD0E0FB9D
:10069600E51A0460DCD51AD980877BFF7A0779AE24
:1006A600D20A809C791080027908C20EC210800896
:1006B600D2D5790A8004790AC2D5E51A047002F502
:1006C6001AE4FAFDFEFF120516FC7B082009131238
:1006D6000516FD7B1030080A120516FE120516FFD8
:1006E6007B20EC3382D592D55013C3E43008069FA5
:1006F600FFE49EFEE42009039DFDE49CFCE4CBF8A8
:10070600C209EC700CCFCECDCCE824F8F870F3809B
:1007160017C3EF33FFEE33FEED33FDEC33FCEB3363
:10072600FB994002FB0FD8E9EB300905F8D0E0C48D
:1007360048B209C0E00AEC4D4E4F78207B0070C2EB
:10074600EAB51A0040BCC0E01207B4D0F0D0E020F1
:100756000904C4C0E0C4B209C0F0120542D0F0D505
:10076600F0EB020593120BA806305306AA580601B1
:100776004C05FD4206AE4F06B64406B6490616437C
:0807860006BC5506A04606A0C2
:10078E004506A047085C5006052D06092E062C2BA3
:10079E00060D23062A2008452A05C5480000062412
:1007AE003F3F3F00790AA2D5200B14300D09B91036
:1007BE00020404B9080104A2D5200E02500104203F
:1007CE000A68920AB519005034C0E07F20300B1928
:1007DE007F30A20A720E720D500F12080BC20AC29F
:1007EE000EC20DC2107F30800F300D03E9C0E01233
:1007FE000559300D03D0E0F9D0E0B519CC300D1706
:10080E007F30B9100C1205597F58300C077F788055
:10081E0003B90803120559300A057F2D0205597FC9
:10082E00202010F87F2B200EF322920A80CF286E04
:10083E00756C6C2900D2091205163009F8C20978B8
:10084E001930D50108F60205C52D50434958120539
:10085E00162403B405004001E49008579312054A8C
:0D086E00743A12054AD20B7519040206AA4D
:10194F000225A8E493A3F8E493A34003F68001F2E1
:10195F0008DFF48029E493A3F85407240CC8C33399
:10196F00C4540F4420C8834004F456800146F6DF68
:10197F00E4800B010204081020408090201AE47EBE
:10198F00019360BCA3FF543F30E509541FFEE4935D
:10199F00A360010ECF54C025E060A840B8E493A324
:1019AF00FAE493A3F8E493A3C8C582C8CAC583CA4F
:1019BF00F0A3C8C582C8CAC583CADFE9DEE780BE07
:012067000078
:100A6500BC000BBE0029EF8DF084FFADF022E4CC75
:100A7500F875F008EF2FFFEE33FEEC33FCEE9DEC3E
:100A8500984005FCEE9DFE0FD5F0E9E4CEFD22ED84
:100A9500F8F5F0EE8420D21CFEADF075F008EF2FCE
:100AA500FFED33FD4007985006D5F0F222C398FDBF
:050AB5000FD5F0EA225C
:100ABA0075F008758200EF2FFFEE33FECD33CDCCF3
:100ACA0033CCC58233C5829BED9AEC99E582984076
:100ADA000CF582EE9BFEED9AFDEC99FC0FD5F0D653
:100AEA00E4CEFBE4CDFAE4CCF9A88222B800C1B97D
:100AFA000059BA002DEC8BF084CFCECDFCE5F0CBBB
:100B0A00F97818EF2FFFEE33FEED33FDEC33FCEBF3
:100B1A0033FB10D703994004EB99FB0FD8E5E4F9AE
:100B2A00FA227818EF2FFFEE33FEED33FDEC33FC9B
:100B3A00C933C910D7059BE99A4007EC9BFCE99A8F
:100B4A00F90FD8E0E4C9FAE4CCFB2275F010EF2FD4
:100B5A00FFEE33FEED33FDCC33CCC833C810D707D4
:100B6A009BEC9AE899400AED9BFDEC9AFCE899F80F
:0E0B7A000FD5F0DAE4CDFBE4CCFAE4C8F922A2
:100B8800F8E0FBA3A3E0F925F0F0E58215827002F6
:070B98001583E0FA38F0229A
:090B9F00EBF0A3EAF0A3E9F02257
:100BA800D083D082F8E4937012740193700DA3A3DC
:100BB80093F8740193F5828883E4737402936860F0
:060BC800EFA3A3A380DFF0
:10246200EFB40A07740D12246D740A309811A899FA
:10247200B8130CC2983098FDA899C298B811F630DA
:0724820099FDC299F59922B2
:00000001FF
