:10253C00D3EF9400EE940040147D6E7C00ED1D7082
:0D254C00011CED4C70F7EF1F70E61E80E3E0
:01255900225F
:07275100696E69740D0A00B6
:072003004405440000000049
:102591001225AB12268912000E1224987BFF7A278E
:0A25A10079511223FA12139280FB05
:101392001225F6E47BD07A07F9F8900544E0FCA325
:1013A200E0FDA3E0FEA3E0FF12212AAC00AD01AEF6
:1013B20002AF03EC4D4E4F70031225C5E47B32FAA7
:1013C200F9F8900544E0FCA3E0FDA3E0FEA3E0FFF2
:1013D20012212AAC00AD01AE02AF03EC4D4E4F70AC
:1013E2000312277CE47B64FAF9F8900544E0FCA33D
:1013F200E0FDA3E0FEA3E0FF12212AAC00AD01AEA6
:1014020002AF03EC4D4E4F700312276BE47B2C7A34
:1014120001F9F8900544E0FCA3E0FDA3E0FEA3E09F
:10142200FF12212AAC00AD01AE02AF03EC4D4E4FCC
:10143200700312277FE47BF47A01F9F8900544E007
:10144200FCA3E0FDA3E0FEA3E0FF12212AAC00AD65
:0F14520001AE02AF03EC4D4E4F70031227822202
:10000E00438E805389F0758AD0758C8AC28DD28CBE
:05001E00D2A9D2AF22BF
:03000B00021C3D97
:101C3D00C0E0C0F0C083C082C0D075D01090054404
:101C4D00E0FCA3E0FDA3E0FEA3E02401FFE43EFEE3
:101C5D00E43DFDE43CFCE47BB87A0BF9F812212A53
:101C6D00AC10AD11AE12AF13900544120A59E47BBE
:101C7D00E87A03F9F8900544E0FCA3E0FDA3E0FE4B
:101C8D00A3E0FF12212AAC10AD11AE12AF13EC4D33
:101C9D004E4F7002B2CDD0D0D082D083D0F0D0E0F4
:011CAD003204
:052777003443101001C5
:0A23D000EBF0A3EAF0A3E9F0C290DD
:1023DA00E4FEEF30E704D2918002C291EF25E0FFDC
:0F23EA00D2933092034401FFC2930EEEB408E386
:0123F90022C1
:102689007F027E0012253CC294D290C293D2C72207
:0C270400C2901223DAE4FF1223DAD29014
:0127100022A6
:0E251D0012252B7D407F2512252B7D077F2662
:10252B00C2901223DAAC07AF051223DAD290AF04B4
:01253B00227D
:03225F0090044F99
:102262001223D0AD07E4FC900452E0FFECC39F5070
:102272001CE4FF1223DA90044FE0FBA3E0FAA3E090
:10228200F98C82758300EF1209EB0C80DAD290AFE1
:012292000546
:012293002228
:0322940090044E65
:102297001223D0AD07E4FC900451E0FFECC39F503C
:1022A7001A90044EE0FBA3E475F001120A43A9F06B
:0F22B700FA120993FF1223DA0C80DCD290AF05E4
:0122C60022F5
:101EB40090054CEBF0A3EAF0A3E9F0C2947BFF7A1F
:101EC4002779779004517405F07F3012229490059D
:101ED4004CE0FBA3E0FAA3E0F99004517404F07F12
:101EE400A01222947D017F2112252B7F2212252B03
:101EF4007D0A7F2412251D7D0E7F2012252BD2946E
:071F04007F057E0002253C71
:1021B100C2947BFF7A2779779004517405F07F2AC6
:1021C1001222947D037F2112252B7F2212252B0DB4
:1021D1007F3112252B7F3212252B7F3312251D7D56
:0F21E1000F7F2012252BD2947F057E0002253C14
:102632007F071227048F203005077DFF7F27122591
:022642002B2249
:1021F000E490044DF07F071227048F20300629E574
:1022000020540EC29470117B017A05793F900452DC
:102210007404F07F6112225F7DFF7F2712252BC29D
:08222000907FE21223DAD29054
:012228002293
:10200A00C11141050900410503014505047F0E0080
:02201A00A00024
:1025AB00E5A2543FF5A275985075D7F375D6FC7517
:0A25BB008E14438E01D2ACD2AF2281
:0300230002242490
:10242400C0E0C0F0C083C082C0D075D00830980529
:10243400C298121E5B309904C299C211D0D0D082C6
:07244400D083D0F0D0E0329C
:092740002011FDEFD211F59922E0
:0B23FA0090044CEBF0A3EAF0A3E9F024
:10240500E4FE90044CE0FBA3E0FAA3E0F98E8275AC
:0E24150083001209ACFF60061227400E80E41F
:012423002296
:072758007B017A05790A22DA
:06275F00900509E0FF22D5
:06276500900503E0FF22D5
:0F26C900EFB40105E4900509F0900503EFF0224E
:101E5B00E4FE122765EF6401704EAE99900509E020
:101E6B00FFC39405501774042FF582E43405F583F2
:101E7B00E06E6009E4900509F07FFF80289005096A
:101E8B00E0FFC39405400C74052FF582E43405F58F
:101E9B0083EEF0900509E004F0E0D3940F4009E0E5
:081EAB0024FBF0E4FF1226C93C
:011EB300220C
:1025F600E490044CF01221B11221F07B017A0579A6
:062606003F7D040218A94B
:1025C5001223247B017A05792590051AE0900450A1
:0925D500F07D0312152F02237A98
:03277C0002216EC9
:06276B00122758020F21A5
:03277F000223A58D
:0327820002106CD6
:1019D300535550504F52542D49442D434152442D99
:1019E3004F4E4C5921004E4F2E25642D4F55542DEB
:1019F3003B6E756D6265722D69733A25642E002DF9
:101A03002D46554C4C2D2D002D2D63616C6C6D6551
:101A13002D2D3133303737363631353934004E4F8B
:101A23002E25642D494E2D3B6E756D6265722D69B1
:101A3300733A25642E006361736863617264000006
:101A43000000000000000000000000000000000093
:041A5300000000008F
:04201C0041051A0060
:10249800C2A61226671227351224FD12272AE490B5
:1024A8000522F0A3F0A3F090052BF0A3F0A3F07F92
:0424B80003022749AB
:1018A900900450EDF090044DEBF0A3EAF0A3E9F0B9
:1018B900E4FE12099324D0900451F090053FE060B2
:1018C9007C7C01900450E0C36480F8EC64809850FB
:1018D9002390044DE0FBA3E0FAA3E0F9ECF5823391
:1018E90095E0F5831209AC24D0FFEE75F00AA42F18
:1018F900FE0C80CF900451E0FFB40107900525EE5E
:10190900F08030EFB40207900526EEF080259004B0
:1019190051E0FFB40307900527EEF08016EFB404F9
:1019290007900528EEF0800B7C0590053FE4F0A3B5
:0D193900DCFC227C0590053FE4F0A3DCFC03
:01194600227E
:102324007B017A04794C1216A67B017A04794C124B
:102334001B5290044EE090051DF090044DE0900572
:0A2344001EF090044CE090051FF01D
:01234E00226C
:0B0F210090044CEBF0A3EAF0A3E9F011
:100F2C00E4A3F012275F900450EFF0E490045BF020
:100F3C00A3F0785D7C047D017BFF7A1A7939FE7F02
:100F4C001E12094B122765EF6401700302106B121D
:100F5C00272A122765BFFF0E7F051227497BFF7AD0
:100F6C001979D30210617F02122749E490044FF0E3
:100F7C00900450E0FF90044FE0FEC39F5041EEC33D
:100F8C009F502090044CE0FBA3E0FAA3E0F98E8282
:100F9C007583001209ACFF74512EF582E43404F50C
:100FAC0083EFF090044CE0FBA3E0FAA3E0F98E820F
:100FBC00758300E41209EB90044FE004F080B17BE0
:100FCC00017A047951121CAE90045CEFF0F46021AC
:100FDC0090051AE014F090045CE0FF122771900465
:100FEC009F74FFF0A37419F0A374E9F090045C8073
:100FFC003E7B017A047951121F0B90045BEFF0BF1A
:10100C00FF167BFF7A1A7902E4FD121FB47BFF7A7C
:10101C001A790B7DFF021FB490051AE004F09004BE
:10102C009F74FFF0A3741AF0A37421F090045BE09A
:10103C00FF9004A2E4F0A3EFF090051AE0FF9004F7
:10104C00A4E4F0A3EFF07B017A04795D12057B7BBD
:0F105C00017A04795D7D0312209E7F011226C95F
:01106B002262
:0F269900EF7F08A2E09286D285C285C313DFF4DB
:0126A800220F
:0F26A9007F08C313A28692E7D285C285DFF4FFB4
:0126B80022FF
:10265600C287C285D287122699AF05122699C287EC
:012666002251
:10260C00C287C285D287EF4401FF1226991226A9F0
:02261C00C28773
:01261E002299
:0F26D8003008047D108002E4FD7F8E122656220A
:1024DD00AE05AC07C2081226D8AF04EE75F00A841B
:1024ED00C454F0FDEE75F00A84E5F04DFD0226565C
:1016A6007F8012260CEF5470C4540F75F00AA4FE06
:1016B600EF540F2E1209D97F8212260CEF5470C4F4
:1016C600540F75F00AA4FEEF540F2E900001120974
:1016D600EB7F8412260CEF5470C4540F75F00AA4E5
:1016E600FEEF540F2E9000021209EB7F8612260C95
:1016F600EF5470C4540F75F00AA4FEEF540F2E90E9
:1017060000041209EB7F8A12260CEF5470C4540FA2
:1017160075F00AA4FEEF540F2E9000031209EB7F1A
:101726008812260CEF5470C4540F75F00AA4FEEF0D
:10173600540F2E9000051209EB7F8C12260CEF54E5
:1017460070C4540F75F00AA4FEEF540F2E900006D5
:031756000209EB9A
:101AD5009000061209AC75F00A849000071209EB14
:101AE5009000061209AC75F00A84900008E5F01222
:101AF50009EB900009742D1209EB9000051209AC51
:101B050075F00A8490000A1209EB9000051209ACE1
:101B150075F00A8490000BE5F01209EB90000C7447
:101B25002D1209EB9000041209AC75F00A8490009F
:101B35000D1209EB9000041209AC75F00A849000AF
:0D1B45000EE5F01209EB90000FE40209EB31
:101B52009000021209AC75F00A849000101209EB91
:101B62009000021209AC75F00A84900011E5F0129F
:101B720009EB900012743A1209EB9000011209ACC1
:101B820075F00A849000131209EB9000011209AC5F
:101B920075F00A84900014E5F01209EB90001574B8
:101BA2003A1209EB120993FF75F00A84900016129B
:101BB20009EBEF75F00A84900017E5F01209EB903B
:061BC200000FE40209EB34
:102667007F8012260CEF30E707E4FD7F801224DD20
:012677002240
:1000260000E010080810E000000F102020100F005C
:1000360000001010F8000000000020203F202000E3
:10004600007008080808F00000302824222130003B
:1000560000300808088870000018202121221C00A2
:100066000000804030F8000000060524243F2424C8
:1000760000F88888880808000019202020110E0042
:1000860000E0108888900000000F112020201F003B
:1000960000180808886818000000003E01000000EB
:1000A6000070880808887000001C222121221C008C
:1000B60000F008080810E0000001122222110F00CB
:1000C600000000C0C000000000000030300000004A
:1000D6000000008000000000000000E000000000BA
:1000E60000008040201008000001020408102000D3
:1000F600004040404040400000020202020202006E
:1001060000081020408000000020100804020100B2
:1001160000704808088870000000003037000000B2
:10012600C030C828E810E000071827282F28170035
:100136000000C038E0000000203C230202273820DF
:1001460008F8888888700000203F202020110E00C3
:10015600C0300808080838000718202020100800BA
:1001660008F808080810E000203F202020100F00A3
:1001760008F88888E8081000203F2020232018006F
:1001860008F88888E8081000203F200003000000D7
:10019600C03008080838000007182020221E020078
:1001A60008F808000008F808203F210101213F2037
:1001B600000808F8080800000020203F2020000062
:1001C60000000808F8080800C08080807F00000052
:1001D60008F888C028180800203F2001263820008B
:1001E60008F8080000000000203F202020203000F2
:1001F60008F8F800F8F80800203F013E013F20000B
:1002060008F830C00008F808203F200007183F0013
:10021600E01008080810E0000F10202020100F0042
:1002260008F808080808F000203F21010101000035
:10023600E01008080810E0000F10282830504F0082
:1002460008F8888888887000203F2000030C30203A
:1002560000708808080838000038202121221C0078
:10026600180808F8080818000000203F20000000C1
:1002760008F808000008F808001F202020201F00AA
:100286000878880000C83808000007380E0100000A
:1002960008F800F800F8080000033E013E030000DD
:1002A600081868808068180820302C03032C30203A
:1002B6000838C800C83808000000203F20000000A9
:1002C60010080808C8380800203826212020180001
:1002D600000000FE020202000000007F40404000D5
:1002E60000000000C038040000601807000000008D
:1002F60000020202FE000000004040407F000000B5
:1003060000000402020400000000000000000000DB
:1003160000000000000000000001010101010100D1
:1003260000020204000000000000000000000000BF
:10033600000080808000000000192424123F200065
:1003460010F0008080000000003F112020110E00F8
:100356000000008080800000000E11202020110087
:10036600000080808090F000001F202020103F2099
:100376000000808080800000001F242424241700B1
:10038600008080E0909020000020203F2020000088
:100396000000808080808000006B949494936000BD
:1003A60010F0008080800000203F210000203F20C8
:1003B60000809898000000000020203F20200000C8
:1003C600000000809898000000C08080807F0000B8
:1003D60010F0000080808000203F24062930200095
:1003E600001010F8000000000020203F2020000030
:1003F6008080808080808000203F20003F20003F5A
:100406008080008080800000203F210000203F2067
:100416000000808080800000001F202020201F0018
:10042600808000808000000080FF912020110E0057
:100436000000008080008000000E11202091FF80C7
:10044600808080008080800020203F2120000100E5
:10045600000080808080800000332424242419003A
:10046600008080E0808000000000001F2020100037
:100476008080000000808000001F202020103F2088
:10048600808080008080800000030C300C03000018
:100496008080008080008080010E300C07380601C5
:1004A60000808080008080000020310E2E312000E8
:1004B6008080800000808080008186781806010098
:1004C60000808080808080000021302C2221300036
:1004D6000000000000FC020200000000013E404057
:1004E600000438C000000000000000010638C0000B
:1004F6000202FC000000000040403E010000000037
:1005060000020102020402000000000000000000D8
:042020004104E40093
:0E26E700E4FFFE0FBF00010EBE01F8BFF4F5C8
:0126F50022C2
:1020E50075F010EBA42CF582E435F0F583E5822438
:0E20F50026F582E5833400F583E493FF7D0138
:10210300C2C4ED24FF92A0E4FEEF30E704D2A18025
:1021130002C2A1EF25E0FFC2A2D2A20EEEB408E9EB
:06212300D2A0D2C4D2A13B
:012129002293
:1024FD00C2C31226E7D2C3E4FD7F211221037FD090
:10250D001221037F201221037F0C1221030224725A
:10264400AC07ED4440FFE4FD122103EC4480FF029B
:02265400210360
:10255A00E4FDFF122644E4FCE4FB7D01E4FF1221C2
:0B256A00030BEBB454F40CECB406EDD2
:012575002243
:0422F600A907AA0585
:1022FA00E975F008A4FF122644E4FC1220E50CEC70
:10230A00B408F8E975F008A4FFEA04FD1226447C33
:09231A00081220E50CECB410F8E7
:012323002297
:04222900AB05AA0750
:10222D00EA75F008A4FF122644E4FC7D01E4FF12D8
:10223D0021030CECB408F4EA75F008A4FFEB04FDDF
:10224D001226447C087D01E4FF1221030CECB4102E
:01225D00F48C
:01225E00225D
:10247200E4FFEFFD3395E0FC74E52DF58274043C36
:10248200F583E4F074C62DF58274043CF583E4F020
:052492000FEFB41EDD98
:012497002222
:0B12A30090049CEBF0A3EAF0A3E9F03C
:1012AE00E49004A2F0A3F0A3F09004A2F09004A2A4
:1012BE00E0FFC3941E4003021391EF75F00A84E51C
:1012CE00F0701AE0D3940040149004A4E02402F0CD
:1012DE00E075F00584E5F0F0E49004A3F090049C32
:1012EE00E0FBA3E0FAA3E0F99004A2E0FFF582751B
:1012FE0083001209ACFE90049FE0FBA3E0FAA3E08A
:10130E00F98F827583001209ACB5060280669004CF
:10131E00A2E0FF90049FE0FBA3E0FAA3E0F98F8226
:10132E00758300EE1209EB90049CE0FBA3E0FAA398
:10133E00E0F99004A2E0F5827583001209ACFFC3B8
:10134E00648094B04023EF648094FF501C9004A3FB
:10135E00E0FFA3E0FD9004A2E0F582758300120980
:10136E00AC24D0FB1222F6800B9004A3E0FFA3E086
:10137E00FD1222299004A3E004F09004A2E004F0F0
:03138E000212BB8D
:011391002239
:0B272A00122472E49004E4F002255A2F
:101FB400C3ED6480948040059004E4EDF01209932D
:101FC400FF60259004E4E024E5F582E43404F5831D
:101FD400EFF0740129F9E43AFA9004E4E004F075AE
:101FE400F01E84E5F0F080D590049F7401F0A37492
:0F1FF40004F0A374C6F07B017A0479E50212A30E
:0800030070B0D0E0070B0D0EF8
:10205100E4A29533C43333335480FFE4A29633C4EE
:10206100333354C04FFFE4A29733C43354E04FFFDE
:10207100E4A2CC33C454F04FFFE4A2B4333333337E
:1020810054F84FFFE4A2B33325E025E04FFFE4A26B
:0C209100B23325E04FFFE4A2C0334FFF44
:01209D002220
:1014610090044D74FFF0E4FDA3F0A3F0A3F07851D4
:101471007C040D7BFF7A007903FE7F0412094B780F
:10148100557C047D017BFF7A0079077E007F041281
:10149100094BD295D296D297D2CCC2B4C2B3C2B2C2
:1014A100C2C0122051AD07EDB4F0037FFF22C295F7
:1014B100C296C297C2CCD2B4D2B3D2B2D2C0122099
:1014C1005190044EEFF0640F6061E4A3F090044F7B
:1014D100E0FFC39404501674512FF582E43404F5EF
:1014E10083E06D600890044FE004F080E0E4900434
:1014F10050F0900450E0FFC39404501B74552FF535
:1015010082E43404F583E0FF90044EE06F600890BC
:101511000450E004F080DB900450E025E025E0FF7A
:0D15210090044FE02FFF90044DF0227FFF5B
:01152E00229A
:10267800000102FF030405FF060708FF09FFFFFF2B
:01268800FF52
:08202400410550FF41054FFF8B
:10216E00E490044CF012146190044CEFF0F4601102
:10217E00900550E0FF90044CE06F60057F0212273F
:10218E004990044CE0FFF46006900550EFF0229069
:10219E000550E0FFF4600590054FEFF09005507488
:0221AE00FFF040
:0121B000220C
:0B271E0090054FE0FF30080374FFF04F
:01272900228D
:10261F00EF3395E0FE74782FF58274263EF583E450
:02262F0093FF17
:012631002286
:01278800222E
:0A2735007F649003E8E4F0A3DFFCEA
:01273F002277
:1025DE00E4FF74E82FF582E43403F583E070012202
:0725EE000FEFB464ED7FFF65
:0125F50022C3
:0D27110074E82FF582E43403F583E4F02230
:0E26F60074E82FF582E43403F5837401F022BA
:0B1F0B0090047BEBF0A3EAF0A3E9F0E8
:101F1600E4FE1225DEAD07EDB4FF037FFF22E4FEEB
:101F260090047BE0FBA3E0FAA3E0F98E82758300C0
:101F36001209ACFF75F00AEDA42400F582E5F03431
:101F460000F583E5822EF582E43583F583EFF00E06
:091F5600EEB40ACCAF051226F628
:011F5F00225F
:0B1CAE0090047BEBF0A3EAF0A3E9F048
:101CB900E4A3F0FFFE74E82FF582E43403F583E032
:101CC900604BE490047EF0FE90047BE0FBA3E0FA15
:101CD900A3E0F98E827583001209ACFD75F00AEF55
:101CE900A42400F582E5F03400F583E5822EF5821F
:101CF900E43583F583E06D600890047E74FFF0801D
:101D0900050EEEB40AC290047EE07001220FEFB412
:041D190064A37FFF41
:011D1D0022A3
:0F26B900121CAEEFB4FF037FFF221227117F0028
:0126C80022EF
:062771001227117F002277
:10175900696E707574686F75723A3D256400696EBB
:101769007075746D696E3A3D256400696E707574A3
:101779007365633A3D2564002D2D2D2D2D2D2D2DBD
:101789002D2D57616974696E67005345542D2D429B
:1017990045452D2D2D2D4F4E2D2D2D2D00534554C5
:1017A9002D2D4245452D2D2D2D4F46462D2D2D00F4
:1017B9004C56434C4F53453A25642D4C564F504592
:1017C9004E3A2564004C562D434C4F53452D2D253B
:1017D900642D544F2D25642D2D2D3A3D2564004C43
:1017E900562D4F50454E2D2D25642D544F2D2564D2
:0817F9002D2D2D3A3D25640061
:04202C0041053E002C
:0B0DA40090046AEBF0A3EAF0A3E9F072
:100DAF00C20812271E90048BEFF0A374FFF090057A
:100DBF004AE0701390048BE0B4030C90054A740161
:100DCF00F090048B74FFF090054AE064017060129C
:100DDF00272A121DFB90048CEFF090049F74FFF0F4
:100DEF00A37417F0A37459F0EF3395E0A3F0A3EFBA
:100DFF00F07B017A04796D12057B7B017A04796DA2
:100E0F00E4FD121FB490048BE0B4032390054A74E1
:100E1F0002F090048CE0FF90046AE0FBA3E0FAA3D9
:100E2F00E0F9900002EF1209EB90048B74FFF09041
:100E3F00054AE06402706012272A121DFB90048C91
:100E4F00EFF090049F74FFF0A37417F0A37467F092
:100E5F00EF3395E0A3F0A3EFF07B017A04796D12E5
:100E6F00057B7B017A04796DE4FD121FB490048B2E
:100E7F00E0B4032390054A7403F090048CE0FF90D4
:100E8F00046AE0FBA3E0FAA3E0F9900003EF120974
:100E9F00EB90048B74FFF090054AE06403707012BE
:100EAF00272A121DFB90048CEFF090049F74FFF023
:100EBF00A37417F0A37474F0EF3395E0A3F0A3EFCE
:100ECF00F07B017A04796D12057B7B017A04796DD1
:100EDF00E4FD121FB490048BE06403703290054A56
:100EEF00F090048CE0FF90046AE0FBA3E0FAA3E02B
:100EFF00F9900004EF1209EB90048B74FFF01227A6
:100F0F002A7BFF7A177981E4FD121FB47F00227FBD
:010F1F00FFD2
:010F200022AE
:10234F007B017A057939120DA4EF701E90053BE0E1
:10235F00FD7F841224DD90053CE0FD7F821224DD99
:0B236F0090053DE0FD7F801224DD2280
:03278500020DA49E
:101DFB00C20812271E90048DEFF0F4601BE0FF1257
:101E0B00261FEFF4601290048DE0FF12261F900541
:101E1B003EE075F00AA42FF090048DE0B40E2B90E9
:101E2B00053EE0FF75F00A120971AEF0EEFD339539
:101E3B00E0FCEF3395E0FEC3EF9DFFEE9CFE7C00D4
:0F1E4B007D0A120A0D90053EEFF090053EE0FF74
:011E5A002265
:101A5700C20812271E900488EFF0BF031290054AB0
:101A6700E0700C7404F012272A90048874FFF09039
:101A7700054AE064047056900488E0FFB40F02B290
:101A870013EFB40B02B21390049F74FF30130AF0E4
:101A9700A37417F0A374938008F0A37417F0A374CA
:101AA700A6F07B017A04796A12057B7B017A0479B7
:101AB7006AE4FD121FB4900488E0B40310E49005B3
:0D1AC7004AF090048874FFF07F0312274955
:011AD40022EF
:100BCE0090048874FFF0E4A3F0A3740AF0C2081234
:100BDE00271E90048BEFF0BF031490054AE0700EB1
:100BEE007405F012272A90048B74FFF08040900455
:100BFE009F74FFF0A37417F0A374B9F090052EE064
:100C0E00FE3395E09004A2F0A3CEF0900538E0FEFE
:100C1E003395E09004A4F0A3CEF07B017A04796AB8
:100C2E0012057B7B017A04796AE4FD121FB49005EC
:100C3E004AE064056003020CDD12272A121DFB90A8
:100C4E000488EFF090049F74FFF0A37417F0A37460
:100C5E00CEF0900489E0FC3395E09004A2F0A3CC92
:100C6E00F090048AE0FC3395E09004A4F0A3CCF05D
:100C7E00EF3395E0A3F0A3EFF07B017A04796A12CB
:100C8E00057B7B017A04796AE4FD121FB490048817
:100C9E00E0FFD36480948A400EEF75F00A1209715A
:100CAE00AFF0900488EFF0900488E0C364809480E5
:100CBE005002E4F090048BE0B4031490054A7406DD
:100CCE00F090048B74FFF0900488E090052EF09065
:100CDE00054AE064066003020DA390052EE0C3648E
:100CEE0080948A400FE490054AF090048B74FFF0D4
:100CFE00E4020D9F12272A121DFB900488EFF0903C
:100D0E00052EE004FE900489F090049F74FFF0A37A
:100D1E007417F0A374E8F0EEFC3395E0A3F0A3CCC7
:100D2E00F090048AE0FC3395E09004A4F0A3CCF09C
:100D3E00EF3395E0A3F0A3EFF07B017A04796A120A
:100D4E00057B7B017A04796AE4FD121FB490048856
:100D5E00E0FFD36480948A400EEF75F00A12097199
:100D6E00AFF0900488EFF0900488E0C36480948024
:100D7E005006A3E0900488F090048BE0B4031612A2
:100D8E00272AE490054AF090048B74FFF0900488B3
:050D9E00E0900538F0B3
:010DA300222D
:0E20300041052F00C1924105380541052E00E3
:101F6000D2C6D2C5D2A7E4900530F0A3F0A3F0A367
:101F7000F0D3EF64809480400DA3E06009C2C69066
:101F800005307401F01FD3EF64809480400F9005FA
:101F900035E06009C2C59005317401F01FD3EF64CC
:101FA000809480400E900536E06008C2A79005320C
:041FB0007401F022A6
:10237A0090044F7401F0A37405F0A37420F0A374C1
:10238A0001F0A37405F0A37429F07B017A05791B87
:0B239A00121D1E90052FE0FF021F60C7
:0B152F0090044CEBF0A3EAF0A3E9F0FD
:10153A00E4FF900451F090052FF0EFC39D400302A1
:10154A0015D074302FF582E43405F583E06002800B
:10155A002F90044CE0FBA3E0FAA3E0F98F82758395
:10156A00001209ACFE900538E0D36480F8EE64807E
:10157A0098402174342FF582E43405F5837401F020
:10158A0090052FE004FEF075F004120971AEF09098
:10159A00052FEEF090044CE0FBA3E0FAA3E0F98FEC
:1015AA00827583001209ACFE90052EE0D36480F8A0
:1015BA00EE648098500C74342FF582E43405F58378
:1015CA00E4F00F02154490052FE0FFC3ED9FFF9052
:1015DA000451F0900450E0C39F90052FF0C364803B
:0615EA0094805002E4F0C1
:0115F00022D8
:1011A800900452E0F9A3E0FAA3E0900458C9F0A330
:1011B800EAF0A3E9F090044CE0FBA3E0FAA3E0F91D
:1011C800900455EBF0A3EAF0A3E9F0A3E0FBA3E059
:1011D800FAA3E0F99000021209ACFE900455E0FB76
:1011E800A3E0FAA3E0F99000021209ACFDD39E40F7
:1011F800037F0122EDB5062A900458E0FBA3E0FA2C
:10120800A3E0F99000031209ACFF900455E0FBA39A
:10121800E0FAA3E0F99000031209ACD39F40037FE2
:101228000122900458E0FBA3E0FAA3E0F990000241
:101238001209ACFF900455E0FBA3E0FAA3E0F99093
:1012480000021209AC6F7050900458E0FBA3E0FA5A
:10125800A3E0F99000031209ACFF900455E0FBA34A
:10126800E0FAA3E0F99000031209ACB5072A90044C
:1012780058E0FBA3E0FAA3E0F99000041209ACFFE0
:10128800900455E0FBA3E0FAA3E0F99000041209EA
:0B129800ACD39F40037F01227FFF22A8
:101D1E0090044CEBF0A3EAF0A3E9F0900452E0F942
:101D2E00A3E0FAA3E0900458C9F0A3EAF0A3E9F007
:101D3E0090044F1211C0D3EF64809480401E121194
:101D4E00A8D3EF64809480401190044F1211ABC35E
:101D5E00EF64809480501EC2122280191211A8C303
:101D6E00EF64809480501690044F1211ABD3EF6441
:101D7E008094804008D212E490052FF022C21222E5
:1025760020121790052FE0FD3395E0FCEFD39DEC7C
:0B2586006480F87480985002EFF0228F
:101801005B25643A25643A25645D002D4C6967685F
:1018110074696E672D20636F6E74726F6C2D2D2D40
:101821002D53797374656D002D4C494753205641F2
:101831004C2D00613A25642D623A25642D633A25C9
:10184100642D643A2564002D54494D452D4E4F5762
:101851002D004F50454E2D54494D452D002D4F46DD
:10186100462D54494D452D004245452D454E414299
:101871004C452D2D2D2D4F4E2D2D2D2D0042454505
:101881002D454E41424C452D2D2D2D4F46462D2D9A
:101891002D002D2D2D4C414D50532D2D0025643AF9
:0818A10025632D2D00257300C5
:10203E004105480041054A0041054900C19341054B
:02204E004B0045
:0B1BC80090046AEBF0A3EAF0A3E9F040
:101BD30090049F74FFF0A37418F0A37401F09004B1
:101BE3006AE0FBA3E0FAA3E0F99000021209ACFF5C
:101BF3009004A2E4F0A3EFF09000031209ACFF906D
:101C030004A4E4F0A3EFF09000041209ACFF9004E5
:101C1300A6E4F0A3EFF07B017A04797012057B90C0
:101C2300046DE0FBA3E0FAA3E0F9E4FD121FB47B2B
:0A1C3300017A0479707DFF021FB4EE
:101D8E0090046A74FFF090054AE07060C208122752
:101D9E001EBF0F10900548E004F0E0C39408401BEE
:101DAE00E4F08017C20812271EBF0B12900548E000
:101DBE0014F0E0D3940740037407F002272AC208F8
:101DCE0012271EEF6403602412272AC20812271E50
:101DDE0012261F90046AEFF0C364809480400DE0D9
:0C1DEE00FF648094885005900548EFF0D9
:011DFA0022C6
:10106C001224BCEF60030211A7121D8E900548E0FC
:10107C0070097BFF7A18790CFD8065900548E06457
:10108C000170637BFF7A187929FD121FB490049FBD
:10109C0074FFF0A37418F0A37434F0900525E0FFEE
:1010AC009004A2E4F0A3EFF0900526E0FF9004A4D6
:1010BC00E4F0A3EFF0900527E0FF9004A6E4F0A382
:1010CC00EFF0900528E0FF9004A8E4F0A3EFF07B8C
:1010DC00017A04794C12057B7B017A04794C7DFFF3
:1010EC00121FB40211A2900548E0B4022390054AE5
:1010FC00E0701790046D74FFF0A37418F0A374489B
:10110C00F07B017A05791B121BC812234F0211A226
:10111C00900548E0B403257B017A057929120DA4CA
:10112C0090054AE0707090046D74FFF0A37418F091
:10113C00A37453F07B017A057929802A900548E045
:10114C00B404287B017A057920120DA490054AE09D
:10115C00704490046D74FFF0A37418F0A3745EF0E7
:10116C007B017A057920121BC8802B900548E0B4CE
:10117C00050E90054AE070031222C7121A5780160A
:10118C00900548E0B406051215F1800A900548E078
:0B119C00B40703120BCED20812271E6E
:0111A7002225
:08274900900549EFF00223A501
:1023A500900549E0FFD364809480401C301310EF02
:1023B50075F002120971AFF0EF6004D2A68002C277
:0B23C500A6900549E014F022C2A622F9
:1022C70090049F74FF30130AF0A37418F0A3746985
:1022D7008008F0A37418F0A3747EF07B017A047968
:0F22E7006A12057B7B017A04796AE4FD021FB459
:1015F100E4900488F090049F74FFF0A37418F0A3A2
:101601007493F07B017A04796A12057B7B017A0479
:10161100796AE4FD121FB4E4900488F0900488E034
:10162100FFC364809483507CEF3395E0FE74302FC8
:10163100F58274053EF583E090049F602574FFF008
:10164100A37418F0A3749EF0900488E03395E0FE33
:10165100EF2401FFE43E9004A2F0A3EFF0A3744F46
:10166100802474FFF0A37418F0A3749EF090048892
:10167100E0FF3395E0FEEF2401FFE43E9004A2F089
:10168100A3EFF0A37458F07B017A04796A12057B09
:101691007B017A04796A7DFF121FB4900488E0040B
:0416A100F002161D20
:0116A5002222
:0B209E0090047BEBF0A3EAF0A3E9F054
:1020A90090054BEDF090049F74FFF0A37418F0A312
:1020B90074A6F090047BE0F9A3E0FAA3E09004A2EF
:1020C900C9F0A3EAF0A3E9F07B017A04797E12054D
:0C20D9007B7B017A04797EE4FD021FB4D9
:1024BC0090054BE0FED3648094804006E014F07FDE
:1024CC000122EE700912272A90054B74FFF07F0051
:0124DC0022DD
:030000000219479B
:0C194700787FE4F6D8FD75812202198E2D
:10087B00E709F608DFFA8046E709F208DFFA803E5F
:10088B0088828C83E709F0A3DFFA8032E309F6084C
:10089B00DFFA8078E309F208DFFA807088828C83B4
:1008AB00E309F0A3DFFA806489828A83E0A3F60868
:1008BB00DFFA805889828A83E0A3F208DFFA804C42
:1008CB0080D280FA80C680D4806980F28033801019
:1008DB0080A680EA809A80A880DA80E280CA803382
:1008EB0089828A83ECFAE493A3C8C582C8CCC583FA
:1008FB00CCF0A3C8C582C8CCC583CCDFE9DEE780CA
:10090B000D89828A83E493A3F608DFF9ECFAA9F048
:10091B00EDFB2289828A83ECFAE0A3C8C582C8CC9E
:10092B00C583CCF0A3C8C582C8CCC583CCDFEADEB7
:10093B00E880DB89828A83E493A3F208DFF980CC19
:10094B0088F0EF60010E4E60C388F0ED2402B40412
:10095B000050B9F582EB2402B4040050AF232345B9
:06096B0082239008CB730B
:10097100C2D530F707B2D563F0FF05F030E70CB20E
:10098100D5F4048463F0FF05F080018430D502F4CE
:0209910004223E
:10099300BB010689828A83E0225002E722BBFE0262
:0909A300E32289828A83E4932295
:1009AC00BB010CE58229F582E5833AF583E0225000
:1009BC0006E92582F8E622BBFE06E92582F8E2224A
:0D09CC00E58229F582E5833AF583E4932264
:1009D900BB010689828A83F0225002F722BBFE01FD
:0209E900F322F7
:1009EB00F8BB010DE58229F582E5833AF583E8F042
:1009FB00225006E92582C8F622BBFE05E92582C8EE
:020A0B00F222D5
:100A0D00C2D5EC30E709B2D5E4C39DFDE49CFCEE04
:100A1D0030E715B2D5E4C39FFFE49EFE120A65C30D
:100A2D00E49DFDE49CFC8003120A6530D507C3E408
:060A3D009FFFE49EFE2273
:100A4300A3F8E0C5F025F0F0E58215827002158366
:060A5300E0C838F0E822C3
:10212A00C2D5E830E70FB2D5E4C39BFBE49AFAE4E0
:10213A0099F9E498F8EC30E717B2D5122160120A3F
:10214A00F6E4C39BFBE49AFAE499F9E498F880036D
:10215A00120AF630D50DE4C39FFFE49EFEE49DFD0E
:04216A00E49CFC22D3
:0C0A5900ECF0A3EDF0A3EEF0A3EFF02210
:10051600E518249FF582E43404F583E0051822905B
:10052600049C300F0390049FE475F001120B8802BF
:1005360009932008E97F2ED2088018EF540F2490E3
:10054600D43440D4FF300C0BEF24BFB41A00500350
:100556002461FFE51960021519051CE51C700205EA
:100566001B300F0E90049CE475F001120B88EF020D
:1005760009D902244B7403D20F8003E4C20FF51885
:1005860090049C120B9FE4F519F51BF51CE5196008
:10059600077F2012055980F5751AFFC209C208C2E5
:1005A6000AC20BC20DC20EC210120525FF700D3015
:1005B6000F057F0012056AAF1CAE1B22B4255FC271
:1005C600D5C20C120525FF24D0B40A00501A75F0C6
:1005D6000A781930D50508B6FF0106C6A426F62006
:1005E600D5047002D20B80D924CFB41A00EF500480
:1005F600C2E5D20C02076BD20980C6D20880C0D2EF
:100606000A80BCD2D580BAD20D80B47F201205599B
:10061600200A077401B5190040F1120516FF1205EC
:1006260059020593D210D20E8095120516FB1205BB
:1006360016FA120516F94A4B7006793C7A087BFFC2
:10064600200A2EE519602A7E008E82758300120923
:10065600AC60060EEE651A70F0C2D5EBC0E0EAC0DB
:10066600E0E9C0E0EE1207B2D0E0F9D0E0FAD0E05F
:10067600FB120993FF60AAEBC0E0EAC0E0E9C0E024
:10068600120559D0E02401F9D0E03400FAD0E0FB9D
:10069600E51A0460DCD51AD980877BFF7A0779AE24
:1006A600D20A809C791080027908C20EC210800896
:1006B600D2D5790A8004790AC2D5E51A047002F502
:1006C6001AE4FAFDFEFF120516FC7B082009131238
:1006D6000516FD7B1030080A120516FE120516FFD8
:1006E6007B20EC3382D592D55013C3E43008069FA5
:1006F600FFE49EFEE42009039DFDE49CFCE4CBF8A8
:10070600C209EC700CCFCECDCCE824F8F870F3809B
:1007160017C3EF33FFEE33FEED33FDEC33FCEB3363
:10072600FB994002FB0FD8E9EB300905F8D0E0C48D
:1007360048B209C0E00AEC4D4E4F78207B0070C2EB
:10074600EAB51A0040BCC0E01207B4D0F0D0E020F1
:100756000904C4C0E0C4B209C0F0120542D0F0D505
:10076600F0EB020593120BA806305306AA580601B1
:100776004C05FD4206AE4F06B64406B6490616437C
:0807860006BC5506A04606A0C2
:10078E004506A047085C5006052D06092E062C2BA3
:10079E00060D23062A2008452A05C5480000062412
:1007AE003F3F3F00790AA2D5200B14300D09B91036
:1007BE00020404B9080104A2D5200E02500104203F
:1007CE000A68920AB519005034C0E07F20300B1928
:1007DE007F30A20A720E720D500F12080BC20AC29F
:1007EE000EC20DC2107F30800F300D03E9C0E01233
:1007FE000559300D03D0E0F9D0E0B519CC300D1706
:10080E007F30B9100C1205597F58300C077F788055
:10081E0003B90803120559300A057F2D0205597FC9
:10082E00202010F87F2B200EF322920A80CF286E04
:10083E00756C6C2900D2091205163009F8C20978B8
:10084E001930D50108F60205C52D50434958120539
:10085E00162403B405004001E49008579312054A8C
:0D086E00743A12054AD20B7519040206AA4D
:10195300022591E493A3F8E493A34003F68001F2F4
:1019630008DFF48029E493A3F85407240CC8C33395
:10197300C4540F4420C8834004F456800146F6DF64
:10198300E4800B0102040810204080902003E47ED1
:10199300019360BCA3FF543F30E509541FFEE49359
:1019A300A360010ECF54C025E060A840B8E493A320
:1019B300FAE493A3F8E493A3C8C582C8CAC583CA4B
:1019C300F0A3C8C582C8CAC583CADFE9DEE780BE03
:01205000008F
:100A6500BC000BBE0029EF8DF084FFADF022E4CC75
:100A7500F875F008EF2FFFEE33FEEC33FCEE9DEC3E
:100A8500984005FCEE9DFE0FD5F0E9E4CEFD22ED84
:100A9500F8F5F0EE8420D21CFEADF075F008EF2FCE
:100AA500FFED33FD4007985006D5F0F222C398FDBF
:050AB5000FD5F0EA225C
:100ABA0075F008758200EF2FFFEE33FECD33CDCCF3
:100ACA0033CCC58233C5829BED9AEC99E582984076
:100ADA000CF582EE9BFEED9AFDEC99FC0FD5F0D653
:100AEA00E4CEFBE4CDFAE4CCF9A88222B800C1B97D
:100AFA000059BA002DEC8BF084CFCECDFCE5F0CBBB
:100B0A00F97818EF2FFFEE33FEED33FDEC33FCEBF3
:100B1A0033FB10D703994004EB99FB0FD8E5E4F9AE
:100B2A00FA227818EF2FFFEE33FEED33FDEC33FC9B
:100B3A00C933C910D7059BE99A4007EC9BFCE99A8F
:100B4A00F90FD8E0E4C9FAE4CCFB2275F010EF2FD4
:100B5A00FFEE33FEED33FDCC33CCC833C810D707D4
:100B6A009BEC9AE899400AED9BFDEC9AFCE899F80F
:0E0B7A000FD5F0DAE4CDFBE4CCFAE4C8F922A2
:100B8800F8E0FBA3A3E0F925F0F0E58215827002F6
:070B98001583E0FA38F0229A
:090B9F00EBF0A3EAF0A3E9F02257
:100BA800D083D082F8E4937012740193700DA3A3DC
:100BB80093F8740193F5828883E4737402936860F0
:060BC800EFA3A3A380DFF0
:10244B00EFB40A07740D122456740A309811A89928
:10245B00B8130CC2983098FDA899C298B811F630F1
:07246B0099FDC299F59922C9
:00000001FF
