:10212800D3EF9400EE940040147D6E7C00ED1D709A
:0D213800011CED4C70F7EF1F70E61E80E3F8
:012145002277
:07233D00696E69740D0A00CE
:051C640042054B0000E9
:10217D0012219712227512000E1220617BFF7A2315
:0A218D00793D121FC312180B80FBEE
:10180B001221E290054BE0FEA3E0FF7C037DE81282
:10181B000A0DED4C70031221B190054BE0FEA3E0D5
:10182B00FF7C007D32120A0DED4C70031223689081
:10183B00054BE0FEA3E0FF7C007D64120A0DED4C2E
:10184B00700312235790054BE0FEA3E0FF7C017D54
:10185B002C120A0DED4C700312236B90054BE0FE1E
:10186B00A3E0FF7C017DF4120A0DED4C70031223F3
:02187B006E22DB
:10000E00438E805389F0758ACD758CD4C28DD28C77
:05001E00D2A9D2AF22BF
:03000B00021D399A
:101D3900C0E0C0F0C083C082C0D075D01090054CFF
:101D4900E02401FF90054BE03400FE7C0B7DB812C6
:101D59000A0DECF0FEA3EDF0FF7C037DE8120A0DFD
:101D6900ED4C7002B2CDD0D0D082D083D0F0D0E08B
:011D79003237
:052363003443101001DD
:0A1F9900EBF0A3EAF0A3E9F0C29018
:101FA300E4FEEF30E704D2918002C291EF25E0FF17
:0F1FB300D2933092034401FFC2930EEEB408E3C1
:011FC20022FC
:102275007F027E00122128C294D290C293D2C72237
:0C22F000C290121FA3E4FF121FA3D290A3
:0122FC0022BF
:0E2109001221177D407F251221177D077F26AA
:10211700C290121FA3AC07AF05121FA3D290AF0442
:012127002295
:031E280090044FD4
:101E2B00121F99AD07E4FC900452E0FFECC39F50E6
:101E3B001CE4FF121FA390044FE0FBA3E0FAA3E006
:101E4B00F98C82758300EF1209EB0C80DAD290AF1C
:011E5B000581
:011E5C002263
:031E5D0090044EA0
:101E6000121F99AD07E4FC900451E0FFECC39F50B2
:101E70001A90044EE0FBA3E475F001120A98A9F051
:0F1E8000FA120993FF121FA30C80DCD290AF055A
:011E8F002230
:101A7600900548EBF0A3EAF0A3E9F0C2947BFF7A65
:101A86002379639004517405F07F30121E5D900532
:101A960048E0FBA3E0FAA3E0F99004517404F07F58
:101AA600A0121E5D7D017F211221177F22122117B0
:101AB6007D0A7F241221097D0E7F20122117D294E0
:071AC6007F057E00022128CC
:101D7A00C2947BFF7A2379639004517405F07F2A19
:101D8A00121E5D7D037F211221177F221221170D5A
:101D9A007F311221177F321221177F331221097DD9
:0F1DAA000F7F20122117D2947F057E000221287F
:10221E007F071222F08F203005077DFF7F271221C6
:02222E00172275
:101DB900E490044DF07F071222F08F20300629E5C8
:101DC90020540EC29470117B017A05793F90045218
:101DD9007404F07F61121E287DFF7F27122117C22C
:081DE900907FE2121FA3D290CB
:011DF10022CF
:101C6900C11141050900410503014505047F0E0025
:021C7900A000C9
:10219700E5A2543FF5A275985075D7E075D6FE7540
:0A21A7008E14438E01D2ACD2AF2299
:03002300021FEDCC
:101FED00C0E0C0F0C083C082C0D075D00830980565
:101FFD00C298121A1D309904C299C211D0D0D08244
:07200D00D083D0F0D0E032D7
:09232C002011FDEFD211F59922F8
:0B1FC30090044CEBF0A3EAF0A3E9F05F
:101FCE00E4FE90044CE0FBA3E0FAA3E0F98E8275E8
:0E1FDE0083001209ACFF600612232C0E80E473
:011FEC0022D2
:072344007B017A05790A22F2
:06234B00900509E0FF22ED
:06235100900503E0FF22ED
:0F22B500EFB40105E4900509F0900503EFF02266
:101A1D00E4FE122351EF6401704EAE99900509E07A
:101A2D00FFC39405501774042FF582E43405F58334
:101A3D00E06E6009E4900509F07FFF8028900509AC
:101A4D00E0FFC39405400C74052FF582E43405F5D1
:101A5D0083EEF0900509E004F0E0D3940F4009E027
:081A6D0024FBF0E4FF1222B596
:011A7500224E
:1021E200E490044CF0121D7A121DB97B017A057934
:0621F2003F7D040214779A
:1021B100121EED7B017A05792590051AE0900450F5
:0921C100F07D031213D5021F4347
:03236800022085CB
:06235700122344020C8673
:03236B00021F6EE0
:03236E00020DD18C
:1015A100535550504F52542D49442D434152442DCF
:1015B1004F4E4C5921004E4F2E25642D4F55542D21
:1015C1003B6E756D6265722D69732E25642E002D3B
:1015D1002D46554C4C2D2D002D2D63616C6C6D6588
:1015E1002D2D3133303737363631353934004E4FC2
:1015F1002E25642D494E2D3B6E756D6265722D69E8
:10160100732D25642E006361736863617264000049
:1016110000000000000000000000000000000000C9
:0416210000000000C5
:041C7B0041051A0005
:10206100C2A61222531223211220E9122316E49050
:102071000522F0A3F0A3F090052BF0A3F0A3F07FCD
:0420810003022335FE
:10147700900450EDF090044DEBF0A3EAF0A3E9F0EF
:10148700E4FE12099324D0900451F090053FE060E8
:101497007C7C01900450E0C36480F8EC6480985031
:1014A7002390044DE0FBA3E0FAA3E0F9ECF58233C7
:1014B70095E0F5831209AC24D0FFEE75F00AA42F4E
:1014C700FE0C80CF900451E0FFB40107900525EE94
:1014D700F08030EFB40207900526EEF080259004E7
:1014E70051E0FFB40307900527EEF08016EFB40430
:1014F70007900528EEF0800B7C0590053FE4F0A3EC
:0D150700DCFC227C0590053FE4F0A3DCFC39
:0115140022B4
:101EED007B017A04794C1213227B017A04794C120E
:101EFD00172090044EE090051DF090044DE09005E4
:0A1F0D001EF090044CE090051FF058
:011F170022A7
:0B0C860090044CEBF0A3EAF0A3E9F0AF
:100C9100E4A3F012234B900450EFF0E490045BF0D6
:100CA100A3F0785D7C047D017BFF7A167907FE7FD6
:100CB1001E12094B122351EF64017003020DD01271
:100CC1002316122351BFFF0E7F051223357BFF7AB6
:100CD1001579A1020DC67F02122335E490044FF06D
:100CE100900450E0FF90044FE0FEC39F5041EEC3DB
:100CF1009F502090044CE0FBA3E0FAA3E0F98E8220
:100D01007583001209ACFF74512EF582E43404F5A9
:100D110083EFF090044CE0FBA3E0FAA3E0F98E82AC
:100D2100758300E41209EB90044FE004F080B17B7D
:100D3100017A04795112187D90045CEFF0F460217E
:100D410090051AE014F090045CE0FF12235D90041A
:100D51009F74FFF0A37415F0A374B7F090045C8046
:100D61003E7B017A047951121ACD90045BEFF0BFFA
:100D7100FF167BFF7A1579D0E4FD121BC87BFF7A41
:100D81001579D97DFF021BC890051AE004F0900483
:100D91009F74FFF0A37415F0A374EFF090045BE06F
:100DA100FF9004A2E4F0A3EFF090051AE0FF900495
:100DB100A4E4F0A3EFF07B017A04795D12057B7B5B
:0F0DC100017A04795D7D03121B767F011222B542
:010DD0002200
:0F228500EF7F08A2E09286D285C285C313DFF4F3
:012294002227
:0F2295007F08C313A28692E7D285C285DFF4FFCC
:0122A4002217
:10224200C287C285D287122285AF05122285C28734
:012252002269
:1021F800C287C285D287EF4401FF12228512229539
:02220800C2878B
:01220A0022B1
:0F22C4003008047D108002E4FD7F8E122242223A
:1020C900AE05AC07C2081222C4AF04EE75F00A844B
:1020D900C454F0FDEE75F00A84E5F04DFD0222428C
:101322007F801221F8EF5470C4540F75F00AA4FEA6
:10133200EF540F2E1209D97F821221F8EF5470C494
:10134200540F75F00AA4FEEF540F2E9000011209FB
:10135200EB7F841221F8EF5470C4540F75F00AA485
:10136200FEEF540F2E9000021209EB7F861221F835
:10137200EF5470C4540F75F00AA4FEEF540F2E9070
:1013820000041209EB7F8A1221F8EF5470C4540F43
:1013920075F00AA4FEEF540F2E9000031209EB7FA2
:1013A200881221F8EF5470C4540F75F00AA4FEEFAE
:1013B200540F2E9000051209EB7F8C1221F8EF5486
:1013C20070C4540F75F00AA4FEEF540F2E9000065D
:0313D2000209EB22
:1016A3009000061209AC75F00A849000071209EB4A
:1016B3009000061209AC75F00A84900008E5F01258
:1016C30009EB900009742D1209EB9000051209AC87
:1016D30075F00A8490000A1209EB9000051209AC18
:1016E30075F00A8490000BE5F01209EB90000C747E
:1016F3002D1209EB9000041209AC75F00A849000D6
:101703000D1209EB9000041209AC75F00A849000E5
:0D1713000EE5F01209EB90000FE40209EB67
:101720009000021209AC75F00A849000101209EBC7
:101730009000021209AC75F00A84900011E5F012D5
:1017400009EB900012743A1209EB9000011209ACF7
:1017500075F00A849000131209EB9000011209AC95
:1017600075F00A84900014E5F01209EB90001574EE
:101770003A1209EB120993FF75F00A8490001612D1
:1017800009EBEF75F00A84900017E5F01209EB9071
:06179000000FE40209EB6A
:102253007F801221F8EF30E707E4FD7F801220C969
:012263002258
:1000260000E010080810E000000F102020100F005C
:1000360000001010F8000000000020203F202000E3
:10004600007008080808F00000302824222130003B
:1000560000300808088870000018202121221C00A2
:100066000000804030F8000000060524243F2424C8
:1000760000F88888880808000019202020110E0042
:1000860000E0108888900000000F112020201F003B
:1000960000180808886818000000003E01000000EB
:1000A6000070880808887000001C222121221C008C
:1000B60000F008080810E0000001122222110F00CB
:1000C600000000C0C000000000000030300000004A
:1000D6000000008000000000000000E000000000BA
:1000E60000008040201008000001020408102000D3
:1000F600004040404040400000020202020202006E
:1001060000081020408000000020100804020100B2
:1001160000704808088870000000003037000000B2
:10012600C030C828E810E000071827282F28170035
:100136000000C038E0000000203C230202273820DF
:1001460008F8888888700000203F202020110E00C3
:10015600C0300808080838000718202020100800BA
:1001660008F808080810E000203F202020100F00A3
:1001760008F88888E8081000203F2020232018006F
:1001860008F88888E8081000203F200003000000D7
:10019600C03008080838000007182020221E020078
:1001A60008F808000008F808203F210101213F2037
:1001B600000808F8080800000020203F2020000062
:1001C60000000808F8080800C08080807F00000052
:1001D60008F888C028180800203F2001263820008B
:1001E60008F8080000000000203F202020203000F2
:1001F60008F8F800F8F80800203F013E013F20000B
:1002060008F830C00008F808203F200007183F0013
:10021600E01008080810E0000F10202020100F0042
:1002260008F808080808F000203F21010101000035
:10023600E01008080810E0000F10282830504F0082
:1002460008F8888888887000203F2000030C30203A
:1002560000708808080838000038202121221C0078
:10026600180808F8080818000000203F20000000C1
:1002760008F808000008F808001F202020201F00AA
:100286000878880000C83808000007380E0100000A
:1002960008F800F800F8080000033E013E030000DD
:1002A600081868808068180820302C03032C30203A
:1002B6000838C800C83808000000203F20000000A9
:1002C60010080808C8380800203826212020180001
:1002D600000000FE020202000000007F40404000D5
:1002E60000000000C038040000601807000000008D
:1002F60000020202FE000000004040407F000000B5
:1003060000000402020400000000000000000000DB
:1003160000000000000000000001010101010100D1
:1003260000020204000000000000000000000000BF
:10033600000080808000000000192424123F200065
:1003460010F0008080000000003F112020110E00F8
:100356000000008080800000000E11202020110087
:10036600000080808090F000001F202020103F2099
:100376000000808080800000001F242424241700B1
:10038600008080E0909020000020203F2020000088
:100396000000808080808000006B949494936000BD
:1003A60010F0008080800000203F210000203F20C8
:1003B60000809898000000000020203F20200000C8
:1003C600000000809898000000C08080807F0000B8
:1003D60010F0000080808000203F24062930200095
:1003E600001010F8000000000020203F2020000030
:1003F6008080808080808000203F20003F20003F5A
:100406008080008080800000203F210000203F2067
:100416000000808080800000001F202020201F0018
:10042600808000808000000080FF912020110E0057
:100436000000008080008000000E11202091FF80C7
:10044600808080008080800020203F2120000100E5
:10045600000080808080800000332424242419003A
:10046600008080E0808000000000001F2020100037
:100476008080000000808000001F202020103F2088
:10048600808080008080800000030C300C03000018
:100496008080008080008080010E300C07380601C5
:1004A60000808080008080000020310E2E312000E8
:1004B6008080800000808080008186781806010098
:1004C60000808080808080000021302C2221300036
:1004D6000000000000FC020200000000013E404057
:1004E600000438C000000000000000010638C0000B
:1004F6000202FC000000000040403E010000000037
:1005060000020102020402000000000000000000D8
:041C7F004104E40038
:0E22D300E4FFFE0FBF00010EBE01F8BFF4F5E0
:0122E10022DA
:101CB00075F010EBA42CF582E435F0F583E5822471
:0E1CC00026F582E5833400F583E493FF7D0171
:101CCE00C2C4ED24FF92A0E4FEEF30E704D2A1805F
:101CDE0002C2A1EF25E0FFC2A2D2A20EEEB408E925
:061CEE00D2A0D2C4D2A175
:011CF40022CD
:1020E900C2C31222D3D2C3E4FD7F21121CCE7FD0FA
:1020F900121CCE7F20121CCE7F0C121CCE02203B5C
:10223000AC07ED4440FFE4FD121CCEEC4480FF02ED
:022240001CCEB2
:10214600E4FDFF122230E4FCE4FB7D01E4FF121CF7
:0B215600CE0BEBB454F40CECB406ED1F
:01216100225B
:041EBF00A907AA05C0
:101EC300E975F008A4FF122230E4FC121CB00CECFC
:101ED300B408F8E975F008A4FFEA04FD1222307C87
:091EE30008121CB00CECB410F85C
:011EEC0022D3
:041DF200AB05AA078C
:101DF600EA75F008A4FF122230E4FC7D01E4FF122C
:101E06001CCE0CECB408F4EA75F008A4FFEB04FD54
:101E16001222307C087D01E4FF121CCE0CECB410BB
:011E2600F4C7
:011E27002298
:10203B00E4FFEFFD3395E0FC74E52DF58274043C71
:10204B00F583E4F074C62DF58274043CF583E4F05B
:05205B000FEFB41EDDD3
:01206000225D
:0B0FFB0090049CEBF0A3EAF0A3E9F0E7
:10100600E49004A2F0A3F0A3F09004A2F09004A24E
:10101600E0FFC3941E40030210E9EF75F00A84E571
:10102600F0701AE0D3940040149004A4E02402F077
:10103600E075F00584E5F0F0E49004A3F090049CDC
:10104600E0FBA3E0FAA3E0F99004A2E0FFF58275C5
:1010560083001209ACFE90049FE0FBA3E0FAA3E034
:10106600F98F827583001209ACB50602806690047A
:10107600A2E0FF90049FE0FBA3E0FAA3E0F98F82D1
:10108600758300EE1209EB90049CE0FBA3E0FAA343
:10109600E0F99004A2E0F5827583001209ACFFC363
:1010A600648094B04023EF648094FF501C9004A3A6
:1010B600E0FFA3E0FD9004A2E0F58275830012092B
:1010C600AC24D0FB121EBF800B9004A3E0FFA3E06C
:1010D600FD121DF29004A3E004F09004A2E004F0D7
:0310E600021013E2
:0110E90022E4
:0B23160012203BE49004E4F00221469A
:101BC800C3ED6480948040059004E4EDF01209931D
:101BD800FF60259004E4E024E5F582E43404F5830D
:101BE800EFF0740129F9E43AFA9004E4E004F0759E
:101BF800F01E84E5F0F080D590049F7401F0A37482
:0F1C080004F0A374C6F07B017A0479E5020FFBA8
:0800030070B0D0E0070B0D0EF8
:101C1700E4A29533C43333335480FFE4A29633C42C
:101C2700333354C04FFFE4A29733C43354E04FFF1C
:101C3700E4A2CC33C454F04FFFE4A2B433333333BC
:101C470054F84FFFE4A2B33325E025E04FFFE4A2A9
:0C1C5700B23325E04FFFE4A2C0334FFF82
:011C6300225E
:1010EA0090044C74FFF0E4FDA3F0A3F0A3F0785051
:1010FA007C040D7BFF7A007903FE7F0412094B788A
:10110A00547C047D017BFF7A0079077E007F0412FC
:10111A00094BD295D296D297D2CCC2B4C2B3C2B23C
:10112A00C2C0121C17AD07EDB4F0037FFF22C295AF
:10113A00C296C297C2CCD2B4D2B3D2B2D2C0121C17
:10114A001790044DEFF0640F6061E4A3F090044E31
:10115A00E0FFC39404501674502FF582E43404F56A
:10116A0083E06D600890044EE004F080E0E49004AF
:10117A004FF090044FE0FFC39404501B74542FF5B2
:10118A0082E43404F583E0FF90044DE06F60089038
:10119A00044FE004F080DB90044FE025E025E0FFF7
:0D11AA0090044EE02FFF90044CF0227FFFD8
:0111B7002215
:10226400000102FF030405FF060708FF09FFFFFF43
:01227400FF6A
:081C830041054EFF41054DFF34
:10208500E4FF1210EAEFF4600690054EEFF022909F
:10209500054EE0FFF4600590054DEFF090054E7498
:0220A500FFF04A
:0120A7002216
:0B230A0090054DE0FF30080374FFF069
:0123150022A5
:10220B00EF3395E0FE74642FF58274223EF583E480
:02221B0093FF2F
:01221D00229E
:012374002246
:0A2321007F649003E8E4F0A3DFFC02
:01232B00228F
:1021CA00E4FF74E82FF582E43403F583E07001221A
:0721DA000FEFB464ED7FFF7D
:0121E10022DB
:0D22FD0074E82FF582E43403F583E4F02249
:0E22E20074E82FF582E43403F5837401F022D2
:0B1ACD0090047BEBF0A3EAF0A3E9F02B
:101AD800E4FE1221CAAD07EDB4FF037FFF22E4FE46
:101AE80090047BE0FBA3E0FAA3E0F98E8275830003
:101AF8001209ACFF75F00AEDA42400F582E5F03474
:101B080000F583E5822EF582E43583F583EFF00E48
:091B1800EEB40ACCAF051222E282
:011B210022A1
:0B187D0090047BEBF0A3EAF0A3E9F07D
:10188800E4A3F0FFFE74E82FF582E43403F583E067
:10189800604BE490047EF0FE90047BE0FBA3E0FA4A
:1018A800A3E0F98E827583001209ACFD75F00AEF8A
:1018B800A42400F582E5F03400F583E5822EF58254
:1018C800E43583F583E06D600890047E74FFF08052
:1018D800050EEEB40AC290047EE07001220FEFB448
:0418E80064A37FFF77
:0118EC0022D9
:0F22A50012187DEFB4FF037FFF221222FD7F008E
:0122B4002207
:06235D001222FD7F0022A8
:1019BD00696E707574686F75723A3D256400696E55
:1019CD007075746D696E3A3D256400696E7075743D
:1019DD007365633A3D2564002D2D2D2D2D2D2D2D57
:1019ED002D2D57616974696E67005345542D2D4235
:1019FD0045452D2D2D2D4F4E2D2D2D2D005345545F
:101A0D002D2D4245452D2D2D2D4F46462D2D2D008D
:041C8B0041053E00D1
:0B0AF40090046AEBF0A3EAF0A3E9F025
:100AFF00C20812230A90048BEFF0A374FFF0900545
:100B0F0046E0701890048BE0B403117F0112233577
:100B1F009005467401F090048B74FFF0900546E049
:100B2F006401706512231612195D90048CEFF0901A
:100B3F00049F74FFF0A37419F0A374BDF0EF339505
:100B4F00E0A3F0A3EFF07B017A04796D12057B7BB4
:100B5F00017A04796DE4FD121BC890048BE0B40395
:100B6F00287F011223359005467402F090048CE023
:100B7F00FF90046AE0FBA3E0FAA3E0F9900002EF14
:100B8F001209EB90048B74FFF0900546E06402703D
:100B9F006512231612195D90048CEFF090049F7468
:100BAF00FFF0A37419F0A374CBF0EF3395E0A3F02B
:100BBF00A3EFF07B017A04796D12057B7B017A0438
:100BCF00796DE4FD121BC890048BE0B403287F01FC
:100BDF001223359005467403F090048CE0FF9004C7
:100BEF006AE0FBA3E0FAA3E0F9900003EF1209EB30
:100BFF0090048B74FFF0900546E064037076122327
:100C0F001612195D90048CEFF090049F74FFF0A3FF
:100C1F007419F0A374D8F0EF3395E0A3F0A3EFF0BD
:100C2F007B017A04796D12057B7B017A04796DE47F
:100C3F00FD121BC890048BE0640370387F011223F0
:100C4F0035E4900546F090048CE0FF90046AE0FBD9
:100C5F00A3E0FAA3E0F9900004EF1209EB90048BE4
:100C6F0074FFF01223167BFF7A1979E5E4FD121B4E
:060C7F00C87F00227FFF88
:010C8500224C
:101F18007B017A057939120AF4EF701E90053BE0CF
:101F2800FD7F841220C990053CE0FD7F821220C904
:0B1F380090053DE0FD7F801220C922D3
:03237100020AF469
:10195D00C20812230A90048DEFF0F4601BE0FF1211
:10196D00220BEFF4601290048DE0FF12220B900514
:10197D003EE075F00AA42FF090048DE0B40E2B908C
:10198D00053EE0FF75F00A120971AEF0EEFD3395DC
:10199D00E0FCEF3395E0FEC3EF9DFFEE9CFE7C0077
:0F19AD007D0A120A6290053EEFF090053EE0FFC2
:0119BC002208
:10162500C20812230A900488EFF0BF031290054602
:10163500E0700C7404F012231690048874FFF09087
:101645000546E064047056900488E0FFB40F02B2CA
:1016550013EFB40B02B21390049F74FF30130AF01A
:10166500A37419F0A374F78008F0A3741AF0A37497
:101675000AF07B017A04796A12057B7B017A047989
:101685006AE4FD121BC8900488E0B40310E49005D9
:0D16950046F090048874FFF07F03122335A7
:0116A2002225
:0E1C8F0041053000C19241052F0541052E048C
:101B2200D2C6D2C5D2A7E4900531F0A3F0A3F0A3A8
:101B3200F0D3EF64809480400DA3E06009C2C690A8
:101B420005317401F01FD3EF64809480400F90053B
:101B520036E06009C2C59005327401F01FD3EF640C
:101B6200809480400E900537E06008C2A79005334C
:041B72007401F022E8
:101F430090044F7401F0A37405F0A37420F0A374FC
:101F530001F0A37405F0A37429F07B017A05791BC2
:0B1F63001218ED900530E0FF021B2279
:0E13D50090044CEBF0A3EAF0A3E9F0A3EDF0D6
:1013E300E4FFFE900530F090044FE0FDEFC39D5005
:1013F3006690044CE0FBA3E0FAA3E0F98F827583C7
:10140300001209ACFD90052FE0D36480F8ED6480F1
:1014130098401374352FF582E43405F5837401F095
:10142300900530E004F090044CE0FBA3E0FAA3E065
:10143300F98F827583001209ACFD90052EE0D36409
:1014430080F8ED648098500C74352FF582E43405F0
:10145300F583E4F00F8090900530E0FF90044FE0B7
:10146300C39FFEA3E0FFD39E4004EF9E8001E49060
:031473000530F051
:011476002253
:100F0000900452E0F9A3E0FAA3E0900458C9F0A3DA
:100F1000EAF0A3E9F090044CE0FBA3E0FAA3E0F9C7
:100F2000900455EBF0A3EAF0A3E9F0A3E0FBA3E003
:100F3000FAA3E0F99000021209ACFE900455E0FB20
:100F4000A3E0FAA3E0F99000021209ACFDD39E40A1
:100F5000037F0122EDB5062A900458E0FBA3E0FAD6
:100F6000A3E0F99000031209ACFF900455E0FBA345
:100F7000E0FAA3E0F99000031209ACD39F40037F8D
:100F80000122900458E0FBA3E0FAA3E0F9900002EC
:100F90001209ACFF900455E0FBA3E0FAA3E0F9903E
:100FA00000021209AC6F7050900458E0FBA3E0FA05
:100FB000A3E0F99000031209ACFF900455E0FBA3F5
:100FC000E0FAA3E0F99000031209ACB5072A9004F7
:100FD00058E0FBA3E0FAA3E0F99000041209ACFF8B
:100FE000900455E0FBA3E0FAA3E0F9900004120995
:0B0FF000ACD39F40037F01227FFF2253
:1018ED0090044CEBF0A3EAF0A3E9F0900452E0F978
:1018FD00A3E0FAA3E0900458C9F0A3EAF0A3E9F03D
:10190D0090044F120F18D3EF64809480401E120F75
:10191D0000D3EF64809480401190044F120F03C3E5
:10192D00EF64809480501EC212228019120F00C3E2
:10193D00EF64809480501690044F120F03D3EF6420
:10194D008094804008D212E4900530F022C2122219
:10216200201217900530E0FD3395E0FCEFD39DEC93
:0B2172006480F87480985002EFF022A7
:10126D005B25643A25643A25645D002D2D77656C08
:10127D006C636F6D2D2D2D2D2D7573652D2D2D2DD4
:10128D0057494D492D4445562D002D4C4947532066
:10129D0056414C2D00613A25642D2D623A25642D61
:1012AD002D633A25642D2D643A2564002D54494D46
:1012BD00452D4E4F572D004F50454E2D54494D4500
:1012CD002D002D4F46462D54494D452D0042454587
:1012DD002D454E41424C452D2D2D2D4F4E2D2D2D55
:1012ED002D004245452D454E41424C452D2D2D2D70
:1012FD004F46462D2D2D002D2D2D4C414D50532D4E
:10130D002D0025643A25632D2D0025732D2D2D2DB2
:05131D002D2D256400E8
:101C9D00410544004105460041054500C1934105FC
:021CAD004700EE
:0B17960090046AEBF0A3EAF0A3E9F076
:1017A10090049F74FFF0A37412F0A3746DF0900481
:1017B1006AE0FBA3E0FAA3E0F99000021209ACFF92
:1017C1009004A2E4F0A3EFF09000031209ACFF90A3
:1017D10004A4E4F0A3EFF09000041209ACFF90041C
:1017E100A6E4F0A3EFF07B017A04797012057B90F7
:1017F100046DE0FBA3E0FAA3E0F9E4FD121BC87B52
:0A180100017A0479707DFF021BC814
:101CF500900546E0703DC20812230ABF0F169005F5
:101D050044E004F0E0C394074002E4F07F011223AD
:101D150035122316C20812230ABF0B17900544E09B
:101D250014F0E0D3940640037406F07F01122335C6
:041D3500122316223D
:100DD1001220A8EF6003020EFF121CF5900544E0FB
:100DE10070097BFF7A127978FD8065900544E06493
:100DF1000170637BFF7A127997FD121BC890049FE3
:100E010074FFF0A37412F0A374A2F0900525E0FF23
:100E11009004A2E4F0A3EFF0900526E0FF9004A473
:100E2100E4F0A3EFF0900527E0FF9004A6E4F0A31F
:100E3100EFF0900528E0FF9004A8E4F0A3EFF07B29
:100E4100017A04794C12057B7B017A04794C7DFF90
:100E5100121BC8020EFA900544E0B4022290054626
:100E6100E0701790046D74FFF0A37412F0A374B9CD
:100E7100F07B017A05791B121796121F18807A9060
:100E81000544E0B403257B017A057929120AF4901F
:100E91000546E0706490046D74FFF0A37412F0A332
:100EA10074C4F07B017A057929802A900544E0B465
:100EB10004287B017A057920120AF4900546E07036
:100EC1003890046D74FFF0A37412F0A374CFF07B1B
:100ED100017A057920121796801F900544E0B40528
:100EE1000E900546E07003121E90121625800A909E
:0E0EF1000544E0B406031211B8D20812230A19
:010EFF0022D0
:08233500900545EFF0021F6E58
:101F6E00900545E0FFD364809480401C301310EF41
:101F7E0075F002120971AFF0EF6004D2A68002C2B2
:0B1F8E00A6900545E014F022C2A62238
:101E900090049F74FF30130AF0A37412F0A374DA55
:101EA0008008F0A37412F0A374EFF07B017A047938
:0F1EB0006A12057B7B017A04796AE4FD021BC884
:1011B800E4900488F090049F74FFF0A37413F0A3E4
:1011C8007404F07B017A04796A12057B7B017A0446
:1011D800796AE4FD121BC8E4900488F0900488E062
:1011E800FFC364809483507CEF3395E0FE74312F05
:1011F800F58274053EF583E090049F602574FFF046
:10120800A37413F0A3740FF0900488E03395E0FE04
:10121800EF2401FFE43E9004A2F0A3EFF0A3744F83
:10122800802474FFF0A37413F0A3740FF090048863
:10123800E0FF3395E0FEEF2401FFE43E9004A2F0C6
:10124800A3EFF0A37458F07B017A04796A12057B46
:101258007B017A04796A7DFF121BC8900488E00438
:04126800F00211E49B
:01126C00225F
:0B1B760090047BEBF0A3EAF0A3E9F081
:101B8100AF05900547EFF090049F74FFF0A3741325
:101B9100F0A37417F090047BE0F9A3E0FAA3E090BE
:101BA10004A2C9F0A3EAF0A3E9F0EF3395E0A3F0B2
:101BB100A3EFF07B017A04797E12057B7B017A0425
:071BC100797EE4FD021BC860
:1020A800900547E0FED3648094804006E014F07FFA
:1020B8000122EE700912231690054774FFF07F0085
:0120C80022F5
:03000000021515D1
:0C151500787FE4F6D8FD75812202155C99
:10087B00E709F608DFFA8046E709F208DFFA803E5F
:10088B0088828C83E709F0A3DFFA8032E309F6084C
:10089B00DFFA8078E309F208DFFA807088828C83B4
:1008AB00E309F0A3DFFA806489828A83E0A3F60868
:1008BB00DFFA805889828A83E0A3F208DFFA804C42
:1008CB0080D280FA80C680D4806980F28033801019
:1008DB0080A680EA809A80A880DA80E280CA803382
:1008EB0089828A83ECFAE493A3C8C582C8CCC583FA
:1008FB00CCF0A3C8C582C8CCC583CCDFE9DEE780CA
:10090B000D89828A83E493A3F608DFF9ECFAA9F048
:10091B00EDFB2289828A83ECFAE0A3C8C582C8CC9E
:10092B00C583CCF0A3C8C582C8CCC583CCDFEADEB7
:10093B00E880DB89828A83E493A3F208DFF980CC19
:10094B0088F0EF60010E4E60C388F0ED2402B40412
:10095B000050B9F582EB2402B4040050AF232345B9
:06096B0082239008CB730B
:10097100C2D530F707B2D563F0FF05F030E70CB20E
:10098100D5F4048463F0FF05F080018430D502F4CE
:0209910004223E
:10099300BB010689828A83E0225002E722BBFE0262
:0909A300E32289828A83E4932295
:1009AC00BB010CE58229F582E5833AF583E0225000
:1009BC0006E92582F8E622BBFE06E92582F8E2224A
:0D09CC00E58229F582E5833AF583E4932264
:1009D900BB010689828A83F0225002F722BBFE01FD
:0209E900F322F7
:1009EB00F8BB010DE58229F582E5833AF583E8F042
:1009FB00225006E92582C8F622BBFE05E92582C8EE
:020A0B00F222D5
:100A0D00BC000BBE0029EF8DF084FFADF022E4CCCD
:100A1D00F875F008EF2FFFEE33FEEC33FCEE9DEC96
:100A2D00984005FCEE9DFE0FD5F0E9E4CEFD22EDDC
:100A3D00F8F5F0EE8420D21CFEADF075F008EF2F26
:100A4D00FFED33FD4007985006D5F0F222C398FD17
:050A5D000FD5F0EA22B4
:100A6200C2D5EC30E709B2D5E4C39DFDE49CFCEEAF
:100A720030E715B2D5E4C39FFFE49EFE120A0DC310
:100A8200E49DFDE49CFC8003120A0D30D507C3E40B
:060A92009FFFE49EFE221E
:100A9800A3F8E0C5F025F0F0E58215827002158311
:060AA800E0C838F0E8226E
:10051600E518249FF582E43404F583E0051822905B
:10052600049C300F0390049FE475F001120AAE029A
:1005360009932008E97F2ED2088018EF540F2490E3
:10054600D43440D4FF300C0BEF24BFB41A00500350
:100556002461FFE51960021519051CE51C700205EA
:100566001B300F0E90049CE475F001120AAEEF02E8
:1005760009D90220147403D20F8003E4C20FF518C0
:1005860090049C120AC5E4F519F51BF51CE51960E3
:10059600077F2012055980F5751AFFC209C208C2E5
:1005A6000AC20BC20DC20EC210120525FF700D3015
:1005B6000F057F0012056AAF1CAE1B22B4255FC271
:1005C600D5C20C120525FF24D0B40A00501A75F0C6
:1005D6000A781930D50508B6FF0106C6A426F62006
:1005E600D5047002D20B80D924CFB41A00EF500480
:1005F600C2E5D20C02076BD20980C6D20880C0D2EF
:100606000A80BCD2D580BAD20D80B47F201205599B
:10061600200A077401B5190040F1120516FF1205EC
:1006260059020593D210D20E8095120516FB1205BB
:1006360016FA120516F94A4B7006793C7A087BFFC2
:10064600200A2EE519602A7E008E82758300120923
:10065600AC60060EEE651A70F0C2D5EBC0E0EAC0DB
:10066600E0E9C0E0EE1207B2D0E0F9D0E0FAD0E05F
:10067600FB120993FF60AAEBC0E0EAC0E0E9C0E024
:10068600120559D0E02401F9D0E03400FAD0E0FB9D
:10069600E51A0460DCD51AD980877BFF7A0779AE24
:1006A600D20A809C791080027908C20EC210800896
:1006B600D2D5790A8004790AC2D5E51A047002F502
:1006C6001AE4FAFDFEFF120516FC7B082009131238
:1006D6000516FD7B1030080A120516FE120516FFD8
:1006E6007B20EC3382D592D55013C3E43008069FA5
:1006F600FFE49EFEE42009039DFDE49CFCE4CBF8A8
:10070600C209EC700CCFCECDCCE824F8F870F3809B
:1007160017C3EF33FFEE33FEED33FDEC33FCEB3363
:10072600FB994002FB0FD8E9EB300905F8D0E0C48D
:1007360048B209C0E00AEC4D4E4F78207B0070C2EB
:10074600EAB51A0040BCC0E01207B4D0F0D0E020F1
:100756000904C4C0E0C4B209C0F0120542D0F0D505
:10076600F0EB020593120ACE06305306AA5806018C
:100776004C05FD4206AE4F06B64406B6490616437C
:0807860006BC5506A04606A0C2
:10078E004506A047085C5006052D06092E062C2BA3
:10079E00060D23062A2008452A05C5480000062412
:1007AE003F3F3F00790AA2D5200B14300D09B91036
:1007BE00020404B9080104A2D5200E02500104203F
:1007CE000A68920AB519005034C0E07F20300B1928
:1007DE007F30A20A720E720D500F12080BC20AC29F
:1007EE000EC20DC2107F30800F300D03E9C0E01233
:1007FE000559300D03D0E0F9D0E0B519CC300D1706
:10080E007F30B9100C1205597F58300C077F788055
:10081E0003B90803120559300A057F2D0205597FC9
:10082E00202010F87F2B200EF322920A80CF286E04
:10083E00756C6C2900D2091205163009F8C20978B8
:10084E001930D50108F60205C52D50434958120539
:10085E00162403B405004001E49008579312054A8C
:0D086E00743A12054AD20B7519040206AA4D
:1015210002217DE493A3F8E493A34003F68001F242
:1015310008DFF48029E493A3F85407240CC8C333CB
:10154100C4540F4420C8834004F456800146F6DF9A
:10155100E4800B0102040810204080901C64E47EAA
:10156100019360BCA3FF543F30E509541FFEE4938F
:10157100A360010ECF54C025E060A840B8E493A356
:10158100FAE493A3F8E493A3C8C582C8CAC583CA81
:10159100F0A3C8C582C8CAC583CADFE9DEE780BE39
:011CAF000034
:100AAE00F8E0FBA3A3E0F925F0F0E58215827002D1
:070ABE001583E0FA38F02275
:090AC500EBF0A3EAF0A3E9F02232
:100ACE00D083D082F8E4937012740193700DA3A3B7
:100ADE0093F8740193F5828883E4737402936860CB
:060AEE00EFA3A3A380DFCB
:10201400EFB40A07740D12201F740A309811A8999E
:10202400B8130CC2983098FDA899C298B811F6302C
:0720340099FDC299F5992204
:00000001FF
