:10205500D3EF9400EE940040147D6E7C00ED1D706E
:0D206500011CED4C70F7EF1F70E61E80E3CC
:01207200224B
:07226E00696E69740D0A009E
:051B530042053B00000B
:1020AA001220C412219D12000E121D237BFF7A22D8
:0A20BA00796E121F35121B9B80FB8C
:101B9B001220F690053BE0FEA3E0FF7C037DE812EC
:101BAB000A0DED4C700312210C90053BE0FEA3E0F7
:101BBB00FF7C007D64120A0DED4C700312225D90C8
:101BCB00053BE0FEA3E0FF7C017D2C120A0DED4CE2
:061BDB00700312229322A8
:10000E00438E805389F0758ACD758CD4C28DD28C77
:05001E00D2A9D2AF22BF
:03000B00021C6A6A
:101C6A00C0E0C0F0C083C082C0D075D01090053CDF
:101C7A00E02401FF90053BE03400FE7C0B7DB812A6
:101C8A000A0DECF0FEA3EDF0FF7C037DE8120A0DCD
:101C9A00ED4C7002B2CDD0D0D082D083D0F0D0E05B
:011CAA003207
:05228E003443101001B3
:0A1F0B00EBF0A3EAF0A3E9F0C290A6
:101F1500E4FEEF30E704D2918002C291EF25E0FFA5
:0F1F2500D2933092034401FFC2930EEEB408E34F
:011F3400228A
:10219D007F027E00122055C294D290C293D2C722E4
:0C221800C290121F15E4FF121F15D29097
:012224002297
:0E2036001220447D407F251220447D077F2626
:10204400C290121F15AC07AF05121F15D290AF0432
:012054002269
:031D920090044F6B
:101D9500121F0BAD07E4FC900452E0FFECC39F500B
:101DA5001CE4FF121F1590044FE0FBA3E0FAA3E02B
:101DB500F98C82758300EF1209EB0C80DAD290AFB3
:011DC5000518
:011DC60022FA
:031DC70090044E37
:101DCA00121F0BAD07E4FC900451E0FFECC39F50D7
:101DDA001A90044EE0FBA3E475F001120A98A9F0E8
:0F1DEA00FA120993FF121F150C80DCD290AF057F
:011DF90022C7
:1019B700900538EBF0A3EAF0A3E9F0C2947BFF7A35
:1019C70022798E9004517405F07F30121DC790055F
:1019D70038E0FBA3E0FAA3E0F99004517404F07F28
:1019E700A0121DC77D017F211220447F22122044AF
:1019F7007D0A7F241220367D0E7F20122044D29448
:071A07007F057E000220555F
:101CAB00C2947BFF7A22798E9004517405F07F2ABF
:101CBB00121DC77D037F211220447F221220440D69
:101CCB007F311220447F321220447F331220367D25
:0F1CDB000F7F20122044D2947F057E00022055F7
:102146007F071222188F203005077DFF7F27122078
:02215600442221
:101CEA00E490044DF07F071222188F20300629E570
:101CFA0020540EC29470117B017A057933900452F4
:101D0A007404F07F61121D927DFF7F27122044C266
:081D1A00907FE2121F15D29028
:011D2200229E
:101B5800C1114104FA004104F4014504F57F0E0067
:021B6800A000DB
:1020C400E5A2543FF5A275985075D7E075D6FE7514
:0A20D4008E14438E01D2ACD2AF226D
:03002300021F5F5A
:101F5F00C0E0C0F0C083C082C0D075D008309805F3
:101F6F00C29812195E309904C299C211D0D0D08292
:071F7F00D083D0F0D0E03266
:092254002011FDEFD211F59922D1
:0B1F350090044CEBF0A3EAF0A3E9F0ED
:101F4000E4FE90044CE0FBA3E0FAA3E0F98E827576
:0E1F500083001209ACFF60061222540E80E4DA
:011F5E002260
:072275007B017A0479FB22D2
:06227C009004FAE0FF22CD
:062282009004F4E0FF22CD
:0F21DD00EFB40105E49004FAF09004F4EFF0225F
:10195E00E4FE122282EF6401704EAE999004FAE01A
:10196E00FFC39405501774F52FF582E43404F58304
:10197E00E06E6009E49004FAF07FFF80289004FA8C
:10198E00E0FFC39405400C74F62FF582E43404F5A1
:10199E0083EEF09004FAE004F0E0D3940F4009E0F7
:0819AE0024FBF0E4FF1221DD2F
:0119B600220E
:1020F600E490044CF0121CAB121CEA7B017A0579C1
:06210600337D04021431D8
:10210C00120DE3121E8A7B017A0579197D031216D2
:04211C0056021DFA50
:09225D00122275120C86021FD337
:03229300021EB573
:100EFD005B25643A25643A25645D002D2D77656C7C
:100F0D006C636F6D2D2D2D2D2D7573652D2D2D2D47
:100F1D0057494D492D4445562D006125642C6225B8
:100F2D00642C6325642C642564002D54494D452D96
:100F3D004E4F572D004F50454E2D54494D452D00C8
:100F4D002D4F46462D54494D452D00535550504F6C
:100F5D0052542D49442D434152442D4F4E4C59214D
:100F6D00004E4F2E25642D4F55542D3B6E756D62E1
:100F7D0065722069732E25642E002D2D46554C4C1F
:100F8D002D2D002D2D63616C6C6D652D2D31333044
:100F9D003737363631353934004E4F2E25642D49CD
:100FAD004E2D3B6E756D626572206973A1A325642C
:100FBD00A1A3004245452D454E41424C452D2D2DB9
:100FCD002D4F4E2D2D2D2D004245452D454E414287
:100FDD004C452D2D2D2D4F46462D2D2D002D2D2DD6
:100FED004C494748542D2D0025643A25632D2D007D
:100FFD0063617368636172640000000000000000AB
:04100D0000000000DF
:101B6A0041050B004105180041050C0041050D0017
:021B7A00C19216
:101D2300C2A612217B7D0A7F84121FF67D367F8235
:101D3300121FF67D1E7F80121FF6122249122016F3
:101D430012223EE4900515F0A3F0A3F090051FF0D6
:091D5300A3F0A3F07F03020003DA
:10143100900450EDF090044DEBF0A3EAF0A3E9F035
:10144100E4FE12099324D0900451F0900533E0603A
:101451007C7C01900450E0C36480F8EC6480985077
:101461002390044DE0FBA3E0FAA3E0F9ECF582330D
:1014710095E0F5831209AC24D0FFEE75F00AA42F94
:10148100FE0C80CF900451E0FFB40107900519EEE6
:10149100F08030EFB4020790051AEEF08025900439
:1014A10051E0FFB4030790051BEEF08016EFB40482
:1014B1000790051CEEF0800B7C05900533E4F0A34A
:0D14C100DCFC227C05900533E4F0A3DCFC8C
:0114CE0022FB
:101E8A007B017A04794C12137E7B017A04794C1215
:101E9A0016D390044EE0900510F090044DE09005A2
:0A1EAA0011F090044CE0900512F0D6
:011EB400220B
:0B17490090046AEBF0A3EAF0A3E9F0C3
:1017540090049074FFF0A3740EF0A374FDF0900451
:101764006AE0FBA3E0FAA3E0F99000021209ACFFDF
:10177400900493E4F0A3EFF09000031209ACFF90FF
:101784000495E4F0A3EFF09000041209ACFF900478
:1017940097E4F0A3EFF07B017A04797012057B9053
:1017A400046DE0FBA3E0FAA3E0F9E4FD121AB77BB1
:0A17B400017A0479707DFF021AB774
:101C2600900518E0703DC208122232BF0F169005CB
:101C36000BE004F0E0C394074002E4F07F011200D9
:101C46000312223EC208122232BF0B1790050BE088
:101C560014F0E0D3940640037406F07F01120003EB
:041C660012223E22E6
:100DE300121C2690050BE070087BFF7A0F790880B0
:100DF3005A90050BE06401705990049074FFF0A3BE
:100E0300740FF0A37427F0900519E0FF900493E4A6
:100E1300F0A3EFF090051AE0FF900495E4F0A3EF40
:100E2300F090051BE0FF900497E4F0A3EFF090052A
:100E33001CE0FF900499E4F0A3EFF07B017A0479BE
:100E43004C12057B7B017A04794CE4FD121AB7023C
:100E53000EF890050BE0B40222900518E07017908D
:100E6300046D74FFF0A3740FF0A37437F07B017A61
:100E730005790E121749121EE0807A90050BE0B433
:100E830003257B017A05791D120AF4900518E07099
:100E93006490046D74FFF0A3740FF0A37442F07BAD
:100EA300017A05791D802A90050BE0B404287B01A3
:100EB3007A057913120AF4900518E0703890046DDE
:100EC30074FFF0A3740FF0A3744DF07B017A0579DE
:100ED30013121749801F90050BE0B4050E900518F7
:100EE300E07003121E2D12155B800A90050BE0B40F
:0A0EF30006031212C9D208022232CF
:0B0C860090044CEBF0A3EAF0A3E9F0AF
:100C9100E4A3F012227C900450EFF0E490045BF0A6
:100CA100A3F0785D7C047D017BFF7A0F79FDFE7FE7
:100CB1001412094B122282EF64017003020DE21239
:100CC100223E122282EFF4701F7F0512000390046E
:100CD1009074FFF0A3740FF0A37458F07B017A04B1
:100CE100795D12057B020DD27F02120003E49004AC
:100CF1004FF0900450E0FF90044FE0FEC39F50413D
:100D0100EEC39F502090044CE0FBA3E0FAA3E0F96E
:100D11008E827583001209ACFF74512EF582E43482
:100D210004F583EFF090044CE0FBA3E0FAA3E0F9B3
:100D31008E82758300E41209EB90044FE004F08089
:100D4100B17B017A0479511217BE90045CEFF0F483
:100D5100602190050CE014F090045CE0FF12228801
:100D610090049074FFF0A3740FF0A3746EF09004DC
:100D71005C803E7B017A047951121A0E90045BEF7C
:100D8100F0BFFF167BFF7A0F7987E4FD121AB77B5C
:100D9100FF7A0F79907DFF021AB790050CE004F0FD
:100DA10090049074FFF0A3740FF0A374A6F0900464
:100DB1005BE0FF900493E4F0A3EFF090050CE0FFFB
:100DC100900495E4F0A3EFF07B017A04795D1205BC
:100DD1007B7B017A04795DE4FD121AB77F01122150
:010DE100DD34
:010DE20022EE
:0800030090050DEFF0021EB59F
:101EB50090050DE0FFD364809480401C301210EF34
:101EC50075F002120971AFF0EF6004D2A68002C26C
:0B1ED500A690050DE014F022C2A6222A
:101E2D0090049074FF30120AF0A3740FF0A374C0E5
:101E3D008008F0A3740FF0A374D5F07B017A0479B8
:0F1E4D006A12057B7B017A04796AE4FD021AB7F9
:1012C900E4900488F090049074FFF0A3740FF0A3E5
:1012D90074EAF07B017A04796A12057B7B017A044E
:1012E900796AE4FD121AB7E4900488F0900488E062
:1012F900FFC364809483507CEF3395E0FE74252FFF
:10130900F58274053EF583E0900490602574FFF042
:10131900A3740FF0A374F5F0900488E03395E0FE10
:10132900EF2401FFE43E900493F0A3EFF0A3744F80
:10133900802474FFF0A3740FF0A374F5F09004886F
:10134900E0FF3395E0FEEF2401FFE43E900493F0C3
:10135900A3EFF0A37458F07B017A04796A12057B34
:101369007B017A04796A7DFF121AB7900488E00438
:04137900F00212F577
:01137D00224D
:0F21AD00EF7F08A2E09286D285C285C313DFF4CC
:0121BC002200
:0F21BD007F08C313A28692E7D285C285DFF4FFA5
:0121CC0022F0
:10216A00C287C285D2871221ADAF051221ADC287BF
:01217A002242
:10212000C287C285D287EF4401FF1221AD1221BDC3
:02213000C28764
:01213200228A
:0F21EC003008047D108002E4FD7F8E12216A22EC
:101FF600AE05AC07C2081221ECAF04EE75F00A84F8
:10200600C454F0FDEE75F00A84E5F04DFD02216A38
:10137E007F80122120EF5470C4540F75F00AA4FE22
:10138E00EF540F2E1209D97F82122120EF5470C410
:10139E00540F75F00AA4FEEF540F2E90000112099F
:1013AE00EB7F84122120EF5470C4540F75F00AA401
:1013BE00FEEF540F2E9000021209EB7F86122120B1
:1013CE00EF5470C4540F75F00AA4FEEF540F2E9014
:1013DE0000041209EB7F8A122120EF5470C4540FBF
:1013EE0075F00AA4FEEF540F2E9000031209EB7F46
:1013FE0088122120EF5470C4540F75F00AA4FEEF2A
:10140E00540F2E9000051209EB7F8C122120EF5401
:10141E0070C4540F75F00AA4FEEF540F2E90000600
:03142E000209EBC5
:1015D9009000061209AC75F00A849000071209EB15
:1015E9009000061209AC75F00A84900008E5F01223
:1015F90009EB900009742D1209EB9000051209AC52
:1016090075F00A8490000A1209EB9000051209ACE2
:1016190075F00A8490000BE5F01209EB90000C7448
:101629002D1209EB9000041209AC75F00A849000A0
:101639000D1209EB9000041209AC75F00A849000B0
:0D1649000EE5F01209EB90000FE40209EB32
:1016D3009000021209AC75F00A849000101209EB15
:1016E3009000021209AC75F00A84900011E5F01223
:1016F30009EB900012743A1209EB9000011209AC45
:1017030075F00A849000131209EB9000011209ACE2
:1017130075F00A84900014E5F01209EB900015743B
:101723003A1209EB120993FF75F00A84900016121E
:1017330009EBEF75F00A84900017E5F01209EB90BE
:06174300000FE40209EBB7
:10217B007F80122120EF30E707E4FD7F80121FF6EE
:01218B002231
:1000260000E010080810E000000F102020100F005C
:1000360000001010F8000000000020203F202000E3
:10004600007008080808F00000302824222130003B
:1000560000300808088870000018202121221C00A2
:100066000000804030F8000000060524243F2424C8
:1000760000F88888880808000019202020110E0042
:1000860000E0108888900000000F112020201F003B
:1000960000180808886818000000003E01000000EB
:1000A6000070880808887000001C222121221C008C
:1000B60000F008080810E0000001122222110F00CB
:1000C600000000C0C000000000000030300000004A
:1000D6000000008000000000000000E000000000BA
:1000E60000008040201008000001020408102000D3
:1000F600004040404040400000020202020202006E
:1001060000081020408000000020100804020100B2
:1001160000704808088870000000003037000000B2
:10012600C030C828E810E000071827282F28170035
:100136000000C038E0000000203C230202273820DF
:1001460008F8888888700000203F202020110E00C3
:10015600C0300808080838000718202020100800BA
:1001660008F808080810E000203F202020100F00A3
:1001760008F88888E8081000203F2020232018006F
:1001860008F88888E8081000203F200003000000D7
:10019600C03008080838000007182020221E020078
:1001A60008F808000008F808203F210101213F2037
:1001B600000808F8080800000020203F2020000062
:1001C60000000808F8080800C08080807F00000052
:1001D60008F888C028180800203F2001263820008B
:1001E60008F8080000000000203F202020203000F2
:1001F60008F8F800F8F80800203F013E013F20000B
:1002060008F830C00008F808203F200007183F0013
:10021600E01008080810E0000F10202020100F0042
:1002260008F808080808F000203F21010101000035
:10023600E01008080810E0000F10282830504F0082
:1002460008F8888888887000203F2000030C30203A
:1002560000708808080838000038202121221C0078
:10026600180808F8080818000000203F20000000C1
:1002760008F808000008F808001F202020201F00AA
:100286000878880000C83808000007380E0100000A
:1002960008F800F800F8080000033E013E030000DD
:1002A600081868808068180820302C03032C30203A
:1002B6000838C800C83808000000203F20000000A9
:1002C60010080808C8380800203826212020180001
:1002D600000000FE020202000000007F40404000D5
:1002E60000000000C038040000601807000000008D
:1002F60000020202FE000000004040407F000000B5
:1003060000000402020400000000000000000000DB
:1003160000000000000000000001010101010100D1
:1003260000020204000000000000000000000000BF
:10033600000080808000000000192424123F200065
:1003460010F0008080000000003F112020110E00F8
:100356000000008080800000000E11202020110087
:10036600000080808090F000001F202020103F2099
:100376000000808080800000001F242424241700B1
:10038600008080E0909020000020203F2020000088
:100396000000808080808000006B949494936000BD
:1003A60010F0008080800000203F210000203F20C8
:1003B60000809898000000000020203F20200000C8
:1003C600000000809898000000C08080807F0000B8
:1003D60010F0000080808000203F24062930200095
:1003E600001010F8000000000020203F2020000030
:1003F6008080808080808000203F20003F20003F5A
:100406008080008080800000203F210000203F2067
:100416000000808080800000001F202020201F0018
:10042600808000808000000080FF912020110E0057
:100436000000008080008000000E11202091FF80C7
:10044600808080008080800020203F2120000100E5
:10045600000080808080800000332424242419003A
:10046600008080E0808000000000001F2020100037
:100476008080000000808000001F202020103F2088
:10048600808080008080800000030C300C03000018
:100496008080008080008080010E300C07380601C5
:1004A60000808080008080000020310E2E312000E8
:1004B6008080800000808080008186781806010098
:1004C60000808080808080000021302C2221300036
:1004D6000000000000FC020200000000013E404057
:1004E600000438C000000000000000010638C0000B
:1004F6000202FC000000000040403E010000000037
:1005060000020102020402000000000000000000D8
:041B7C004104D5004B
:0E21FB00E4FFFE0FBF00010EBE01F8BFF4F5B9
:0122090022B2
:101BE10075F010EBA42CF582E435F0F583E5822441
:0E1BF10026F582E5833400F583E493FF7D0141
:101BFF00C2C4ED24FF92A0E4FEEF30E704D2A1802F
:101C0F0002C2A1EF25E0FFC2A2D2A20EEEB408E9F4
:061C1F00D2A0D2C4D2A144
:011C2500229C
:10201600C2C31221FBD2C3E4FD7F21121BFF7FD076
:10202600121BFF7F20121BFF7F0C121BFF021FAD2E
:10215800AC07ED4440FFE4FD121BFFEC4480FF0296
:022168001BFF5B
:10207300E4FDFF122158E4FCE4FB7D01E4FF121BA5
:0B208300FF0BEBB454F40CECB406EDC2
:01208E00222F
:041E5C00A907AA0523
:101E6000E975F008A4FF122158E4FC121BE10CEC08
:101E7000B408F8E975F008A4FFEA04FD1221587CC3
:091E800008121BE10CECB410F88F
:011E89002236
:041D5C00AB05AA0722
:101D6000EA75F008A4FF122158E4FC7D01E4FF129B
:101D70001BFF0CECB408F4EA75F008A4FFEB04FDBB
:101D80001221587C087D01E4FF121BFF0CECB410FB
:011D9000F45E
:011D9100222F
:101FAD00E4FFEFFD3395E0FC74D62DF58274043C0F
:101FBD00F583E4F074B72DF58274043CF583E4F0F9
:051FCD000FEFB41EDD62
:011FD20022EC
:0B110C0090048DEBF0A3EAF0A3E9F0E3
:10111700E4900493F0A3F0A3F0900493F090049369
:10112700E0FFC3941E40030211FAEF75F00A84E54D
:10113700F0701AE0D394004014900495E02402F074
:10114700E075F00584E5F0F0E4900494F090048DE8
:10115700E0FBA3E0FAA3E0F9900493E0FFF58275C2
:1011670083001209ACFE900490E0FBA3E0FAA3E031
:10117700F98F827583001209ACB506028066900468
:1011870093E0FF900490E0FBA3E0FAA3E0F98F82DD
:10119700758300EE1209EB90048DE0FBA3E0FAA340
:1011A700E0F9900493E0F5827583001209ACFFC360
:1011B700648094B04023EF648094FF501C900494A3
:1011C700E0FFA3E0FD900493E0F582758300120928
:1011D700AC24D0FB121E5C800B900494E0FFA3E0CC
:1011E700FD121D5C900494E004F0900493E004F079
:0311F700021124BE
:0111FA0022D2
:0B223E00121FADE49004D5F0022073E5
:101AB700C3ED6480948040059004D5EDF01209933E
:101AC700FF60259004D5E024D6F582E43404F5833D
:101AD700EFF0740129F9E43AFA9004D5E004F075BF
:101AE700F01E84E5F0F080D59004907401F0A374A3
:0F1AF70004F0A374B7F07B017A0479D602110CC6
:0822660070B0D0E0070B0D0E73
:101B0600E4A29533C43333335480FFE4A29633C43E
:101B1600333354C04FFFE4A29733C43354E04FFF2E
:101B2600E4A2CC33C454F04FFFE4A2B433333333CE
:101B360054F84FFFE4A2B33325E025E04FFFE4A2BB
:0C1B4600B23325E04FFFE4A2C0334FFF94
:011B52002270
:1011FB0090044C74FFF0E4FDA3F0A3F0A3F078503F
:10120B007C040D7BFF7A227966FE7F0412094B78F2
:10121B00547C047D017BFF7A22796A7E007F041265
:10122B00094BD295D296D297D2CCC2B4C2B3C2B22A
:10123B00C2C0121B06AD07EDB4F0037FFF22C295AF
:10124B00C296C297C2CCD2B4D2B3D2B2D2C0121B06
:10125B000690044DEFF0640F6061E4A3F090044E30
:10126B00E0FFC39404501674502FF582E43404F558
:10127B0083E06D600890044EE004F080E0E490049D
:10128B004FF090044FE0FFC39404501B74542FF5A0
:10129B0082E43404F583E0FF90044DE06F60089026
:1012AB00044FE004F080DB90044FE025E025E0FFE5
:0D12BB0090044EE02FFF90044CF0227FFFC6
:0112C8002203
:10218C00000102FF030405FF060708FF09FFFFFF1C
:01219C00FF43
:081B800041053EFF41053DFF58
:101FD300E4FF1211FBEFF4600690053EEFF0229050
:101FE300053EE0FFF4600590053DEFF090053E747B
:021FF300FFF0FD
:011FF50022C9
:0B22320090053DE0FF30080374FFF052
:01223D00227E
:10213300EF3395E0FE748C2FF58274213EF583E432
:0221430093FF08
:012145002277
:012299002222
:0A2249007F649003E8E4F0A3DFFCDB
:012253002268
:1020DE00E4FF74E82FF582E43403F583E070012207
:0720EE000FEFB464ED7FFF6A
:0120F50022C8
:0D22250074E82FF582E43403F583E4F02221
:0E220A0074E82FF582E43403F5837401F022AA
:0B1A0E00900471EBF0A3EAF0A3E9F0F4
:101A1900E4FE1220DEAD07EDB4FF037FFF22E4FEF2
:101A2900900471E0FBA3E0FAA3E0F98E82758300CC
:101A39001209ACFF75F00AEDA42400F582E5F03433
:101A490000F583E5822EF582E43583F583EFF00E08
:091A5900EEB40ACCAF0512220A1A
:011A62002261
:0B17BE00900471EBF0A3EAF0A3E9F047
:1017C900E4A3F0FFFE74E82FF582E43403F583E027
:1017D900604BE4900474F0FE900471E0FBA3E0FA1E
:1017E900A3E0F98E827583001209ACFD75F00AEF4A
:1017F900A42400F582E5F03400F583E5822EF58214
:10180900E43583F583E06D600890047474FFF0801B
:10181900050EEEB40AC2900474E07001220FEFB411
:0418290064A37FFF36
:01182D002298
:0F21CD001217BEEFB4FF037FFF221222257F00FF
:0121DC0022E0
:062288001222257F002256
:1018FE00696E707574686F75723A3D256400696E15
:10190E007075746D696E3A3D256400696E707574FC
:10191E007365633A3D2564002D2D2D2D2D2D2D2D16
:10192E002D2D57616974696E67005345542D2D42F4
:10193E0045452D2D2D2D4F4E2D2D2D2D005345541E
:10194E002D2D4245452D2D2D2D4F46462D2D2D004D
:041B880041053200E1
:0B0AF40090046AEBF0A3EAF0A3E9F025
:100AFF00C20812223290048BEFF0A374FFF090051E
:100B0F0018E0701890048BE0B403117F01120003FA
:100B1F009005187401F090048B74FFF0900518E0A5
:100B2F006401706512223E12189E90048CEFF090B3
:100B3F00049074FFF0A37418F0A374FEF0EF3395D4
:100B4F00E0A3F0A3EFF07B017A04796D12057B7BB4
:100B5F00017A04796DE4FD121AB790048BE0B403A7
:100B6F00287F011200039005187402F090048CE0A6
:100B7F00FF90046AE0FBA3E0FAA3E0F9900002EF14
:100B8F001209EB90048B74FFF0900518E06402706B
:100B9F006512223E12189E90048CEFF09004907410
:100BAF00FFF0A37419F0A3740CF0EF3395E0A3F0EA
:100BBF00A3EFF07B017A04796D12057B7B017A0438
:100BCF00796DE4FD121AB790048BE0B403287F010E
:100BDF001200039005187403F090048CE0FF90044A
:100BEF006AE0FBA3E0FAA3E0F9900003EF1209EB30
:100BFF0090048B74FFF0900518E064037076122256
:100C0F003E12189E90048CEFF090049074FFF0A3A6
:100C1F007419F0A37419F0EF3395E0A3F0A3EFF07C
:100C2F007B017A04796D12057B7B017A04796DE47F
:100C3F00FD121AB790048BE0640370387F01120025
:100C4F0003E4900518F090048CE0FF90046AE0FB39
:100C5F00A3E0FAA3E0F9900004EF1209EB90048BE4
:100C6F0074FFF012223E7BFF7A197926E4FD121AE7
:060C7F00B77F00227FFF99
:010C8500224C
:101EE0007B017A05792D120AF4EF701E90052FE020
:101EF000FD7F84121FF6900530E0FD7F82121FF6F1
:0B1F0000900531E0FD7F80121FF622EB
:03229600020AF445
:10189E00C20812223290048DEFF0F4601BE0FF12AA
:1018AE002133EFF4601290048DE0FF122133900586
:1018BE0032E075F00AA42FF090048DE0B40E2B9058
:1018CE000532E0FF75F00A120971AEF0EEFD3395A8
:1018DE00E0FCEF3395E0FEC3EF9DFFEE9CFE7C0037
:0F18EE007D0A120A62900532EFF0900532E0FF9A
:0118FD0022C8
:10155B00C208122232900488EFF0BF0312900518D4
:10156B00E0700C7404F012223E90048874FFF0902B
:10157B000518E064047056900488E0FFB40F02B2C3
:10158B0012EFB40B02B21290049074FF30120AF0F7
:10159B00A37419F0A374388008F0A37419F0A37422
:1015AB004BF07B017A04796A12057B7B017A047913
:1015BB006AE4FD121AB7900488E0B40310E49005B6
:0D15CB0018F090048874FFF07F03120003F5
:0115D80022F0
:0E1B8C0041052400C1934105230541052204B3
:101A6300D2C6D2C5D2A7E4900525F0A3F0A3F0A374
:101A7300F0D3EF64809480400DA3E06009C2C69068
:101A830005257401F01FD3EF64809480400F900507
:101A93002AE06009C2C59005267401F01FD3EF64E4
:101AA300809480400E90052BE06008C2A790052724
:041AB3007401F022A8
:101DFA0090044F7401F0A37405F0A37413F0A37454
:101E0A0001F0A37405F0A3741DF07B017A05790E25
:101E1A0012182E90050CE0FF12208F900524E0FF87
:031E2A00021A6336
:0B16560090044CEBF0A3EAF0A3E9F0D5
:10166100E4FF900524F0EFC39D506690044CE0FB2D
:10167100A3E0FAA3E0F98F827583001209ACFE9012
:101681000523E0D36480F8EE648098401374292F19
:10169100F582E43405F5837401F0900524E004F04B
:1016A10090044CE0FBA3E0FAA3E0F98F827583007C
:1016B1001209ACFE900522E0D36480F8EE648098B4
:1016C100500C74292FF582E43405F583E4F00F8082
:0116D1009583
:0116D20022F5
:10101100900452E0F9A3E0FAA3E0900458C9F0A3C8
:10102100EAF0A3E9F090044CE0FBA3E0FAA3E0F9B5
:10103100900455EBF0A3EAF0A3E9F0A3E0FBA3E0F1
:10104100FAA3E0F99000021209ACFE900455E0FB0E
:10105100A3E0FAA3E0F99000021209ACFDD39E408F
:10106100037F0122EDB5062A900458E0FBA3E0FAC4
:10107100A3E0F99000031209ACFF900455E0FBA333
:10108100E0FAA3E0F99000031209ACD39F40037F7B
:101091000122900458E0FBA3E0FAA3E0F9900002DA
:1010A1001209ACFF900455E0FBA3E0FAA3E0F9902C
:1010B10000021209AC6F7050900458E0FBA3E0FAF3
:1010C100A3E0F99000031209ACFF900455E0FBA3E3
:1010D100E0FAA3E0F99000031209ACB5072A9004E5
:1010E10058E0FBA3E0FAA3E0F99000041209ACFF79
:1010F100900455E0FBA3E0FAA3E0F9900004120983
:0B110100ACD39F40037F01227FFF2240
:10182E0090044CEBF0A3EAF0A3E9F0900452E0F937
:10183E00A3E0FAA3E0900458C9F0A3EAF0A3E9F0FC
:10184E0090044F121029D3EF64809480401E121022
:10185E0011D3EF64809480401190044F121014C382
:10186E00EF64809480501EC213228019121011C38F
:10187E00EF64809480501690044F121014D3EF64CE
:10188E008094804008D213E4900524F022C21322E3
:10208F00201317900524E0FD3395E0FCEFD39DEC72
:0B209F006480F87480985002EFF0227B
:030000000214CF18
:0C14CF00787FE4F6D8FD75812202151626
:10087B00E709F608DFFA8046E709F208DFFA803E5F
:10088B0088828C83E709F0A3DFFA8032E309F6084C
:10089B00DFFA8078E309F208DFFA807088828C83B4
:1008AB00E309F0A3DFFA806489828A83E0A3F60868
:1008BB00DFFA805889828A83E0A3F208DFFA804C42
:1008CB0080D280FA80C680D4806980F28033801019
:1008DB0080A680EA809A80A880DA80E280CA803382
:1008EB0089828A83ECFAE493A3C8C582C8CCC583FA
:1008FB00CCF0A3C8C582C8CCC583CCDFE9DEE780CA
:10090B000D89828A83E493A3F608DFF9ECFAA9F048
:10091B00EDFB2289828A83ECFAE0A3C8C582C8CC9E
:10092B00C583CCF0A3C8C582C8CCC583CCDFEADEB7
:10093B00E880DB89828A83E493A3F208DFF980CC19
:10094B0088F0EF60010E4E60C388F0ED2402B40412
:10095B000050B9F582EB2402B4040050AF232345B9
:06096B0082239008CB730B
:10097100C2D530F707B2D563F0FF05F030E70CB20E
:10098100D5F4048463F0FF05F080018430D502F4CE
:0209910004223E
:10099300BB010689828A83E0225002E722BBFE0262
:0909A300E32289828A83E4932295
:1009AC00BB010CE58229F582E5833AF583E0225000
:1009BC0006E92582F8E622BBFE06E92582F8E2224A
:0D09CC00E58229F582E5833AF583E4932264
:1009D900BB010689828A83F0225002F722BBFE01FD
:0209E900F322F7
:1009EB00F8BB010DE58229F582E5833AF583E8F042
:1009FB00225006E92582C8F622BBFE05E92582C8EE
:020A0B00F222D5
:100A0D00BC000BBE0029EF8DF084FFADF022E4CCCD
:100A1D00F875F008EF2FFFEE33FEEC33FCEE9DEC96
:100A2D00984005FCEE9DFE0FD5F0E9E4CEFD22EDDC
:100A3D00F8F5F0EE8420D21CFEADF075F008EF2F26
:100A4D00FFED33FD4007985006D5F0F222C398FD17
:050A5D000FD5F0EA22B4
:100A6200C2D5EC30E709B2D5E4C39DFDE49CFCEEAF
:100A720030E715B2D5E4C39FFFE49EFE120A0DC310
:100A8200E49DFDE49CFC8003120A0D30D507C3E40B
:060A92009FFFE49EFE221E
:100A9800A3F8E0C5F025F0F0E58215827002158311
:060AA800E0C838F0E8226E
:10051600E5182490F582E43404F583E0051822906A
:10052600048D300F03900490E475F001120AAE02B8
:1005360009932008E97F2ED2088018EF540F2490E3
:10054600D43440D4FF300C0BEF24BFB41A00500350
:100556002461FFE51960021519051CE51C700205EA
:100566001B300F0E90048DE475F001120AAEEF02F7
:1005760009D9021F867403D20F8003E4C20FF5184F
:1005860090048D120AC5E4F519F51BF51CE51960F2
:10059600077F2012055980F5751AFFC209C208C2E5
:1005A6000AC20BC20DC20EC210120525FF700D3015
:1005B6000F057F0012056AAF1CAE1B22B4255FC271
:1005C600D5C20C120525FF24D0B40A00501A75F0C6
:1005D6000A781930D50508B6FF0106C6A426F62006
:1005E600D5047002D20B80D924CFB41A00EF500480
:1005F600C2E5D20C02076BD20980C6D20880C0D2EF
:100606000A80BCD2D580BAD20D80B47F201205599B
:10061600200A077401B5190040F1120516FF1205EC
:1006260059020593D210D20E8095120516FB1205BB
:1006360016FA120516F94A4B7006793C7A087BFFC2
:10064600200A2EE519602A7E008E82758300120923
:10065600AC60060EEE651A70F0C2D5EBC0E0EAC0DB
:10066600E0E9C0E0EE1207B2D0E0F9D0E0FAD0E05F
:10067600FB120993FF60AAEBC0E0EAC0E0E9C0E024
:10068600120559D0E02401F9D0E03400FAD0E0FB9D
:10069600E51A0460DCD51AD980877BFF7A0779AE24
:1006A600D20A809C791080027908C20EC210800896
:1006B600D2D5790A8004790AC2D5E51A047002F502
:1006C6001AE4FAFDFEFF120516FC7B082009131238
:1006D6000516FD7B1030080A120516FE120516FFD8
:1006E6007B20EC3382D592D55013C3E43008069FA5
:1006F600FFE49EFEE42009039DFDE49CFCE4CBF8A8
:10070600C209EC700CCFCECDCCE824F8F870F3809B
:1007160017C3EF33FFEE33FEED33FDEC33FCEB3363
:10072600FB994002FB0FD8E9EB300905F8D0E0C48D
:1007360048B209C0E00AEC4D4E4F78207B0070C2EB
:10074600EAB51A0040BCC0E01207B4D0F0D0E020F1
:100756000904C4C0E0C4B209C0F0120542D0F0D505
:10076600F0EB020593120ACE06305306AA5806018C
:100776004C05FD4206AE4F06B64406B6490616437C
:0807860006BC5506A04606A0C2
:10078E004506A047085C5006052D06092E062C2BA3
:10079E00060D23062A2008452A05C5480000062412
:1007AE003F3F3F00790AA2D5200B14300D09B91036
:1007BE00020404B9080104A2D5200E02500104203F
:1007CE000A68920AB519005034C0E07F20300B1928
:1007DE007F30A20A720E720D500F12080BC20AC29F
:1007EE000EC20DC2107F30800F300D03E9C0E01233
:1007FE000559300D03D0E0F9D0E0B519CC300D1706
:10080E007F30B9100C1205597F58300C077F788055
:10081E0003B90803120559300A057F2D0205597FC9
:10082E00202010F87F2B200EF322920A80CF286E04
:10083E00756C6C2900D2091205163009F8C20978B8
:10084E001930D50108F60205C52D50434958120539
:10085E00162403B405004001E49008579312054A8C
:0D086E00743A12054AD20B7519040206AA4D
:1014DB000220AAE493A3F8E493A34003F68001F25D
:1014EB0008DFF48029E493A3F85407240CC8C33312
:1014FB00C4540F4420C8834004F456800146F6DFE1
:10150B00E4800B0102040810204080901B53E47E02
:10151B00019360BCA3FF543F30E509541FFEE493D5
:10152B00A360010ECF54C025E060A840B8E493A39C
:10153B00FAE493A3F8E493A3C8C582C8CAC583CAC7
:10154B00F0A3C8C582C8CAC583CADFE9DEE780BE7F
:011B9A00004A
:100AAE00F8E0FBA3A3E0F925F0F0E58215827002D1
:070ABE001583E0FA38F02275
:090AC500EBF0A3EAF0A3E9F02232
:100ACE00D083D082F8E4937012740193700DA3A3B7
:100ADE0093F8740193F5828883E4737402936860CB
:060AEE00EFA3A3A380DFCB
:101F8600EFB40A07740D121F91740A309811A899BC
:101F9600B8130CC2983098FDA899C298B811F630BB
:071FA60099FDC299F5992293
:00000001FF
