:101BFB00D3EF9400EE940040147D6E7C00ED1D70CD
:0D1C0B00011CED4C70F7EF1F70E61E80E32A
:011C180022A9
:071E0B00696E69740D0A0005
:0519CC0042050C0000C3
:101C3500121C4F121D2512000E121ADB7BFF7A1E95
:0A1C4500790B121AB11219FE80FB90
:1019FE00121C8190050CE0FEA3E0FF7C037DE81233
:101A0E000A0DED4C7003121DF090050CE0FEA3E0E4
:101A1E00FF7C007D64120A0DED4C7003121DF9223D
:10000E00438E805389F0758ACD758CD4C28DD28C77
:05001E00D2A9D2AF22BF
:03000B00021810C8
:10181000C0E0C0F0C083C082C0D075D01090050D6C
:10182000E02401FF90050CE03400FE7C0B7DB81233
:101830000A0DECF0FEA3EDF0FF7C037DE8120A0D2B
:10184000ED4C7002B2CDD0D0D082D083D0F0D0E0B9
:011850003265
:051E2B0034431010011A
:0A1A8700EBF0A3EAF0A3E9F0C2902F
:101A9100E4FEEF30E704D2918002C291EF25E0FF2E
:0F1AA100D2933092034401FFC2930EEEB408E3D8
:011AB0002213
:101D25007F027E00121BFBC294D290C293D2C722BF
:0C1D9F00C290121A91E4FF121A91D29027
:011DAB002215
:0E1BDC00121BEA7D407F25121BEA7D077F2643
:101BEA00C290121A91AC07AF05121A91D290AF04A3
:011BFA0022C8
:0318C90090044F39
:1018CC00121A87AD07E4FC900452E0FFECC39F5062
:1018DC001CE4FF121A9190044FE0FBA3E0FAA3E082
:1018EC00F98C82758300EF1209EB0C80DAD290AF81
:0118FC0005E6
:0118FD0022C8
:0319660090044E9C
:10196900121A87AD07E4FC900451E0FFECC39F50C5
:101979001A90044EE0FBA3E475F001120A98A9F04D
:0F198900FA120993FF121A910C80DCD290AF056D
:01199800222C
:10168B00900506EBF0A3EAF0A3E9F0C2947BFF7A96
:10169B001E792B9004517405F07F3012196690055A
:1016AB0006E0FBA3E0FAA3E0F99004517404F07F89
:1016BB00A01219667D017F21121BEA7F22121BEA01
:1016CB007D0A7F24121BDC7D0E7F20121BEAD29435
:0716DB007F057E00021BFBEE
:10185100C2947BFF7A1E792B9004517405F07F2A84
:101861001219667D037F21121BEA7F22121BEA0DEA
:101871007F31121BEA7F32121BEA7F33121BDC7DA0
:0F1881000F7F20121BEAD2947F057E00021BFB13
:101CBD007F07121D9F8F203005077DFF7F27121B89
:021CCD00EA2209
:10189000E490044DF07F07121D9F8F20300629E54C
:1018A00020540EC29470117B017A05790190045284
:1018B0007404F07F611218C97DFF7F27121BEAC2F2
:0818C000907FE2121A91D29010
:0118C80022FD
:0A19D100C1114104F0004104EF01D0
:101C4F00E5A2543FF5A275985075D7E075D6FE758D
:0A1C5F008E14438E01D2ACD2AF22E6
:030023000217843D
:10178400C0E0C0F0C083C082C0D075D008309825B6
:10179400C2989004F0E024F1F582E43404F583E582
:1017A40099F0E4FF121D839004F0E004F0E0D39478
:1017B4000F4002E4F0309904C299C211D0D0D08213
:0717C400D083D0F0D0E03229
:091DE7002011FDEFD211F5992243
:0B1AB10090044CEBF0A3EAF0A3E9F076
:101ABC00E4FE90044CE0FBA3E0FAA3E0F98E8275FF
:0E1ACC0083001209ACFF6006121DE70E80E4D5
:011ADA0022E9
:071E12007B017A0479F12243
:061E19009004F0E0FF223E
:061E1F009004EFE0FF2239
:0E1D8300EF6005E49004F0F09004EFEFF02222
:101C8100E490044CF01218511218907B017A0579F6
:061C9100017D0402123186
:091DF000120EEC121A5C021999A2
:091DF900121E12120DBD021B792D
:1010BD005B25643A25643A25645D002D2D77656CBA
:1010CD006C636F6D2D2D2D2D2D7573652D2D2D2D86
:1010DD0057494D492D4445562D006125642C6225F7
:1010ED00642C6325642C642564002D54494D452DD5
:1010FD004E4F572D002D4F46462D54494D452D0031
:10110D004F50454E2D54494D452D004E4F2E2564C3
:10111D002D4F55542D3B6E756D6265722069732E82
:10112D0025642E002D2D46554C4C2D2D002D2D6357
:10113D00616C6C6D652D2D31333037373636313569
:10114D003934004E4F2E25642D494E2D3B6E756D55
:10115D00626572206973A1A32564A1A30063617305
:10116D006863617264000000000000000000000070
:01117D000071
:0C19DB004104D9004104E5004104DA0099
:101ADB00121CF27D0A7F84121B9C7D367F82121BA7
:101AEB009C7D1E7F80121B9C121DDCE49004E2F097
:0A1AFB00A3F0A3F0121BBC021D03B0
:0C1DB900900509EBF0A3EAF0A3E9F0228A
:10123100900450EDF090044DEBF0A3EAF0A3E9F037
:10124100E4FE12099324D0900451F0900501E0606E
:101251007C7C01900450E0C36480F8EC6480985079
:101261002390044DE0FBA3E0FAA3E0F9ECF582330F
:1012710095E0F5831209AC24D0FFEE75F00AA42F96
:10128100FE0C80CF900451E0FFB401079004E6EE1C
:10129100F08030EFB402079004E7EEF0802590046F
:1012A10051E0FFB403079004E8EEF08016EFB404B8
:1012B100079004E9EEF0800B7C05900501E4F0A3B2
:0D12C100DCFC227C05900501E4F0A3DCFCC0
:0112CE0022FD
:101A5C007B017A04794C12117E7B017A04794C1249
:101A6C00146F90044EE09004DDF090044DE090046F
:0A1A7C00DEF090044CE09004DFF06F
:011A8600223D
:0B14E50090046AEBF0A3EAF0A3E9F02A
:1014F00090049374FFF0A37410F0A374BDF09004F3
:101500006AE0FBA3E0FAA3E0F99000021209ACFF45
:10151000900496E4F0A3EFF09000031209ACFF9062
:101520000498E4F0A3EFF09000041209ACFF9004DB
:101530009AE4F0A3EFF07B017A04797012057B1234
:101540001D0390046DE0FBA3E0FAA3E0F912193249
:091550007B017A04797002193262
:1018FE009004E5E0702DC208121DC5BF0F0E9004B6
:10190E00D9E004F0E0C394054002E4F0C208121DD1
:10191E00C5BF0B0F9004D9E014F0E0D3940440033C
:04192E007404F0222B
:100EEC001218FE9004D9E0700B121D037BFF7A10D0
:100EFC0079C8805C9004D9E06401705A90049374B2
:100F0C00FFF0A37410F0A374E7F09004E6E0FF90F8
:100F1C000496E4F0A3EFF09004E7E0FF900498E46B
:100F2C00F0A3EFF09004E8E0FF90049AE4F0A3EF54
:100F3C00F09004E9E0FF90049CE4F0A3EFF07B0157
:100F4C007A04794C12057B121D037B017A04794CCF
:100F5C00121932020FEA9004D9E0B402289004E589
:100F6C00E0701790046D74FFF0A37410F0A374F785
:100F7C00F07B017A0479DB1214E57B017A0479DBCE
:100F8C001215C980599004D9E0B403257B017A0469
:100F9C0079E0120AF49004E5E0704390046D74FF5C
:100FAC00F0A37411F0A37402F07B017A0479E08051
:100FBC002A9004D9E0B404267B017A0479EA120A57
:100FCC00F49004E5E0701790046D74FFF0A37411B5
:100FDC00F0A3740DF07B017A0479EA1214E5D208BF
:030FEC00021DC51E
:0B0DBD0090044CEBF0A3EAF0A3E9F077
:100DC800E4A3F0121E19900450EFF0E490045BF0D5
:100DD800A3F0785D7C047D017BFF7A11796AFE7F40
:100DE8001412094B121E1FEF6003020EEB121D03B3
:100DF800E490044FF0900450E0FF90044FE0FEC3ED
:100E08009F504CEE94044024EE9F502090044CE0F8
:100E1800FBA3E0FAA3E0F98E827583001209ACFF08
:100E2800744C2EF582E43404F583EFF07F01121D33
:100E38008390044CE0FBA3E0FAA3E0F9A3E0F58279
:100E4800758300E41209EB90044FE004F080A67B60
:100E5800017A04795112155990045CEFF0F460217D
:100E68009004DAE014F090045CE0FF121E25900470
:100E78009374FFF0A37411F0A37418F090045C80CD
:100E8800397B017A0479511216E290045BEFF0BFC6
:100E9800FF117BFF7A1179311219327BFF7A1179B0
:100EA8003A803D9004DAE004F090049374FFF0A3D4
:100EB8007411F0A37450F090045BE0FF900496E482
:100EC800F0A3EFF09004DAE0FF900498E4F0A3EFC9
:100ED800F07B017A04795D12057B7B017A04795DE8
:030EE800121932AA
:010EEB0022E4
:0F1D3500EF7F08A2E09286D285C285C313DFF448
:011D4400227C
:0F1D45007F08C313A28692E7D285C285DFF4FF21
:011D5400226C
:101CE100C287C285D287121D35AF05121D35C28745
:011CF10022D0
:101C9700C287C285D287EF4401FF121D35121D4549
:021CA700C287F2
:011CA9002218
:0F1D65003008047D108002E4FD7F8E121CE12205
:101B9C00AE05AC07C208121D65AF04EE75F00A84E1
:101BAC00C454F0FDEE75F00A84E5F04DFD021CE125
:10117E007F80121C97EF5470C4540F75F00AA4FEB2
:10118E00EF540F2E1209D97F82121C97EF5470C4A0
:10119E00540F75F00AA4FEEF540F2E9000011209A1
:1011AE00EB7F84121C97EF5470C4540F75F00AA491
:1011BE00FEEF540F2E9000021209EB7F86121C9741
:1011CE00EF5470C4540F75F00AA4FEEF540F2E9016
:1011DE0000041209EB7F8A121C97EF5470C4540F4F
:1011EE0075F00AA4FEEF540F2E9000031209EB7F48
:1011FE0088121C97EF5470C4540F75F00AA4FEEFBA
:10120E00540F2E9000051209EB7F8C121C97EF5491
:10121E0070C4540F75F00AA4FEEF540F2E90000602
:03122E000209EBC7
:1013F2009000061209AC75F00A849000071209EBFE
:101402009000061209AC75F00A84900008E5F0120B
:1014120009EB900009742D1209EB9000051209AC3A
:1014220075F00A8490000A1209EB9000051209ACCB
:1014320075F00A8490000BE5F01209EB90000C7431
:101442002D1209EB9000041209AC75F00A84900089
:101452000D1209EB9000041209AC75F00A84900099
:0D1462000EE5F01209EB90000FE40209EB1B
:10146F009000021209AC75F00A849000101209EB7B
:10147F009000021209AC75F00A84900011E5F01289
:10148F0009EB900012743A1209EB9000011209ACAB
:10149F0075F00A849000131209EB9000011209AC49
:1014AF0075F00A84900014E5F01209EB90001574A2
:1014BF003A1209EB120993FF75F00A849000161285
:1014CF0009EBEF75F00A84900017E5F01209EB9025
:0614DF00000FE40209EB1E
:101CF2007F80121C97EF30E707E4FD7F80121B9C68
:011D020022BE
:1000260000E010080810E000000F102020100F005C
:1000360000001010F8000000000020203F202000E3
:10004600007008080808F00000302824222130003B
:1000560000300808088870000018202121221C00A2
:100066000000804030F8000000060524243F2424C8
:1000760000F88888880808000019202020110E0042
:1000860000E0108888900000000F112020201F003B
:1000960000180808886818000000003E01000000EB
:1000A6000070880808887000001C222121221C008C
:1000B60000F008080810E0000001122222110F00CB
:1000C600000000C0C000000000000030300000004A
:1000D6000000008000000000000000E000000000BA
:1000E60000008040201008000001020408102000D3
:1000F600004040404040400000020202020202006E
:1001060000081020408000000020100804020100B2
:1001160000704808088870000000003037000000B2
:10012600C030C828E810E000071827282F28170035
:100136000000C038E0000000203C230202273820DF
:1001460008F8888888700000203F202020110E00C3
:10015600C0300808080838000718202020100800BA
:1001660008F808080810E000203F202020100F00A3
:1001760008F88888E8081000203F2020232018006F
:1001860008F88888E8081000203F200003000000D7
:10019600C03008080838000007182020221E020078
:1001A60008F808000008F808203F210101213F2037
:1001B600000808F8080800000020203F2020000062
:1001C60000000808F8080800C08080807F00000052
:1001D60008F888C028180800203F2001263820008B
:1001E60008F8080000000000203F202020203000F2
:1001F60008F8F800F8F80800203F013E013F20000B
:1002060008F830C00008F808203F200007183F0013
:10021600E01008080810E0000F10202020100F0042
:1002260008F808080808F000203F21010101000035
:10023600E01008080810E0000F10282830504F0082
:1002460008F8888888887000203F2000030C30203A
:1002560000708808080838000038202121221C0078
:10026600180808F8080818000000203F20000000C1
:1002760008F808000008F808001F202020201F00AA
:100286000878880000C83808000007380E0100000A
:1002960008F800F800F8080000033E013E030000DD
:1002A600081868808068180820302C03032C30203A
:1002B6000838C800C83808000000203F20000000A9
:1002C60010080808C8380800203826212020180001
:1002D600000000FE020202000000007F40404000D5
:1002E60000000000C038040000601807000000008D
:1002F60000020202FE000000004040407F000000B5
:1003060000000402020400000000000000000000DB
:1003160000000000000000000001010101010100D1
:1003260000020204000000000000000000000000BF
:10033600000080808000000000192424123F200065
:1003460010F0008080000000003F112020110E00F8
:100356000000008080800000000E11202020110087
:10036600000080808090F000001F202020103F2099
:100376000000808080800000001F242424241700B1
:10038600008080E0909020000020203F2020000088
:100396000000808080808000006B949494936000BD
:1003A60010F0008080800000203F210000203F20C8
:1003B60000809898000000000020203F20200000C8
:1003C600000000809898000000C08080807F0000B8
:1003D60010F0000080808000203F24062930200095
:1003E600001010F8000000000020203F2020000030
:1003F6008080808080808000203F20003F20003F5A
:100406008080008080800000203F210000203F2067
:100416000000808080800000001F202020201F0018
:10042600808000808000000080FF912020110E0057
:100436000000008080008000000E11202091FF80C7
:10044600808080008080800020203F2120000100E5
:10045600000080808080800000332424242419003A
:10046600008080E0808000000000001F2020100037
:100476008080000000808000001F202020103F2088
:10048600808080008080800000030C300C03000018
:100496008080008080008080010E300C07380601C5
:1004A60000808080008080000020310E2E312000E8
:1004B6008080800000808080008186781806010098
:1004C60000808080808080000021302C2221300036
:1004D6000000000000FC020200000000013E404057
:1004E600000438C000000000000000010638C0000B
:1004F6000202FC000000000040403E010000000037
:1005060000020102020402000000000000000000D8
:0419E7004104BA00FD
:0E1D7400E4FFFE0FBF00010EBE01F8BFF4F544
:011D8200223E
:1017CB0075F010EBA42CF582E435F0F583E582245B
:0E17DB0026F582E5833400F583E493FF7D015B
:1017E900C2A2ED24FF92A1E4FEEF30E704D2A0806B
:1017F90002C2A0EF25E0FFC2C4D2C40EEEB408E9CC
:06180900D2A1D2A2D2A080
:01180F0022B6
:101BBC00C2A3121D74D2A3E4FD7F211217E97FD0BA
:101BCC001217E97F201217E97F0C1217E9021DD1B9
:101CCF00AC07ED4440FFE4FD1217E9EC4480FF023E
:021CDF0017E903
:101C1900E4FDFF121CCFE4FCE4FB7D01E4FF121795
:0B1C2900E90BEBB454F40CECB406ED36
:011C3400228D
:041A2E00A907AA0555
:101A3200E975F008A4FF121CCFE4FC1217CB0CECE2
:101A4200B408F8E975F008A4FFEA04FD121CCF7C83
:091A5200081217CB0CECB410F8DB
:011A5B002268
:0A1DD1007F1E9004BBE4F0A3DFFCCA
:011DDB0022E5
:0B12CF00900490EBF0A3EAF0A3E9F01C
:1012DA00E4A3F0A3F0A3F0121C19E4900493F09095
:1012EA000493E0FFC3941E5072EF75F00A84E5F090
:1012FA00701AE0D394004014900495E02402F0E0C0
:10130A0075F00584E5F0F0E4900494F0900490E020
:10131A00FBA3E0FAA3E0F9A3E0F5827583001209C2
:10132A00ACFFC3648094B04024EF648094FF501DE6
:10133A00900494E0FFA3E0FD900490A3A3A3E0F53A
:10134A00827583001209AC24D0FB121A2E900494E1
:0B135A00E004F0900493E004F08084B5
:011365002265
:101D0300121DD1E49004BAF07B017A0479BB02126C
:011D1300CF00
:10193200120993FF60259004BAE024BBF582E434D7
:1019420004F583EFF0740129F9E43AFA9004BAE05D
:1019520004F075F01E84E5F0F080D57B017A0479FD
:04196200BB0212CFE3
:0800030070B0D0E0070B0D0EF8
:10173700E4A29533C43333335480FFE4A29633C411
:10174700333354C04FFFE4A29733C43354E04FFF01
:10175700E4A2CC33C454F04FFFE4A2B433333333A1
:1017670054F84FFFE4A2B33325E025E04FFFE4A28E
:0C177700B23325E04FFFE4A2C0334FFF67
:011783002243
:100FEF0090044C74FFF0E4FDA3F0A3F0A3F078504D
:100FFF007C040D7BFF7A007903FE7F0412094B7886
:10100F00547C047D017BFF7A0079077E007F0412F8
:10101F00094BD295D296D297D2CCC2B4C2B3C2B238
:10102F00C2C0121737AD07EDB4F0037FFF22C29590
:10103F00C296C297C2CCD2B4D2B3D2B2D2C0121718
:10104F003790044DEFF0640F6061E4A3F090044E0D
:10105F00E0FFC39404501674502FF582E43404F566
:10106F0083E06D600890044EE004F080E0E49004AB
:10107F004FF090044FE0FFC39404501B74542FF5AE
:10108F0082E43404F583E0FF90044DE06F60089034
:10109F00044FE004F080DB90044FE025E025E0FFF3
:0D10AF0090044EE02FFF90044CF0227FFFD4
:0110BC002211
:101D1400000102FF030405FF060708FF09FFFFFF98
:011D2400FFBF
:0819EB0041050FFF41050EFF4D
:101B7900E4FF120FEFEFF4600690050FEFF02290EB
:101B8900050FE0FFF4600590050EEFF090050F7466
:021B9900FFF05B
:011B9B002227
:0B1DC50090050EE0FF30080374FFF0F3
:011DD00022F0
:101CAA00EF3395E0FE74142FF582741D3EF583E43C
:021CBA0093FF96
:011CBC002205
:011E3300228C
:0A1DDC007F649003E8E4F0A3DFFC4D
:011DE60022DA
:101C6900E4FF74E82FF582E43403F583E070012280
:071C79000FEFB464ED7FFFE3
:011C80002241
:0D1DAC0074E82FF582E43403F583E4F0229F
:0E1D910074E82FF582E43403F5837401F02228
:0B16E200900471EBF0A3EAF0A3E9F024
:1016ED00E4FE121C69AD07EDB4FF037FFF22E4FE9B
:1016FD00900471E0FBA3E0FAA3E0F98E82758300FC
:10170D001209ACFF75F00AEDA42400F582E5F03462
:10171D0000F583E5822EF582E43583F583EFF00E37
:09172D00EEB40ACCAF05121D91C7
:011736002290
:0B155900900471EBF0A3EAF0A3E9F0AE
:10156400E4A3F0FFFE74E82FF582E43403F583E08E
:10157400604BE4900474F0FE900471E0FBA3E0FA85
:10158400A3E0F98E827583001209ACFD75F00AEFB1
:10159400A42400F582E5F03400F583E5822EF5827B
:1015A400E43583F583E06D600890047474FFF08083
:1015B400050EEEB40AC2900474E07001220FEFB479
:0415C40064A37FFF9E
:0115C8002200
:0F1D5500121559EFB4FF037FFF22121DAC7F0060
:011D6400225C
:061E2500121DAC7F00223B
:101B0500696E707574686F75723A3D256400696E0B
:101B15007075746D696E3A3D256400696E707574F3
:081B25007365633A3D2564007D
:0419F300410510009A
:0B0AF40090046DEBF0A3EAF0A3E9F022
:100AFF00C208121DC590048EEFF0A374FFF090048E
:100B0F00E5E0701390048EE0B4030C9004E57401DB
:100B1F00F090048E74FFF09004E5E06401705E12B3
:100B2F001D0312162B90048FEFF090049374FFF0B7
:100B3F00A3741BF0A37405F0EF3395E0A3F0A3EFBC
:100B4F00F07B017A04797012057B7B017A0479704E
:100B5F0012193290048EE0B403239004E57402F06E
:100B6F0090048FE0FF90046DE0FBA3E0FAA3E0F99F
:100B7F00900002EF1209EB90048E74FFF09004E5E1
:100B8F00E06402705E121D0312162B90048FEFF0BB
:100B9F0090049374FFF0A3741BF0A37413F0EF335E
:100BAF0095E0A3F0A3EFF07B017A04797012057B37
:100BBF007B017A04797012193290048EE0B403230A
:100BCF009004E57403F090048FE0FF90046DE0FB58
:100BDF00A3E0FAA3E0F9900003EF1209EB90048E63
:100BEF0074FFF09004E5E064037060121D031216A9
:100BFF002B90048FEFF090049374FFF0A3741BF00D
:100C0F00A37420F0EF3395E0A3F0A3EFF07B017A0C
:100C1F0004797012057B7B017A0479701219329076
:100C2F00048EE0B40325E49004E5F090048FE0FF18
:100C3F0090046DE0FBA3E0FAA3E0F9900004EF123B
:0D0C4F0009EB90048E74FFF07F00227FFF00
:010C5C002275
:1015C90090046AEBF0A3EAF0A3E9F090046AE0FB67
:1015D900A3E0FAA3E0F9120AF4EF704590046AE077
:1015E900FBA3E0FAA3E0F99000021209ACFD7F84A5
:1015F900121B9C90046AE0FBA3E0FAA3E0F99000B7
:10160900031209ACFD7F82121B9C90046AE0FBA3C4
:10161900E0FAA3E0F99000041209ACFD7F80121BE7
:021629009C2201
:031E3000020AF4AF
:10162B00C208121DC5900490EFF0F4601BE0FF128E
:10163B001CAAEFF46012900490E0FF121CAA900514
:10164B0010E075F00AA42FF0900490E0B40E2B90EC
:10165B000510E0FF75F00A120971AEF0EEFD33953F
:10166B00E0FCEF3395E0FEC3EF9DFFEE9CFE7C00AC
:0F167B007D0A120A62900510EFF0900510E0FF53
:01168A00223D
:0619F70041051100C19240
:101B5400C2C6C2C5C2A7C3EF648094814002D2C684
:101B6400C3EF648094824002D2C5C3EF648094833F
:051B74004002D2A7228F
:1019990090044F7401F0A37404F0A374E0F0A374ED
:1019A90001F0A37404F0A374EAF07B017A0479DBF3
:1019B900120C5D9004DAE0FF121E02900511E0FF9F
:0319C900021B54AA
:100C5D0090044CEBF0A3EAF0A3E9F0A3E0FBA3E0D2
:100C6D00FAA3E0F99000021209ACFF90044CE0FBEE
:100C7D00A3E0FAA3E0F99000021209ACFED39F5055
:100C8D0070900452E0FBA3E0FAA3E0F99000021289
:100C9D0009ACFDEEC39D5003020DB2EEB5072AB5AA
:100CAD00052790044FE0FBA3E0FAA3E0F9900003C1
:100CBD001209ACFF90044CE0FBA3E0FAA3E0F9901D
:100CCD0000031209ACD39F5028900452E0FBA3E01F
:100CDD00FAA3E0F99000031209ACFF90044CE0FB7D
:100CED00A3E0FAA3E0F99000031209ACFEC39F50F4
:100CFD0003020DB290044FE0FBA3E0FAA3E0F990DC
:100D0D0000021209ACFD90044CE0FBA3E0FAA3E055
:100D1D00F99000021209ACFC6D7063900452E0FB77
:100D2D00A3E0FAA3E0F99000021209AC6C704F90A9
:100D3D00044FE0FBA3E0FAA3E0F99000031209AC25
:100D4D00B5063B90044CE0FBA3E0FAA3E0F990005C
:100D5D00031209ACB5072790044FE0FBA3E0FAA3FB
:100D6D00E0F99000041209ACFF90044CE0FBA3E005
:100D7D00FAA3E0F99000041209ACD39F5027900418
:100D8D0052E0FBA3E0FAA3E0F99000041209ACFFD6
:100D9D0090044CE0FBA3E0FAA3E0F99000041209E3
:100DAD00ACC39F5008E4900511F0D21222C212225A
:091E0200201205900511EFF022F9
:0300000002136682
:0C136600787FE4F6D8FD7581220213ADFB
:10087B00E709F608DFFA8046E709F208DFFA803E5F
:10088B0088828C83E709F0A3DFFA8032E309F6084C
:10089B00DFFA8078E309F208DFFA807088828C83B4
:1008AB00E309F0A3DFFA806489828A83E0A3F60868
:1008BB00DFFA805889828A83E0A3F208DFFA804C42
:1008CB0080D280FA80C680D4806980F28033801019
:1008DB0080A680EA809A80A880DA80E280CA803382
:1008EB0089828A83ECFAE493A3C8C582C8CCC583FA
:1008FB00CCF0A3C8C582C8CCC583CCDFE9DEE780CA
:10090B000D89828A83E493A3F608DFF9ECFAA9F048
:10091B00EDFB2289828A83ECFAE0A3C8C582C8CC9E
:10092B00C583CCF0A3C8C582C8CCC583CCDFEADEB7
:10093B00E880DB89828A83E493A3F208DFF980CC19
:10094B0088F0EF60010E4E60C388F0ED2402B40412
:10095B000050B9F582EB2402B4040050AF232345B9
:06096B0082239008CB730B
:10097100C2D530F707B2D563F0FF05F030E70CB20E
:10098100D5F4048463F0FF05F080018430D502F4CE
:0209910004223E
:10099300BB010689828A83E0225002E722BBFE0262
:0909A300E32289828A83E4932295
:1009AC00BB010CE58229F582E5833AF583E0225000
:1009BC0006E92582F8E622BBFE06E92582F8E2224A
:0D09CC00E58229F582E5833AF583E4932264
:1009D900BB010689828A83F0225002F722BBFE01FD
:0209E900F322F7
:1009EB00F8BB010DE58229F582E5833AF583E8F042
:1009FB00225006E92582C8F622BBFE05E92582C8EE
:020A0B00F222D5
:100A0D00BC000BBE0029EF8DF084FFADF022E4CCCD
:100A1D00F875F008EF2FFFEE33FEEC33FCEE9DEC96
:100A2D00984005FCEE9DFE0FD5F0E9E4CEFD22EDDC
:100A3D00F8F5F0EE8420D21CFEADF075F008EF2F26
:100A4D00FFED33FD4007985006D5F0F222C398FD17
:050A5D000FD5F0EA22B4
:100A6200C2D5EC30E709B2D5E4C39DFDE49CFCEEAF
:100A720030E715B2D5E4C39FFFE49EFE120A0DC310
:100A8200E49DFDE49CFC8003120A0D30D507C3E40B
:060A92009FFFE49EFE221E
:100A9800A3F8E0C5F025F0F0E58215827002158311
:060AA800E0C838F0E8226E
:10051600E5182493F582E43404F583E00518229067
:100526000490300F03900493E475F001120AAE02B2
:1005360009932008E97F2ED2088018EF540F2490E3
:10054600D43440D4FF300C0BEF24BFB41A00500350
:100556002461FFE51960021519051CE51C700205EA
:100566001B300F0E900490E475F001120AAEEF02F4
:1005760009D9021B2D7403D20F8003E4C20FF518AC
:10058600900490120AC5E4F519F51BF51CE51960EF
:10059600077F2012055980F5751AFFC209C208C2E5
:1005A6000AC20BC20DC20EC210120525FF700D3015
:1005B6000F057F0012056AAF1CAE1B22B4255FC271
:1005C600D5C20C120525FF24D0B40A00501A75F0C6
:1005D6000A781930D50508B6FF0106C6A426F62006
:1005E600D5047002D20B80D924CFB41A00EF500480
:1005F600C2E5D20C02076BD20980C6D20880C0D2EF
:100606000A80BCD2D580BAD20D80B47F201205599B
:10061600200A077401B5190040F1120516FF1205EC
:1006260059020593D210D20E8095120516FB1205BB
:1006360016FA120516F94A4B7006793C7A087BFFC2
:10064600200A2EE519602A7E008E82758300120923
:10065600AC60060EEE651A70F0C2D5EBC0E0EAC0DB
:10066600E0E9C0E0EE1207B2D0E0F9D0E0FAD0E05F
:10067600FB120993FF60AAEBC0E0EAC0E0E9C0E024
:10068600120559D0E02401F9D0E03400FAD0E0FB9D
:10069600E51A0460DCD51AD980877BFF7A0779AE24
:1006A600D20A809C791080027908C20EC210800896
:1006B600D2D5790A8004790AC2D5E51A047002F502
:1006C6001AE4FAFDFEFF120516FC7B082009131238
:1006D6000516FD7B1030080A120516FE120516FFD8
:1006E6007B20EC3382D592D55013C3E43008069FA5
:1006F600FFE49EFEE42009039DFDE49CFCE4CBF8A8
:10070600C209EC700CCFCECDCCE824F8F870F3809B
:1007160017C3EF33FFEE33FEED33FDEC33FCEB3363
:10072600FB994002FB0FD8E9EB300905F8D0E0C48D
:1007360048B209C0E00AEC4D4E4F78207B0070C2EB
:10074600EAB51A0040BCC0E01207B4D0F0D0E020F1
:100756000904C4C0E0C4B209C0F0120542D0F0D505
:10076600F0EB020593120ACE06305306AA5806018C
:100776004C05FD4206AE4F06B64406B6490616437C
:0807860006BC5506A04606A0C2
:10078E004506A047085C5006052D06092E062C2BA3
:10079E00060D23062A2008452A05C5480000062412
:1007AE003F3F3F00790AA2D5200B14300D09B91036
:1007BE00020404B9080104A2D5200E02500104203F
:1007CE000A68920AB519005034C0E07F20300B1928
:1007DE007F30A20A720E720D500F12080BC20AC29F
:1007EE000EC20DC2107F30800F300D03E9C0E01233
:1007FE000559300D03D0E0F9D0E0B519CC300D1706
:10080E007F30B9100C1205597F58300C077F788055
:10081E0003B90803120559300A057F2D0205597FC9
:10082E00202010F87F2B200EF322920A80CF286E04
:10083E00756C6C2900D2091205163009F8C20978B8
:10084E001930D50108F60205C52D50434958120539
:10085E00162403B405004001E49008579312054A8C
:0D086E00743A12054AD20B7519040206AA4D
:10137200021C35E493A3F8E493A34003F68001F240
:1013820008DFF48029E493A3F85407240CC8C3337C
:10139200C4540F4420C8834004F456800146F6DF4B
:1013A200E4800B01020408102040809019CCE47EF6
:1013B200019360BCA3FF543F30E509541FFEE49340
:1013C200A360010ECF54C025E060A840B8E493A307
:1013D200FAE493A3F8E493A3C8C582C8CAC583CA32
:1013E200F0A3C8C582C8CAC583CADFE9DEE780BEEA
:0119FD0000E9
:100AAE00F8E0FBA3A3E0F925F0F0E58215827002D1
:070ABE001583E0FA38F02275
:090AC500EBF0A3EAF0A3E9F02232
:100ACE00D083D082F8E4937012740193700DA3A3B7
:100ADE0093F8740193F5828883E4737402936860CB
:060AEE00EFA3A3A380DFCB
:101B2D00EFB40A07740D121B38740A309811A89976
:101B3D00B8130CC2983098FDA899C298B811F63018
:071B4D0099FDC299F59922F0
:00000001FF
