:101B0900D3EF9400EE940040147D6E7C00ED1D70BF
:0D1B1900011CED4C70F7EF1F70E61E80E31D
:011B2600229C
:071D2400696E69740D0A00ED
:05193E00420507000056
:101B6000121B7A121C5012000E1219E97BFF7A1D0B
:0A1B700079241219BF1218E080FB5F
:1018E000121BAC900507E0FEA3E0FF7C037DE8122D
:1018F0000A0DED4C7003121B27900507E0FEA3E0D4
:10190000FF7C007D64120A0DED4C7003121D1B223A
:10000E00438E805389F0758ACD758CD4C28DD28C77
:05001E00D2A9D2AF22BF
:03000B0002175782
:10175700C0E0C0F0C083C082C0D075D0109005082B
:10176700E02401FF900507E03400FE7C0B7DB812F2
:101777000A0DECF0FEA3EDF0FF7C037DE8120A0DE5
:10178700ED4C7002B2CDD0D0D082D083D0F0D0E073
:01179700321F
:051D4A003443101001FC
:0A199500EBF0A3EAF0A3E9F0C29022
:10199F00E4FEEF30E704D2918002C291EF25E0FF21
:0F19AF00D2933092034401FFC2930EEEB408E3CB
:0119BE002206
:101C50007F027E00121B09C294D290C293D2C72287
:0C1CCA00C29012199FE4FF12199FD290E3
:011CD60022EB
:0E1AEA00121AF87D407F25121AF87D077F261C
:101AF800C29012199FAC07AF0512199FD290AF047C
:011B080022BA
:0318100090044FF2
:10181300121995AD07E4FC900452E0FFECC39F500E
:101823001CE4FF12199F90044FE0FBA3E0FAA3E02E
:10183300F98C82758300EF1209EB0C80DAD290AF3A
:01184300059F
:011844002281
:0318AD0090044E56
:1018B000121995AD07E4FC900451E0FFECC39F5072
:1018C0001A90044EE0FBA3E475F001120A98A9F007
:0F18D000FA120993FF12199F0C80DCD290AF051A
:0118DF0022E6
:1015D200900501EBF0A3EAF0A3E9F0C2947BFF7A55
:1015E2001D794A9004517405F07F301218AD9005B0
:1015F20001E0FBA3E0FAA3E0F99004517404F07F48
:10160200A01218AD7D017F21121AF87F22121AF85A
:101612007D0A7F24121AEA7D0E7F20121AF8D294D4
:071622007F057E00021B0999
:10179800C2947BFF7A1D794A9004517405F07F2A20
:1017A8001218AD7D037F21121AF87F22121AF80D44
:1017B8007F31121AF87F32121AF87F33121AEA7D33
:0F17C8000F7F20121AF8D2947F057E00021B09B2
:101BE8007F07121CCA8F203005077DFF7F27121A36
:021BF800F822D1
:1017D700E490044DF07F07121CCA8F20300629E5DC
:1017E70020540EC29470117B017A0479FC90045244
:1017F7007404F07F611218107DFF7F27121AF8C258
:08180700907FE212199FD290BC
:01180F0022B6
:0A194300C1114104DA004104D9018A
:101B7A00E5A2543FF5A275985075D7E075D6FE7563
:0A1B8A008E14438E01D2ACD2AF22BC
:030023000216CBF7
:1016CB00C0E0C0F0C083C082C0D075D00830982570
:1016DB00C2989004DAE024DBF582E43404F583E568
:1016EB0099F0E4FF121CAE9004DAE004F0E0D3941E
:1016FB000F4002E4F0309904C299C211D0D0D082CD
:07170B00D083D0F0D0E032E2
:091D12002011FDEFD211F5992218
:0B19BF0090044CEBF0A3EAF0A3E9F069
:1019CA00E4FE90044CE0FBA3E0FAA3E0F98E8275F2
:0E19DA0083001209ACFF6006121D120E80E49D
:0119E80022DC
:071D2B007B017A0479DB2241
:061D32009004DAE0FF223C
:061D38009004D9E0FF2237
:0E1CAE00EF6005E49004DAF09004D9EFF02224
:101BAC00E490044CF01217981217D77B017A047941
:061BBC00FC7D040211781B
:101B2700120E6B12196A90044F7401F0A37404F03B
:0D1B3700A374F2F07B017A0479ED020D8CAD
:091D1B00121D2B120C5D021A8747
:10100F005B25643A25643A25645D002D2D77656C68
:10101F006C636F6D2D2D2D2D2D7573652D2D2D2D34
:10102F0057494D492D4445562D006125642C6225A5
:10103F00642C6325642C642564002D54494D452D83
:10104F004E4F572D002D4F46462D54494D452D00DF
:10105F004E4F2E25642D4F55542D3B6E756D626589
:10106F00722069732E25642E002D2D46554C4C2D64
:10107F002D002D2D63616C6C6D652D2D3133303747
:10108F0037363631353934004E4F2E25642D494EC3
:10109F002D3B6E756D626572206973A1A32564A1E6
:1010AF00A300636173686361726400000000000055
:0610BF000000000000002B
:0C194D004104EB004104F7004104EC00F1
:1019E900121C1D7D0A7F84121AAA7D367F82121A63
:1019F900AA7D1E7F80121AAA121D07E49004F4F032
:0A1A0900A3F0A3F0121ACA021C2E6B
:0C1CE400900504EBF0A3EAF0A3E9F02265
:10117800900450EDF090044DEBF0A3EAF0A3E9F0F1
:10118800E4FE12099324D0900451F09004FCE0602E
:101198007C7C01900450E0C36480F8EC6480985033
:1011A8002390044DE0FBA3E0FAA3E0F9ECF58233C9
:1011B80095E0F5831209AC24D0FFEE75F00AA42F50
:1011C800FE0C80CF900451E0FFB401079004F8EEC4
:1011D800F08030EFB402079004F9EEF08025900417
:1011E80051E0FFB403079004FAEEF08016EFB40460
:1011F800079004FBEEF0800B7C059004FCE4F0A360
:0D120800DCFC227C059004FCE4F0A3DCFC7F
:0112150022B6
:10196A007B017A04794C1210C57B017A04794C12F6
:10197A0013B690044EE09004EFF090044DE090040A
:0A198A00F0F090044CE09004F1F03E
:011994002230
:0B142C0090046AEBF0A3EAF0A3E9F0E3
:1014370090049374FFF0A37410F0A3740FF090045A
:101447006AE0FBA3E0FAA3E0F99000021209ACFFFF
:10145700900496E4F0A3EFF09000031209ACFF901C
:101467000498E4F0A3EFF09000041209ACFF900495
:101477009AE4F0A3EFF07B017A04797012057B12EE
:101487001C2E90046DE0FBA3E0FAA3E0F912187993
:091497007B017A047970021879D6
:101845009004F7E0702DC208121CF0BF0F0E900433
:10185500EBE004F0E0D394044002E4F0C208121C6B
:10186500F0BF0B0F9004EBE014F0E0D394034003BA
:041875007403F022E6
:100E6B001218459004EBE0700B121C2E7BFF7A10CE
:100E7B00791A805C9004EBE06401705990049374D0
:100E8B00FFF0A37410F0A37439F09004F8E0FF9016
:100E9B000496E4F0A3EFF09004F9E0FF900498E4DB
:100EAB00F0A3EFF09004FAE0FF90049AE4F0A3EFC4
:100EBB00F09004FBE0FF90049CE4F0A3EFF07B01C7
:100ECB007A04794C12057B121C2E7B017A04794C27
:100EDB00121879805C9004EBE0B402289004F7E0E0
:100EEB00701790046D74FFF0A37410F0A37449F0A5
:100EFB007B017A0479ED12142C7B017A0479ED12C3
:100F0B001510802D9004EBE0B403267B017A047955
:100F1B00F2120AF49004F7E0701790046D74FFF06E
:100F2B00A37410F0A37454F07B017A0479F21214B9
:060F3B002CD208021CF09C
:0B0C5D0090044CEBF0A3EAF0A3E9F0D8
:100C6800E4A3F0121D32900450EFF0E490045BF01E
:100C7800A3F0785D7C047D017BFF7A1079B1FE7F5B
:100C88001412094B121D38EF6003020D8B121C2E33
:100C9800E490044FF0900450E0FF90044FE0FEC34E
:100CA8009F504CEE94044024EE9F502090044CE05A
:100CB800FBA3E0FAA3E0F98E827583001209ACFF6A
:100CC800744C2EF582E43404F583EFF07F01121C96
:100CD800AE90044CE0FBA3E0FAA3E0F9A3E0F582B0
:100CE800758300E41209EB90044FE004F080A67BC2
:100CF800017A0479511214A090045CEFF0F4602199
:100D08009004ECE014F090045CE0FF121D3E9004A7
:100D18009374FFF0A37410F0A3745FF090045C80E8
:100D2800397B017A04795112162990045BEFF0BFE0
:100D3800FF117BFF7A1079781218797BFF7A107986
:100D480081803D9004ECE004F090049374FFF0A3DC
:100D58007410F0A37497F090045BE0FF900496E49D
:100D6800F0A3EFF09004ECE0FF900498E4F0A3EF18
:100D7800F07B017A04795D12057B7B017A04795D49
:030D8800121879C5
:010D8B002245
:0F1C6000EF7F08A2E09286D285C285C313DFF41E
:011C6F002252
:0F1C70007F08C313A28692E7D285C285DFF4FFF7
:011C7F002242
:101C0C00C287C285D287121C60AF05121C60C287C6
:011C1C0022A5
:101BC200C287C285D287EF4401FF121C60121C70CB
:021BD200C287C8
:011BD40022EE
:0F1C90003008047D108002E4FD7F8E121C0C22B0
:101AAA00AE05AC07C208121C90AF04EE75F00A84AA
:101ABA00C454F0FDEE75F00A84E5F04DFD021C0CED
:1010C5007F80121BC2EF5470C4540F75F00AA4FE42
:1010D500EF540F2E1209D97F82121BC2EF5470C430
:1010E500540F75F00AA4FEEF540F2E90000112095B
:1010F500EB7F84121BC2EF5470C4540F75F00AA421
:10110500FEEF540F2E9000021209EB7F86121BC2D0
:10111500EF5470C4540F75F00AA4FEEF540F2E90CF
:1011250000041209EB7F8A121BC2EF5470C4540FDE
:1011350075F00AA4FEEF540F2E9000031209EB7F01
:1011450088121BC2EF5470C4540F75F00AA4FEEF49
:10115500540F2E9000051209EB7F8C121BC2EF5421
:1011650070C4540F75F00AA4FEEF540F2E900006BC
:031175000209EB81
:101339009000061209AC75F00A849000071209EBB7
:101349009000061209AC75F00A84900008E5F012C5
:1013590009EB900009742D1209EB9000051209ACF4
:1013690075F00A8490000A1209EB9000051209AC85
:1013790075F00A8490000BE5F01209EB90000C74EB
:101389002D1209EB9000041209AC75F00A84900043
:101399000D1209EB9000041209AC75F00A84900053
:0D13A9000EE5F01209EB90000FE40209EBD5
:1013B6009000021209AC75F00A849000101209EB35
:1013C6009000021209AC75F00A84900011E5F01243
:1013D60009EB900012743A1209EB9000011209AC65
:1013E60075F00A849000131209EB9000011209AC03
:1013F60075F00A84900014E5F01209EB900015745C
:101406003A1209EB120993FF75F00A84900016123E
:1014160009EBEF75F00A84900017E5F01209EB90DE
:06142600000FE40209EBD7
:101C1D007F80121BC2EF30E707E4FD7F80121AAA06
:011C2D002294
:1000260000E010080810E000000F102020100F005C
:1000360000001010F8000000000020203F202000E3
:10004600007008080808F00000302824222130003B
:1000560000300808088870000018202121221C00A2
:100066000000804030F8000000060524243F2424C8
:1000760000F88888880808000019202020110E0042
:1000860000E0108888900000000F112020201F003B
:1000960000180808886818000000003E01000000EB
:1000A6000070880808887000001C222121221C008C
:1000B60000F008080810E0000001122222110F00CB
:1000C600000000C0C000000000000030300000004A
:1000D6000000008000000000000000E000000000BA
:1000E60000008040201008000001020408102000D3
:1000F600004040404040400000020202020202006E
:1001060000081020408000000020100804020100B2
:1001160000704808088870000000003037000000B2
:10012600C030C828E810E000071827282F28170035
:100136000000C038E0000000203C230202273820DF
:1001460008F8888888700000203F202020110E00C3
:10015600C0300808080838000718202020100800BA
:1001660008F808080810E000203F202020100F00A3
:1001760008F88888E8081000203F2020232018006F
:1001860008F88888E8081000203F200003000000D7
:10019600C03008080838000007182020221E020078
:1001A60008F808000008F808203F210101213F2037
:1001B600000808F8080800000020203F2020000062
:1001C60000000808F8080800C08080807F00000052
:1001D60008F888C028180800203F2001263820008B
:1001E60008F8080000000000203F202020203000F2
:1001F60008F8F800F8F80800203F013E013F20000B
:1002060008F830C00008F808203F200007183F0013
:10021600E01008080810E0000F10202020100F0042
:1002260008F808080808F000203F21010101000035
:10023600E01008080810E0000F10282830504F0082
:1002460008F8888888887000203F2000030C30203A
:1002560000708808080838000038202121221C0078
:10026600180808F8080818000000203F20000000C1
:1002760008F808000008F808001F202020201F00AA
:100286000878880000C83808000007380E0100000A
:1002960008F800F800F8080000033E013E030000DD
:1002A600081868808068180820302C03032C30203A
:1002B6000838C800C83808000000203F20000000A9
:1002C60010080808C8380800203826212020180001
:1002D600000000FE020202000000007F40404000D5
:1002E60000000000C038040000601807000000008D
:1002F60000020202FE000000004040407F000000B5
:1003060000000402020400000000000000000000DB
:1003160000000000000000000001010101010100D1
:1003260000020204000000000000000000000000BF
:10033600000080808000000000192424123F200065
:1003460010F0008080000000003F112020110E00F8
:100356000000008080800000000E11202020110087
:10036600000080808090F000001F202020103F2099
:100376000000808080800000001F242424241700B1
:10038600008080E0909020000020203F2020000088
:100396000000808080808000006B949494936000BD
:1003A60010F0008080800000203F210000203F20C8
:1003B60000809898000000000020203F20200000C8
:1003C600000000809898000000C08080807F0000B8
:1003D60010F0000080808000203F24062930200095
:1003E600001010F8000000000020203F2020000030
:1003F6008080808080808000203F20003F20003F5A
:100406008080008080800000203F210000203F2067
:100416000000808080800000001F202020201F0018
:10042600808000808000000080FF912020110E0057
:100436000000008080008000000E11202091FF80C7
:10044600808080008080800020203F2120000100E5
:10045600000080808080800000332424242419003A
:10046600008080E0808000000000001F2020100037
:100476008080000000808000001F202020103F2088
:10048600808080008080800000030C300C03000018
:100496008080008080008080010E300C07380601C5
:1004A60000808080008080000020310E2E312000E8
:1004B6008080800000808080008186781806010098
:1004C60000808080808080000021302C2221300036
:1004D6000000000000FC020200000000013E404057
:1004E600000438C000000000000000010638C0000B
:1004F6000202FC000000000040403E010000000037
:1005060000020102020402000000000000000000D8
:041959004104BA008B
:0E1C9F00E4FFFE0FBF00010EBE01F8BFF4F51A
:011CAD002214
:1017120075F010EBA42CF582E435F0F583E5822414
:0E17220026F582E5833400F583E493FF7D0114
:10173000C2A2ED24FF92A1E4FEEF30E704D2A08024
:1017400002C2A0EF25E0FFC2C4D2C40EEEB408E985
:06175000D2A1D2A2D2A03A
:011756002270
:101ACA00C2A3121C9FD2A3E4FD7F211217307FD03C
:101ADA001217307F201217307F0C121730021CFCAD
:101BFA00AC07ED4440FFE4FD121730EC4480FF02CD
:021C0A00173091
:101B4400E4FDFF121BFAE4FCE4FB7D01E4FF121741
:0B1B5400300BEBB454F40CECB406EDC5
:011B5F002263
:04191000A907AA0574
:10191400E975F008A4FF121BFAE4FC1217120CEC90
:10192400B408F8E975F008A4FFEA04FD121BFA7C78
:09193400081217120CECB410F8B3
:01193D002287
:0A1CFC007F1E9004BBE4F0A3DFFCA0
:011D060022BA
:0B121600900490EBF0A3EAF0A3E9F0D5
:10122100E4A3F0A3F0A3F0121B44E4900493F09024
:101231000493E0FFC3941E5072EF75F00A84E5F049
:10124100701AE0D394004014900495E02402F0E079
:1012510075F00584E5F0F0E4900494F0900490E0DA
:10126100FBA3E0FAA3E0F9A3E0F58275830012097C
:10127100ACFFC3648094B04024EF648094FF501DA0
:10128100900494E0FFA3E0FD900490A3A3A3E0F5F4
:10129100827583001209AC24D0FB121910900494BA
:0B12A100E004F0900493E004F080846F
:0112AC00221F
:101C2E00121CFCE49004BAF07B017A0479BB021218
:011C3E00168F
:10187900120993FF60259004BAE024BBF582E43491
:1018890004F583EFF0740129F9E43AFA9004BAE017
:1018990004F075F01E84E5F0F080D57B017A0479B7
:0418A900BB02121656
:0800030070B0D0E0070B0D0EF8
:10167E00E4A29533C43333335480FFE4A29633C4CB
:10168E00333354C04FFFE4A29733C43354E04FFFBB
:10169E00E4A2CC33C454F04FFFE4A2B4333333335B
:1016AE0054F84FFFE4A2B33325E025E04FFFE4A248
:0C16BE00B23325E04FFFE4A2C0334FFF21
:0116CA0022FD
:100F410090044C74FFF0E4FDA3F0A3F0A3F07850FB
:100F51007C040D7BFF7A007903FE7F0412094B7834
:100F6100547C047D017BFF7A0079077E007F0412A7
:100F7100094BD295D296D297D2CCC2B4C2B3C2B2E7
:100F8100C2C012167EAD07EDB4F0037FFF22C295F9
:100F9100C296C297C2CCD2B4D2B3D2B2D2C01216C8
:100FA1007E90044DEFF0640F6061E4A3F090044E75
:100FB100E0FFC39404501674502FF582E43404F515
:100FC10083E06D600890044EE004F080E0E490045A
:100FD1004FF090044FE0FFC39404501B74542FF55D
:100FE10082E43404F583E0FF90044DE06F600890E3
:100FF100044FE004F080DB90044FE025E025E0FFA2
:0D10010090044EE02FFF90044CF0227FFF82
:01100E0022BF
:101C3F00000102FF030405FF060708FF09FFFFFF6E
:011C4F00FF95
:08195D0041050AFF410509FFE5
:101A8700E4FF120F41EFF4600690050AEFF0229091
:101A9700050AE0FFF46005900509EFF090050A7468
:021AA700FFF04E
:011AA900221A
:0B1CF000900509E0FF30080374FFF0CE
:011CFB0022C6
:101BD500EF3395E0FE743F2FF582741C3EF583E4E8
:021BE50093FF6C
:011BE70022DB
:011D5200226E
:0A1D07007F649003E8E4F0A3DFFC22
:011D110022AF
:101B9400E4FF74E82FF582E43403F583E070012256
:071BA4000FEFB464ED7FFFB9
:011BAB002217
:0D1CD70074E82FF582E43403F583E4F02275
:0E1CBC0074E82FF582E43403F5837401F022FE
:0B162900900471EBF0A3EAF0A3E9F0DD
:10163400E4FE121B94AD07EDB4FF037FFF22E4FE2A
:10164400900471E0FBA3E0FAA3E0F98E82758300B5
:101654001209ACFF75F00AEDA42400F582E5F0341C
:1016640000F583E5822EF582E43583F583EFF00EF1
:09167400EEB40ACCAF05121CBC57
:01167D00224A
:0B14A000900471EBF0A3EAF0A3E9F068
:1014AB00E4A3F0FFFE74E82FF582E43403F583E048
:1014BB00604BE4900474F0FE900471E0FBA3E0FA3F
:1014CB00A3E0F98E827583001209ACFD75F00AEF6B
:1014DB00A42400F582E5F03400F583E5822EF58235
:1014EB00E43583F583E06D600890047474FFF0803D
:1014FB00050EEEB40AC2900474E07001220FEFB433
:04150B0064A37FFF57
:01150F0022B9
:0F1C80001214A0EFB4FF037FFF22121CD77F00C6
:011C8F002232
:061D3E00121CD77F0022F9
:101A1300696E707574686F75723A3D256400696EFE
:101A23007075746D696E3A3D256400696E707574E6
:081A33007365633A3D25640070
:0419650041050B002D
:0B0AF40090046DEBF0A3EAF0A3E9F022
:100AFF00C208121CF090048EEFF0A374FFF0900464
:100B0F00F7E0701390048EE0B4030C9004F77401B7
:100B1F00F090048E74FFF09004F7E06401705E12A1
:100B2F001C2E12157290048FEFF090049374FFF047
:100B3F00A3741AF0A37413F0EF3395E0A3F0A3EFAF
:100B4F00F07B017A04797012057B7B017A0479704E
:100B5F0012187990048EE0B403239004F77402F016
:100B6F0090048FE0FF90046DE0FBA3E0FAA3E0F99F
:100B7F00900002EF1209EB90048E74FFF09004F7CF
:100B8F00E06402705E121C2E12157290048FEFF04B
:100B9F0090049374FFF0A3741AF0A37421F0EF3351
:100BAF0095E0A3F0A3EFF07B017A04797012057B37
:100BBF007B017A04797012187990048EE0B40323C4
:100BCF009004F77403F090048FE0FF90046DE0FB46
:100BDF00A3E0FAA3E0F9900003EF1209EB90048E63
:100BEF0074FFF09004F7E064037060121C2E12156E
:100BFF007290048FEFF090049374FFF0A3741AF0C7
:100C0F00A3742EF0EF3395E0A3F0A3EFF07B017AFE
:100C1F0004797012057B7B017A0479701218799030
:100C2F00048EE0B40325E49004F7F090048FE0FF06
:100C3F0090046DE0FBA3E0FAA3E0F9900004EF123B
:0D0C4F0009EB90048E74FFF07F00227FFF00
:010C5C002275
:1015100090046AEBF0A3EAF0A3E9F090046AE0FB20
:10152000A3E0FAA3E0F9120AF4EF704590046AE030
:10153000FBA3E0FAA3E0F99000021209ACFD7F845E
:10154000121AAA90046AE0FBA3E0FAA3E0F9900063
:10155000031209ACFD7F82121AAA90046AE0FBA371
:10156000E0FAA3E0F99000041209ACFD7F80121AA2
:02157000AA22AD
:031D4F00020AF491
:10157200C208121CF0900490EFF0F4601BE0FF121E
:101582001BD5EFF46012900490E0FF121BD590057A
:101592000BE075F00AA42FF0900490E0B40E2B90AB
:1015A200050BE0FF75F00A120971AEF0EEFD3395FE
:1015B200E0FCEF3395E0FEC3EF9DFFEE9CFE7C0066
:0F15C2007D0A120A6290050BEFF090050BE0FF17
:0115D10022F7
:101A6200C2C6C2C5C2A7C3EF648094814002D2C677
:101A7200C3EF648094824002D2C5C3EF6480948332
:051A82004002D2A72282
:100D8C0090044CEBF0A3EAF0A3E9F07F03121A6293
:100D9C00A3E0FBA3E0FAA3E0F99000021209ACFE79
:100DAC0090044CE0FBA3E0FAA3E0F99000021209D6
:100DBC00ACFDD39E4003020E65EDB5062990044FA1
:100DCC00E0FBA3E0FAA3E0F99000031209ACFF905A
:100DDC00044CE0FBA3E0FAA3E0F99000031209AC89
:100DEC00D39F4002807390044FE0FBA3E0FAA3E092
:100DFC00F99000021209ACFF90044CE0FBA3E0FA5E
:100E0C00A3E0F99000021209AC6F705290044FE00D
:100E1C00FBA3E0FAA3E0F99000031209ACFF9004E5
:100E2C004CE0FBA3E0FAA3E0F99000031209ACB587
:100E3C00072C90044FE0FBA3E0FAA3E0F990000428
:100E4C001209ACFF90044CE0FBA3E0FAA3E0F9908C
:0F0E5C0000041209ACD39F4005E4FF121A622272
:061D440090050CEFF022F7
:030000000212AD3C
:0C12AD00787FE4F6D8FD7581220212F46F
:10087B00E709F608DFFA8046E709F208DFFA803E5F
:10088B0088828C83E709F0A3DFFA8032E309F6084C
:10089B00DFFA8078E309F208DFFA807088828C83B4
:1008AB00E309F0A3DFFA806489828A83E0A3F60868
:1008BB00DFFA805889828A83E0A3F208DFFA804C42
:1008CB0080D280FA80C680D4806980F28033801019
:1008DB0080A680EA809A80A880DA80E280CA803382
:1008EB0089828A83ECFAE493A3C8C582C8CCC583FA
:1008FB00CCF0A3C8C582C8CCC583CCDFE9DEE780CA
:10090B000D89828A83E493A3F608DFF9ECFAA9F048
:10091B00EDFB2289828A83ECFAE0A3C8C582C8CC9E
:10092B00C583CCF0A3C8C582C8CCC583CCDFEADEB7
:10093B00E880DB89828A83E493A3F208DFF980CC19
:10094B0088F0EF60010E4E60C388F0ED2402B40412
:10095B000050B9F582EB2402B4040050AF232345B9
:06096B0082239008CB730B
:10097100C2D530F707B2D563F0FF05F030E70CB20E
:10098100D5F4048463F0FF05F080018430D502F4CE
:0209910004223E
:10099300BB010689828A83E0225002E722BBFE0262
:0909A300E32289828A83E4932295
:1009AC00BB010CE58229F582E5833AF583E0225000
:1009BC0006E92582F8E622BBFE06E92582F8E2224A
:0D09CC00E58229F582E5833AF583E4932264
:1009D900BB010689828A83F0225002F722BBFE01FD
:0209E900F322F7
:1009EB00F8BB010DE58229F582E5833AF583E8F042
:1009FB00225006E92582C8F622BBFE05E92582C8EE
:020A0B00F222D5
:100A0D00BC000BBE0029EF8DF084FFADF022E4CCCD
:100A1D00F875F008EF2FFFEE33FEEC33FCEE9DEC96
:100A2D00984005FCEE9DFE0FD5F0E9E4CEFD22EDDC
:100A3D00F8F5F0EE8420D21CFEADF075F008EF2F26
:100A4D00FFED33FD4007985006D5F0F222C398FD17
:050A5D000FD5F0EA22B4
:100A6200C2D5EC30E709B2D5E4C39DFDE49CFCEEAF
:100A720030E715B2D5E4C39FFFE49EFE120A0DC310
:100A8200E49DFDE49CFC8003120A0D30D507C3E40B
:060A92009FFFE49EFE221E
:100A9800A3F8E0C5F025F0F0E58215827002158311
:060AA800E0C838F0E8226E
:10051600E5182493F582E43404F583E00518229067
:100526000490300F03900493E475F001120AAE02B2
:1005360009932008E97F2ED2088018EF540F2490E3
:10054600D43440D4FF300C0BEF24BFB41A00500350
:100556002461FFE51960021519051CE51C700205EA
:100566001B300F0E900490E475F001120AAEEF02F4
:1005760009D9021A3B7403D20F8003E4C20FF5189F
:10058600900490120AC5E4F519F51BF51CE51960EF
:10059600077F2012055980F5751AFFC209C208C2E5
:1005A6000AC20BC20DC20EC210120525FF700D3015
:1005B6000F057F0012056AAF1CAE1B22B4255FC271
:1005C600D5C20C120525FF24D0B40A00501A75F0C6
:1005D6000A781930D50508B6FF0106C6A426F62006
:1005E600D5047002D20B80D924CFB41A00EF500480
:1005F600C2E5D20C02076BD20980C6D20880C0D2EF
:100606000A80BCD2D580BAD20D80B47F201205599B
:10061600200A077401B5190040F1120516FF1205EC
:1006260059020593D210D20E8095120516FB1205BB
:1006360016FA120516F94A4B7006793C7A087BFFC2
:10064600200A2EE519602A7E008E82758300120923
:10065600AC60060EEE651A70F0C2D5EBC0E0EAC0DB
:10066600E0E9C0E0EE1207B2D0E0F9D0E0FAD0E05F
:10067600FB120993FF60AAEBC0E0EAC0E0E9C0E024
:10068600120559D0E02401F9D0E03400FAD0E0FB9D
:10069600E51A0460DCD51AD980877BFF7A0779AE24
:1006A600D20A809C791080027908C20EC210800896
:1006B600D2D5790A8004790AC2D5E51A047002F502
:1006C6001AE4FAFDFEFF120516FC7B082009131238
:1006D6000516FD7B1030080A120516FE120516FFD8
:1006E6007B20EC3382D592D55013C3E43008069FA5
:1006F600FFE49EFEE42009039DFDE49CFCE4CBF8A8
:10070600C209EC700CCFCECDCCE824F8F870F3809B
:1007160017C3EF33FFEE33FEED33FDEC33FCEB3363
:10072600FB994002FB0FD8E9EB300905F8D0E0C48D
:1007360048B209C0E00AEC4D4E4F78207B0070C2EB
:10074600EAB51A0040BCC0E01207B4D0F0D0E020F1
:100756000904C4C0E0C4B209C0F0120542D0F0D505
:10076600F0EB020593120ACE06305306AA5806018C
:100776004C05FD4206AE4F06B64406B6490616437C
:0807860006BC5506A04606A0C2
:10078E004506A047085C5006052D06092E062C2BA3
:10079E00060D23062A2008452A05C5480000062412
:1007AE003F3F3F00790AA2D5200B14300D09B91036
:1007BE00020404B9080104A2D5200E02500104203F
:1007CE000A68920AB519005034C0E07F20300B1928
:1007DE007F30A20A720E720D500F12080BC20AC29F
:1007EE000EC20DC2107F30800F300D03E9C0E01233
:1007FE000559300D03D0E0F9D0E0B519CC300D1706
:10080E007F30B9100C1205597F58300C077F788055
:10081E0003B90803120559300A057F2D0205597FC9
:10082E00202010F87F2B200EF322920A80CF286E04
:10083E00756C6C2900D2091205163009F8C20978B8
:10084E001930D50108F60205C52D50434958120539
:10085E00162403B405004001E49008579312054A8C
:0D086E00743A12054AD20B7519040206AA4D
:1012B900021B60E493A3F8E493A34003F68001F2D0
:1012C90008DFF48029E493A3F85407240CC8C33336
:1012D900C4540F4420C8834004F456800146F6DF05
:1012E900E4800B010204081020408090193EE47E3E
:1012F900019360BCA3FF543F30E509541FFEE493FA
:10130900A360010ECF54C025E060A840B8E493A3C0
:10131900FAE493A3F8E493A3C8C582C8CAC583CAEB
:10132900F0A3C8C582C8CAC583CADFE9DEE780BEA3
:01196900007D
:100AAE00F8E0FBA3A3E0F925F0F0E58215827002D1
:070ABE001583E0FA38F02275
:090AC500EBF0A3EAF0A3E9F02232
:100ACE00D083D082F8E4937012740193700DA3A3B7
:100ADE0093F8740193F5828883E4737402936860CB
:060AEE00EFA3A3A380DFCB
:101A3B00EFB40A07740D121A46740A309811A8995C
:101A4B00B8130CC2983098FDA899C298B811F6300B
:071A5B0099FDC299F59922E3
:00000001FF
