:1020D700D3EF9400EE940040147D6E7C00ED1D70EC
:0D20E700011CED4C70F7EF1F70E61E80E34A
:0120F40022C9
:0722F000696E69740D0A001C
:051BB00042054B00009E
:10212C0012214612221F12000E121D847BFF7A22EE
:0A213C0079F0121F96121BFC80FBC5
:101BFC0012217890054BE0FEA3E0FF7C037DE812F8
:101C0C000A0DED4C700312218E90054BE0FEA3E003
:101C1C00FF7C007D64120A0DED4C70031222DF90E4
:101C2C00054BE0FEA3E0FF7C017D2C120A0DED4C70
:061C3C00700312231522C3
:10000E00438E805389F0758ACD758CD4C28DD28C77
:05001E00D2A9D2AF22BF
:03000B00021CCB09
:101CCB00C0E0C0F0C083C082C0D075D01090054C6E
:101CDB00E02401FF90054BE03400FE7C0B7DB81235
:101CEB000A0DECF0FEA3EDF0FF7C037DE8120A0D6C
:101CFB00ED4C7002B2CDD0D0D082D083D0F0D0E0FA
:011D0B0032A5
:05231000344310100130
:0A1F6C00EBF0A3EAF0A3E9F0C29045
:101F7600E4FEEF30E704D2918002C291EF25E0FF44
:0F1F8600D2933092034401FFC2930EEEB408E3EE
:011F95002229
:10221F007F027E001220D7C294D290C293D2C722DF
:0C229A00C290121F76E4FF121F76D29053
:0122A6002215
:0E20B8001220C67D407F251220C67D077F26A0
:1020C600C290121F76AC07AF05121F76D290AF04EE
:0120D60022E7
:031DF30090044F0A
:101DF600121F6CAD07E4FC900452E0FFECC39F5049
:101E06001CE4FF121F7690044FE0FBA3E0FAA3E068
:101E1600F98C82758300EF1209EB0C80DAD290AF51
:011E260005B6
:011E27002298
:031E280090044ED5
:101E2B00121F6CAD07E4FC900451E0FFECC39F5014
:101E3B001A90044EE0FBA3E475F001120A98A9F086
:0F1E4B00FA120993FF121F760C80DCD290AF05BC
:011E5A002265
:1019C200900548EBF0A3EAF0A3E9F0C2947BFF7A1A
:1019D2002379109004517405F07F30121E2890056F
:1019E20048E0FBA3E0FAA3E0F99004517404F07F0D
:1019F200A0121E287D017F211220C67F221220C63E
:101A02007D0A7F241220B87D0E7F201220C6D29438
:071A12007F057E000220D7D2
:101D0C00C2947BFF7A2379109004517405F07F2ADA
:101D1C00121E287D037F211220C67F221220C60DA1
:101D2C007F311220C67F321220C67F331220B87D3D
:0F1D3C000F7F201220C6D2947F057E000220D791
:1021C8007F0712229A8F203005077DFF7F27122074
:0221D800C6221D
:101D4B00E490044DF07F0712229A8F20300629E58C
:101D5B0020540EC29470117B017A05793F90045286
:101D6B007404F07F61121DF37DFF7F271220C6C222
:081D7B00907FE2121F76D29066
:011D8300223D
:101BB500C11141050900410503014505047F0E00DA
:021BC500A0007E
:10214600E5A2543FF5A275985075D7E075D6FE7591
:0A2156008E14438E01D2ACD2AF22EA
:03002300021FC0F9
:101FC000C0E0C0F0C083C082C0D075D00830980592
:101FD000C298121969309904C299C211D0D0D08226
:071FE000D083D0F0D0E03205
:0922D6002011FDEFD211F599224F
:0B1F960090044CEBF0A3EAF0A3E9F08C
:101FA100E4FE90044CE0FBA3E0FAA3E0F98E827515
:0E1FB10083001209ACFF60061222D60E80E4F7
:011FBF0022FF
:0722F7007B017A05790A2240
:0622FE00900509E0FF223B
:06230400900503E0FF223A
:0F225F00EFB40105E4900509F0900503EFF022BC
:10196900E4FE122304EF6401704EAE99900509E07C
:10197900FFC39405501774042FF582E43405F583E9
:10198900E06E6009E4900509F07FFF802890050961
:10199900E0FFC39405400C74052FF582E43405F586
:1019A90083EEF0900509E004F0E0D3940F4009E0DC
:0819B90024FBF0E4FF12225FA1
:0119C1002203
:10217800E490044CF0121D0C121D4B7B017A05797A
:062188003F7D040213B8C4
:10218E00120DD1121EEB7B017A0579257D031216F5
:04219E0061021E5B61
:0922DF001222F7120C86022034D1
:03231500021F4163
:1014E200535550504F52542D49442D434152442D8F
:1014F2004F4E4C5921004E4F2E25642D4F55542DE1
:101502003B6E756D6265722D69732E25642E002DFA
:101512002D46554C4C2D2D002D2D63616C6C6D6547
:101522002D2D3133303737363631353934004E4F81
:101532002E25642D494E2D3B6E756D6265722D69A7
:10154200732D25642E006361736863617264000009
:101552000000000000000000000000000000000089
:041562000000000085
:041BC70041051A00BA
:101D8400C2A61221FD7D0A7F841220787D367F82CF
:101D94001220787D1E7F801220781222CB12209888
:101DA4001222C0E4900522F0A3F0A3F090052BF0DA
:091DB400A3F0A3F07F030222E872
:1013B800900450EDF090044DEBF0A3EAF0A3E9F0AF
:1013C800E4FE12099324D0900451F090053FE060A8
:1013D8007C7C01900450E0C36480F8EC64809850F1
:1013E8002390044DE0FBA3E0FAA3E0F9ECF5823387
:1013F80095E0F5831209AC24D0FFEE75F00AA42F0E
:10140800FE0C80CF900451E0FFB40107900525EE53
:10141800F08030EFB40207900526EEF080259004A6
:1014280051E0FFB40307900527EEF08016EFB404EF
:1014380007900528EEF0800B7C0590053FE4F0A3AB
:0D144800DCFC227C0590053FE4F0A3DCFCF9
:011455002274
:101EEB007B017A04794C1212627B017A04794C12D1
:101EFB0016DE90044EE090051DF090044DE0900529
:0A1F0B001EF090044CE090051FF05A
:011F150022A9
:0B0C860090044CEBF0A3EAF0A3E9F0AF
:100C9100E4A3F01222FE900450EFF0E490045BF024
:100CA100A3F0785D7C047D017BFF7A157948FE7F96
:100CB1001E12094B122304EF64017003020DD012BE
:100CC10022C0122304BFFF0E7F051222E87BFF7AA8
:100CD1001479E2020DC67F021222E8E490044FF07B
:100CE100900450E0FF90044FE0FEC39F5041EEC3DB
:100CF1009F502090044CE0FBA3E0FAA3E0F98E8220
:100D01007583001209ACFF74512EF582E43404F5A9
:100D110083EFF090044CE0FBA3E0FAA3E0F98E82AC
:100D2100758300E41209EB90044FE004F080B17B7D
:100D3100017A0479511217C990045CEFF0F4602133
:100D410090051AE014F090045CE0FF12230A90046D
:100D51009F74FFF0A37414F0A374F8F090045C8006
:100D61003E7B017A047951121A1990045BEFF0BFAE
:100D7100FF167BFF7A157911E4FD121B147BFF7AB4
:100D810015791A7DFF021B1490051AE004F09004F6
:100D91009F74FFF0A37415F0A37430F090045BE02E
:100DA100FF9004A2E4F0A3EFF090051AE0FF900495
:100DB100A4E4F0A3EFF07B017A04795D12057B7B5B
:0F0DC100017A04795D7D03121AC27F0112225F4D
:010DD0002200
:0F222F00EF7F08A2E09286D285C285C313DFF449
:01223E00227D
:0F223F007F08C313A28692E7D285C285DFF4FF22
:01224E00226D
:1021EC00C287C285D28712222FAF0512222FC28737
:0121FC0022C0
:1021A200C287C285D287EF4401FF12222F12223F3B
:0221B200C287E2
:0121B4002208
:0F226E003008047D108002E4FD7F8E1221EC22E7
:10207800AE05AC07C20812226EAF04EE75F00A84F2
:10208800C454F0FDEE75F00A84E5F04DFD0221EC34
:101262007F801221A2EF5470C4540F75F00AA4FEBD
:10127200EF540F2E1209D97F821221A2EF5470C4AB
:10128200540F75F00AA4FEEF540F2E9000011209BC
:10129200EB7F841221A2EF5470C4540F75F00AA49C
:1012A200FEEF540F2E9000021209EB7F861221A24C
:1012B200EF5470C4540F75F00AA4FEEF540F2E9031
:1012C20000041209EB7F8A1221A2EF5470C4540F5A
:1012D20075F00AA4FEEF540F2E9000031209EB7F63
:1012E200881221A2EF5470C4540F75F00AA4FEEFC5
:1012F200540F2E9000051209EB7F8C1221A2EF549D
:1013020070C4540F75F00AA4FEEF540F2E9000061D
:031312000209EBE2
:1015E4009000061209AC75F00A849000071209EB0A
:1015F4009000061209AC75F00A84900008E5F01218
:1016040009EB900009742D1209EB9000051209AC46
:1016140075F00A8490000A1209EB9000051209ACD7
:1016240075F00A8490000BE5F01209EB90000C743D
:101634002D1209EB9000041209AC75F00A84900095
:101644000D1209EB9000041209AC75F00A849000A5
:0D1654000EE5F01209EB90000FE40209EB27
:1016DE009000021209AC75F00A849000101209EB0A
:1016EE009000021209AC75F00A84900011E5F01218
:1016FE0009EB900012743A1209EB9000011209AC3A
:10170E0075F00A849000131209EB9000011209ACD7
:10171E0075F00A84900014E5F01209EB9000157430
:10172E003A1209EB120993FF75F00A849000161213
:10173E0009EBEF75F00A84900017E5F01209EB90B3
:06174E00000FE40209EBAC
:1021FD007F801221A2EF30E707E4FD7F8012207867
:01220D0022AE
:1000260000E010080810E000000F102020100F005C
:1000360000001010F8000000000020203F202000E3
:10004600007008080808F00000302824222130003B
:1000560000300808088870000018202121221C00A2
:100066000000804030F8000000060524243F2424C8
:1000760000F88888880808000019202020110E0042
:1000860000E0108888900000000F112020201F003B
:1000960000180808886818000000003E01000000EB
:1000A6000070880808887000001C222121221C008C
:1000B60000F008080810E0000001122222110F00CB
:1000C600000000C0C000000000000030300000004A
:1000D6000000008000000000000000E000000000BA
:1000E60000008040201008000001020408102000D3
:1000F600004040404040400000020202020202006E
:1001060000081020408000000020100804020100B2
:1001160000704808088870000000003037000000B2
:10012600C030C828E810E000071827282F28170035
:100136000000C038E0000000203C230202273820DF
:1001460008F8888888700000203F202020110E00C3
:10015600C0300808080838000718202020100800BA
:1001660008F808080810E000203F202020100F00A3
:1001760008F88888E8081000203F2020232018006F
:1001860008F88888E8081000203F200003000000D7
:10019600C03008080838000007182020221E020078
:1001A60008F808000008F808203F210101213F2037
:1001B600000808F8080800000020203F2020000062
:1001C60000000808F8080800C08080807F00000052
:1001D60008F888C028180800203F2001263820008B
:1001E60008F8080000000000203F202020203000F2
:1001F60008F8F800F8F80800203F013E013F20000B
:1002060008F830C00008F808203F200007183F0013
:10021600E01008080810E0000F10202020100F0042
:1002260008F808080808F000203F21010101000035
:10023600E01008080810E0000F10282830504F0082
:1002460008F8888888887000203F2000030C30203A
:1002560000708808080838000038202121221C0078
:10026600180808F8080818000000203F20000000C1
:1002760008F808000008F808001F202020201F00AA
:100286000878880000C83808000007380E0100000A
:1002960008F800F800F8080000033E013E030000DD
:1002A600081868808068180820302C03032C30203A
:1002B6000838C800C83808000000203F20000000A9
:1002C60010080808C8380800203826212020180001
:1002D600000000FE020202000000007F40404000D5
:1002E60000000000C038040000601807000000008D
:1002F60000020202FE000000004040407F000000B5
:1003060000000402020400000000000000000000DB
:1003160000000000000000000001010101010100D1
:1003260000020204000000000000000000000000BF
:10033600000080808000000000192424123F200065
:1003460010F0008080000000003F112020110E00F8
:100356000000008080800000000E11202020110087
:10036600000080808090F000001F202020103F2099
:100376000000808080800000001F242424241700B1
:10038600008080E0909020000020203F2020000088
:100396000000808080808000006B949494936000BD
:1003A60010F0008080800000203F210000203F20C8
:1003B60000809898000000000020203F20200000C8
:1003C600000000809898000000C08080807F0000B8
:1003D60010F0000080808000203F24062930200095
:1003E600001010F8000000000020203F2020000030
:1003F6008080808080808000203F20003F20003F5A
:100406008080008080800000203F210000203F2067
:100416000000808080800000001F202020201F0018
:10042600808000808000000080FF912020110E0057
:100436000000008080008000000E11202091FF80C7
:10044600808080008080800020203F2120000100E5
:10045600000080808080800000332424242419003A
:10046600008080E0808000000000001F2020100037
:100476008080000000808000001F202020103F2088
:10048600808080008080800000030C300C03000018
:100496008080008080008080010E300C07380601C5
:1004A60000808080008080000020310E2E312000E8
:1004B6008080800000808080008186781806010098
:1004C60000808080808080000021302C2221300036
:1004D6000000000000FC020200000000013E404057
:1004E600000438C000000000000000010638C0000B
:1004F6000202FC000000000040403E010000000037
:1005060000020102020402000000000000000000D8
:041BCB004104E400ED
:0E227D00E4FFFE0FBF00010EBE01F8BFF4F536
:01228B002230
:101C420075F010EBA42CF582E435F0F583E58224DF
:0E1C520026F582E5833400F583E493FF7D01DF
:101C6000C2C4ED24FF92A0E4FEEF30E704D2A180CD
:101C700002C2A1EF25E0FFC2A2D2A20EEEB408E993
:061C8000D2A0D2C4D2A1E3
:011C8600223B
:10209800C2C312227DD2C3E4FD7F21121C607FD00F
:1020A800121C607F20121C607F0C121C6002200E24
:1021DA00AC07ED4440FFE4FD121C60EC4480FF02B2
:0221EA001C6077
:1020F500E4FDFF1221DAE4FCE4FB7D01E4FF121CA0
:0B210500600BEBB454F40CECB406EDDE
:0121100022AC
:041EBD00A907AA05C2
:101EC100E975F008A4FF1221DAE4FC121C420CECC3
:101ED100B408F8E975F008A4FFEA04FD1221DA7CE0
:091EE10008121C420CECB410F8CC
:011EEA0022D5
:041DBD00AB05AA07C1
:101DC100EA75F008A4FF1221DAE4FC7D01E4FF12B8
:101DD1001C600CECB408F4EA75F008A4FFEB04FDF8
:101DE1001221DA7C087D01E4FF121C600CECB410B6
:011DF100F4FD
:011DF20022CE
:10200E00E4FFEFFD3395E0FC74E52DF58274043C9E
:10201E00F583E4F074C62DF58274043CF583E4F088
:05202E000FEFB41EDD00
:01203300228A
:0B0FF00090049CEBF0A3EAF0A3E9F0F2
:100FFB00E49004A2F0A3F0A3F09004A2F09004A25A
:10100B00E0FFC3941E40030210DEEF75F00A84E587
:10101B00F0701AE0D3940040149004A4E02402F082
:10102B00E075F00584E5F0F0E49004A3F090049CE7
:10103B00E0FBA3E0FAA3E0F99004A2E0FFF58275D0
:10104B0083001209ACFE90049FE0FBA3E0FAA3E03F
:10105B00F98F827583001209ACB506028066900485
:10106B00A2E0FF90049FE0FBA3E0FAA3E0F98F82DC
:10107B00758300EE1209EB90049CE0FBA3E0FAA34E
:10108B00E0F99004A2E0F5827583001209ACFFC36E
:10109B00648094B04023EF648094FF501C9004A3B1
:1010AB00E0FFA3E0FD9004A2E0F582758300120936
:1010BB00AC24D0FB121EBD800B9004A3E0FFA3E079
:1010CB00FD121DBD9004A3E004F09004A2E004F017
:0310DB00021008F8
:0110DE0022EF
:0B22C00012200EE49004E4F00220F570
:101B1400C3ED6480948040059004E4EDF0120993D1
:101B2400FF60259004E4E024E5F582E43404F583C1
:101B3400EFF0740129F9E43AFA9004E4E004F07552
:101B4400F01E84E5F0F080D590049F7401F0A37436
:0F1B540004F0A374C6F07B017A0479E5020FF068
:0800030070B0D0E0070B0D0EF8
:101B6300E4A29533C43333335480FFE4A29633C4E1
:101B7300333354C04FFFE4A29733C43354E04FFFD1
:101B8300E4A2CC33C454F04FFFE4A2B43333333371
:101B930054F84FFFE4A2B33325E025E04FFFE4A25E
:0C1BA300B23325E04FFFE4A2C0334FFF37
:011BAF002213
:1010DF0090044C74FFF0E4FDA3F0A3F0A3F078505C
:1010EF007C040D7BFF7A007903FE7F0412094B7895
:1010FF00547C047D017BFF7A0079077E007F041208
:10110F00094BD295D296D297D2CCC2B4C2B3C2B247
:10111F00C2C0121B63AD07EDB4F0037FFF22C2956F
:10112F00C296C297C2CCD2B4D2B3D2B2D2C0121B23
:10113F006390044DEFF0640F6061E4A3F090044EF0
:10114F00E0FFC39404501674502FF582E43404F575
:10115F0083E06D600890044EE004F080E0E49004BA
:10116F004FF090044FE0FFC39404501B74542FF5BD
:10117F0082E43404F583E0FF90044DE06F60089043
:10118F00044FE004F080DB90044FE025E025E0FF02
:0D119F0090044EE02FFF90044CF0227FFFE3
:0111AC002220
:10220E00000102FF030405FF060708FF09FFFFFF99
:01221E00FFC0
:081BCF0041054EFF41054DFFE9
:10203400E4FF1210DFEFF4600690054EEFF02290FB
:10204400054EE0FFF4600590054DEFF090054E74E9
:02205400FFF09B
:012056002267
:0B22B40090054DE0FF30080374FFF0C0
:0122BF0022FC
:1021B500EF3395E0FE740E2FF58274223EF583E42D
:0221C50093FF86
:0121C70022F5
:01231B00229F
:0A22CB007F649003E8E4F0A3DFFC59
:0122D50022E6
:10216000E4FF74E82FF582E43403F583E070012284
:072170000FEFB464ED7FFFE7
:012177002245
:0D22A70074E82FF582E43403F583E4F0229F
:0E228C0074E82FF582E43403F5837401F02228
:0B1A190090047BEBF0A3EAF0A3E9F0DF
:101A2400E4FE122160AD07EDB4FF037FFF22E4FE64
:101A340090047BE0FBA3E0FAA3E0F98E82758300B7
:101A44001209ACFF75F00AEDA42400F582E5F03428
:101A540000F583E5822EF582E43583F583EFF00EFD
:091A6400EEB40ACCAF0512228C8D
:011A6D002256
:0B17C90090047BEBF0A3EAF0A3E9F032
:1017D400E4A3F0FFFE74E82FF582E43403F583E01C
:1017E400604BE490047EF0FE90047BE0FBA3E0FAFF
:1017F400A3E0F98E827583001209ACFD75F00AEF3F
:10180400A42400F582E5F03400F583E5822EF58208
:10181400E43583F583E06D600890047E74FFF08006
:10182400050EEEB40AC290047EE07001220FEFB4FC
:0418340064A37FFF2B
:01183800228D
:0F224F001217C9EFB4FF037FFF221222A77F00EF
:01225E00225D
:06230A001222A77F002251
:10190900696E707574686F75723A3D256400696E09
:101919007075746D696E3A3D256400696E707574F1
:101929007365633A3D2564002D2D2D2D2D2D2D2D0B
:101939002D2D57616974696E67005345542D2D42E9
:1019490045452D2D2D2D4F4E2D2D2D2D0053455413
:101959002D2D4245452D2D2D2D4F46462D2D2D0042
:041BD70041053E0086
:0B0AF40090046AEBF0A3EAF0A3E9F025
:100AFF00C2081222B490048BEFF0A374FFF090059C
:100B0F0046E0701890048BE0B403117F011222E8C5
:100B1F009005467401F090048B74FFF0900546E049
:100B2F00640170651222C01218A990048CEFF09026
:100B3F00049F74FFF0A37419F0A37409F0EF3395B9
:100B4F00E0A3F0A3EFF07B017A04796D12057B7BB4
:100B5F00017A04796DE4FD121B1490048BE0B40349
:100B6F00287F011222E89005467402F090048CE071
:100B7F00FF90046AE0FBA3E0FAA3E0F9900002EF14
:100B8F001209EB90048B74FFF0900546E06402703D
:100B9F00651222C01218A990048CEFF090049F7474
:100BAF00FFF0A37419F0A37417F0EF3395E0A3F0DF
:100BBF00A3EFF07B017A04796D12057B7B017A0438
:100BCF00796DE4FD121B1490048BE0B403287F01B0
:100BDF001222E89005467403F090048CE0FF900415
:100BEF006AE0FBA3E0FAA3E0F9900003EF1209EB30
:100BFF0090048B74FFF0900546E064037076122228
:100C0F00C01218A990048CEFF090049F74FFF0A30A
:100C1F007419F0A37424F0EF3395E0A3F0A3EFF071
:100C2F007B017A04796D12057B7B017A04796DE47F
:100C3F00FD121B1490048BE0640370387F011222A5
:100C4F00E8E4900546F090048CE0FF90046AE0FB26
:100C5F00A3E0FAA3E0F9900004EF1209EB90048BE4
:100C6F0074FFF01222C07BFF7A197931E4FD121B59
:060C7F00147F00227FFF3C
:010C8500224C
:101F16007B017A057939120AF4EF701E90053BE0D1
:101F2600FD7F8412207890053CE0FD7F82122078A8
:0B1F360090053DE0FD7F801220782226
:03231800020AF4C2
:1018A900C2081222B490048DEFF0F4601BE0FF121D
:1018B90021B5EFF4601290048DE0FF1221B5900577
:1018C9003EE075F00AA42FF090048DE0B40E2B9041
:1018D900053EE0FF75F00A120971AEF0EEFD339591
:1018E900E0FCEF3395E0FEC3EF9DFFEE9CFE7C002C
:0F18F9007D0A120A6290053EEFF090053EE0FF77
:0119080022BC
:10156600C2081222B4900488EFF0BF031290054619
:10157600E0700C7404F01222C090048874FFF0909E
:101586000546E064047056900488E0FFB40F02B28A
:1015960013EFB40B02B21390049F74FF30130AF0DA
:1015A600A37419F0A374438008F0A37419F0A3740C
:1015B60056F07B017A04796A12057B7B017A0479FD
:1015C6006AE4FD121B14900488E0B40310E490054D
:0D15D60046F090048874FFF07F031222E8B5
:0115E30022E5
:0E1BDB0041053000C19241052F0541052E0441
:101A6E00D2C6D2C5D2A7E4900531F0A3F0A3F0A35D
:101A7E00F0D3EF64809480400DA3E06009C2C6905D
:101A8E0005317401F01FD3EF64809480400F9005F0
:101A9E0036E06009C2C59005327401F01FD3EF64C1
:101AAE00809480400E900537E06008C2A790053301
:041ABE007401F0229D
:101E5B0090044F7401F0A37405F0A37420F0A374E5
:101E6B0001F0A37405F0A37429F07B017A05791BAB
:101E7B0012183990051AE0FF122111900530E0FF7E
:031E8B00021A6ECA
:0B16610090044CEBF0A3EAF0A3E9F0CA
:10166C00E4FF900530F0EFC39D506690044CE0FB16
:10167C00A3E0FAA3E0F98F827583001209ACFE9007
:10168C00052FE0D36480F8EE648098401374352FF6
:10169C00F582E43405F5837401F0900530E004F034
:1016AC0090044CE0FBA3E0FAA3E0F98F8275830071
:1016BC001209ACFE90052EE0D36480F8EE6480989D
:1016CC00500C74352FF582E43405F583E4F00F806B
:0116DC009578
:0116DD0022EA
:100EF500900452E0F9A3E0FAA3E0900458C9F0A3E6
:100F0500EAF0A3E9F090044CE0FBA3E0FAA3E0F9D2
:100F1500900455EBF0A3EAF0A3E9F0A3E0FBA3E00E
:100F2500FAA3E0F99000021209ACFE900455E0FB2B
:100F3500A3E0FAA3E0F99000021209ACFDD39E40AC
:100F4500037F0122EDB5062A900458E0FBA3E0FAE1
:100F5500A3E0F99000031209ACFF900455E0FBA350
:100F6500E0FAA3E0F99000031209ACD39F40037F98
:100F75000122900458E0FBA3E0FAA3E0F9900002F7
:100F85001209ACFF900455E0FBA3E0FAA3E0F99049
:100F950000021209AC6F7050900458E0FBA3E0FA10
:100FA500A3E0F99000031209ACFF900455E0FBA300
:100FB500E0FAA3E0F99000031209ACB5072A900402
:100FC50058E0FBA3E0FAA3E0F99000041209ACFF96
:100FD500900455E0FBA3E0FAA3E0F99000041209A0
:0B0FE500ACD39F40037F01227FFF225E
:1018390090044CEBF0A3EAF0A3E9F0900452E0F92C
:10184900A3E0FAA3E0900458C9F0A3EAF0A3E9F0F1
:1018590090044F120F0DD3EF64809480401E120E36
:10186900F5D3EF64809480401190044F120EF8C3B1
:10187900EF64809480501EC212228019120EF5C3A3
:10188900EF64809480501690044F120EF8D3EF64E1
:101899008094804008D212E4900530F022C21222CE
:10211100201217900530E0FD3395E0FCEFD39DECE4
:0B2121006480F87480985002EFF022F8
:101315005B25643A25643A25645D002D2D77656C5F
:101325006C636F6D2D2D2D2D2D7573652D2D2D2D2B
:1013350057494D492D4445562D006125642C62259C
:10134500642C6325642C642564002D54494D452D7A
:101355004E4F572D004F50454E2D54494D452D00AC
:101365002D4F46462D54494D452D004245452D45A9
:101375004E41424C452D2D2D2D4F4E2D2D2D2D0001
:101385004245452D454E41424C452D2D2D2D4F466F
:10139500462D2D2D002D2D2D4C494748542D2D0022
:1013A50025643A25632D2D0025732D2D2D2D2D2DED
:0313B500256400AC
:101BE900410544004105460041054500C1934105B1
:021BF9004700A3
:0B17540090046AEBF0A3EAF0A3E9F0B8
:10175F0090049F74FFF0A37413F0A37415F090041A
:10176F006AE0FBA3E0FAA3E0F99000021209ACFFD4
:10177F009004A2E4F0A3EFF09000031209ACFF90E5
:10178F0004A4E4F0A3EFF09000041209ACFF90045E
:10179F00A6E4F0A3EFF07B017A04797012057B9039
:1017AF00046DE0FBA3E0FAA3E0F9E4FD121B147B48
:0A17BF00017A0479707DFF021B140B
:101C8700900546E0703DC2081222B4BF0F169005BA
:101C970044E004F0E0C394074002E4F07F0112221D
:101CA700E81222C0C2081222B4BF0B17900544E005
:101CB70014F0E0D3940640037406F07F011222E883
:041CC7001222C02203
:100DD100122057EF6003020EF4121C87900544E0C5
:100DE10070087BFF7A137920805A900544E06401F2
:100DF100705990049F74FFF0A37413F0A3743FF033
:100E0100900525E0FF9004A2E4F0A3EFF090052601
:100E1100E0FF9004A4E4F0A3EFF0900527E0FF9039
:100E210004A6E4F0A3EFF0900528E0FF9004A8E405
:100E3100F0A3EFF07B017A04794C12057B7B017AF8
:100E410004794CE4FD121B14020EEF900544E0B44A
:100E51000222900546E0701790046D74FFF0A374B0
:100E610013F0A3744FF07B017A05791B121754120A
:100E71001F16807A900544E0B403257B017A057939
:100E810029120AF4900546E0706490046D74FFF035
:100E9100A37413F0A3745AF07B017A057929802A8F
:100EA100900544E0B404287B017A057920120AF404
:100EB100900546E0703890046D74FFF0A37413F050
:100EC100A37465F07B017A057920121754801F9075
:100ED1000544E0B4050E900546E07003121E8E1223
:100EE1001566800A900544E0B406031211ADD208DC
:030EF1001222B416
:010EF40022DB
:0822E800900545EFF0021F41D3
:101F4100900545E0FFD364809480401C301310EF6E
:101F510075F002120971AFF0EF6004D2A68002C2DF
:0B1F6100A6900545E014F022C2A62265
:101E8E0090049F74FF30130AF0A37413F0A37470C0
:101E9E008008F0A37413F0A37485F07B017A0479A3
:0F1EAE006A12057B7B017A04796AE4FD021B143A
:1011AD00E4900488F090049F74FFF0A37413F0A3EF
:1011BD00749AF07B017A04796A12057B7B017A04BB
:1011CD00796AE4FD121B14E4900488F0900488E021
:1011DD00FFC364809483507CEF3395E0FE74312F10
:1011ED00F58274053EF583E090049F602574FFF051
:1011FD00A37413F0A374A5F0900488E03395E0FE7A
:10120D00EF2401FFE43E9004A2F0A3EFF0A3744F8E
:10121D00802474FFF0A37413F0A374A5F0900488D8
:10122D00E0FF3395E0FEEF2401FFE43E9004A2F0D1
:10123D00A3EFF0A37458F07B017A04796A12057B51
:10124D007B017A04796A7DFF121B14900488E004F7
:04125D00F00211D9B1
:01126100226A
:0B1AC20090047BEBF0A3EAF0A3E9F036
:101ACD00AF05900547EFF090049F74FFF0A37413DA
:101ADD00F0A374ADF090047BE0F9A3E0FAA3E090DD
:101AED0004A2C9F0A3EAF0A3E9F0EF3395E0A3F067
:101AFD00A3EFF07B017A04797E12057B7B017A04DA
:071B0D00797EE4FD021B14C8
:10205700900547E0FED3648094804006E014F07F4B
:102067000122EE70091222C090054774FFF07F002D
:012077002246
:0300000002145691
:0C145600787FE4F6D8FD75812202149D19
:10087B00E709F608DFFA8046E709F208DFFA803E5F
:10088B0088828C83E709F0A3DFFA8032E309F6084C
:10089B00DFFA8078E309F208DFFA807088828C83B4
:1008AB00E309F0A3DFFA806489828A83E0A3F60868
:1008BB00DFFA805889828A83E0A3F208DFFA804C42
:1008CB0080D280FA80C680D4806980F28033801019
:1008DB0080A680EA809A80A880DA80E280CA803382
:1008EB0089828A83ECFAE493A3C8C582C8CCC583FA
:1008FB00CCF0A3C8C582C8CCC583CCDFE9DEE780CA
:10090B000D89828A83E493A3F608DFF9ECFAA9F048
:10091B00EDFB2289828A83ECFAE0A3C8C582C8CC9E
:10092B00C583CCF0A3C8C582C8CCC583CCDFEADEB7
:10093B00E880DB89828A83E493A3F208DFF980CC19
:10094B0088F0EF60010E4E60C388F0ED2402B40412
:10095B000050B9F582EB2402B4040050AF232345B9
:06096B0082239008CB730B
:10097100C2D530F707B2D563F0FF05F030E70CB20E
:10098100D5F4048463F0FF05F080018430D502F4CE
:0209910004223E
:10099300BB010689828A83E0225002E722BBFE0262
:0909A300E32289828A83E4932295
:1009AC00BB010CE58229F582E5833AF583E0225000
:1009BC0006E92582F8E622BBFE06E92582F8E2224A
:0D09CC00E58229F582E5833AF583E4932264
:1009D900BB010689828A83F0225002F722BBFE01FD
:0209E900F322F7
:1009EB00F8BB010DE58229F582E5833AF583E8F042
:1009FB00225006E92582C8F622BBFE05E92582C8EE
:020A0B00F222D5
:100A0D00BC000BBE0029EF8DF084FFADF022E4CCCD
:100A1D00F875F008EF2FFFEE33FEEC33FCEE9DEC96
:100A2D00984005FCEE9DFE0FD5F0E9E4CEFD22EDDC
:100A3D00F8F5F0EE8420D21CFEADF075F008EF2F26
:100A4D00FFED33FD4007985006D5F0F222C398FD17
:050A5D000FD5F0EA22B4
:100A6200C2D5EC30E709B2D5E4C39DFDE49CFCEEAF
:100A720030E715B2D5E4C39FFFE49EFE120A0DC310
:100A8200E49DFDE49CFC8003120A0D30D507C3E40B
:060A92009FFFE49EFE221E
:100A9800A3F8E0C5F025F0F0E58215827002158311
:060AA800E0C838F0E8226E
:10051600E518249FF582E43404F583E0051822905B
:10052600049C300F0390049FE475F001120AAE029A
:1005360009932008E97F2ED2088018EF540F2490E3
:10054600D43440D4FF300C0BEF24BFB41A00500350
:100556002461FFE51960021519051CE51C700205EA
:100566001B300F0E90049CE475F001120AAEEF02E8
:1005760009D9021FE77403D20F8003E4C20FF518EE
:1005860090049C120AC5E4F519F51BF51CE51960E3
:10059600077F2012055980F5751AFFC209C208C2E5
:1005A6000AC20BC20DC20EC210120525FF700D3015
:1005B6000F057F0012056AAF1CAE1B22B4255FC271
:1005C600D5C20C120525FF24D0B40A00501A75F0C6
:1005D6000A781930D50508B6FF0106C6A426F62006
:1005E600D5047002D20B80D924CFB41A00EF500480
:1005F600C2E5D20C02076BD20980C6D20880C0D2EF
:100606000A80BCD2D580BAD20D80B47F201205599B
:10061600200A077401B5190040F1120516FF1205EC
:1006260059020593D210D20E8095120516FB1205BB
:1006360016FA120516F94A4B7006793C7A087BFFC2
:10064600200A2EE519602A7E008E82758300120923
:10065600AC60060EEE651A70F0C2D5EBC0E0EAC0DB
:10066600E0E9C0E0EE1207B2D0E0F9D0E0FAD0E05F
:10067600FB120993FF60AAEBC0E0EAC0E0E9C0E024
:10068600120559D0E02401F9D0E03400FAD0E0FB9D
:10069600E51A0460DCD51AD980877BFF7A0779AE24
:1006A600D20A809C791080027908C20EC210800896
:1006B600D2D5790A8004790AC2D5E51A047002F502
:1006C6001AE4FAFDFEFF120516FC7B082009131238
:1006D6000516FD7B1030080A120516FE120516FFD8
:1006E6007B20EC3382D592D55013C3E43008069FA5
:1006F600FFE49EFEE42009039DFDE49CFCE4CBF8A8
:10070600C209EC700CCFCECDCCE824F8F870F3809B
:1007160017C3EF33FFEE33FEED33FDEC33FCEB3363
:10072600FB994002FB0FD8E9EB300905F8D0E0C48D
:1007360048B209C0E00AEC4D4E4F78207B0070C2EB
:10074600EAB51A0040BCC0E01207B4D0F0D0E020F1
:100756000904C4C0E0C4B209C0F0120542D0F0D505
:10076600F0EB020593120ACE06305306AA5806018C
:100776004C05FD4206AE4F06B64406B6490616437C
:0807860006BC5506A04606A0C2
:10078E004506A047085C5006052D06092E062C2BA3
:10079E00060D23062A2008452A05C5480000062412
:1007AE003F3F3F00790AA2D5200B14300D09B91036
:1007BE00020404B9080104A2D5200E02500104203F
:1007CE000A68920AB519005034C0E07F20300B1928
:1007DE007F30A20A720E720D500F12080BC20AC29F
:1007EE000EC20DC2107F30800F300D03E9C0E01233
:1007FE000559300D03D0E0F9D0E0B519CC300D1706
:10080E007F30B9100C1205597F58300C077F788055
:10081E0003B90803120559300A057F2D0205597FC9
:10082E00202010F87F2B200EF322920A80CF286E04
:10083E00756C6C2900D2091205163009F8C20978B8
:10084E001930D50108F60205C52D50434958120539
:10085E00162403B405004001E49008579312054A8C
:0D086E00743A12054AD20B7519040206AA4D
:1014620002212CE493A3F8E493A34003F68001F253
:1014720008DFF48029E493A3F85407240CC8C3338B
:10148200C4540F4420C8834004F456800146F6DF5A
:10149200E4800B0102040810204080901BB0E47E1F
:1014A200019360BCA3FF543F30E509541FFEE4934F
:1014B200A360010ECF54C025E060A840B8E493A316
:1014C200FAE493A3F8E493A3C8C582C8CAC583CA41
:1014D200F0A3C8C582C8CAC583CADFE9DEE780BEF9
:011BFB0000E9
:100AAE00F8E0FBA3A3E0F925F0F0E58215827002D1
:070ABE001583E0FA38F02275
:090AC500EBF0A3EAF0A3E9F02232
:100ACE00D083D082F8E4937012740193700DA3A3B7
:100ADE0093F8740193F5828883E4737402936860CB
:060AEE00EFA3A3A380DFCB
:101FE700EFB40A07740D121FF2740A309811A899FA
:101FF700B8130CC2983098FDA899C298B811F6305A
:0720070099FDC299F5992231
:00000001FF
